{
  "contractName": "AdminManaged",
  "abi": [
    {
      "inputs": [
        {
          "name": "_firstAdmin",
          "type": "address"
        }
      ],
      "payable": false,
      "stateMutability": "nonpayable",
      "type": "constructor"
    },
    {
      "constant": false,
      "inputs": [
        {
          "name": "_newAdmin",
          "type": "address"
        }
      ],
      "name": "addAdmin",
      "outputs": [],
      "payable": false,
      "stateMutability": "nonpayable",
      "type": "function"
    },
    {
      "constant": false,
      "inputs": [
        {
          "name": "_oldAdmin",
          "type": "address"
        }
      ],
      "name": "removeAdmin",
      "outputs": [],
      "payable": false,
      "stateMutability": "nonpayable",
      "type": "function"
    },
    {
      "constant": true,
      "inputs": [
        {
          "name": "_account",
          "type": "address"
        }
      ],
      "name": "isAdmin",
      "outputs": [
        {
          "name": "",
          "type": "bool"
        }
      ],
      "payable": false,
      "stateMutability": "view",
      "type": "function"
    }
  ],
  "bytecode": "0x608060405234801561001057600080fd5b506040516108ce3803806108ce8339818101604052602081101561003357600080fd5b810190808051906020019092919050505061005c81600061006260201b6105291790919060201c565b50610221565b610072828261014360201b60201c565b156100e5576040517f08c379a000000000000000000000000000000000000000000000000000000000815260040180806020018281038252601f8152602001807f526f6c65733a206163636f756e7420616c72656164792068617320726f6c650081525060200191505060405180910390fd5b60018260000160008373ffffffffffffffffffffffffffffffffffffffff1673ffffffffffffffffffffffffffffffffffffffff16815260200190815260200160002060006101000a81548160ff0219169083151502179055505050565b60008073ffffffffffffffffffffffffffffffffffffffff168273ffffffffffffffffffffffffffffffffffffffff1614156101ca576040517f08c379a00000000000000000000000000000000000000000000000000000000081526004018080602001828103825260228152602001806108ac6022913960400191505060405180910390fd5b8260000160008373ffffffffffffffffffffffffffffffffffffffff1673ffffffffffffffffffffffffffffffffffffffff16815260200190815260200160002060009054906101000a900460ff16905092915050565b61067c806102306000396000f3fe608060405234801561001057600080fd5b50600436106100415760003560e01c80631785f53c1461004657806324d7806c1461008a57806370480275146100e6575b600080fd5b6100886004803603602081101561005c57600080fd5b81019080803573ffffffffffffffffffffffffffffffffffffffff16906020019092919050505061012a565b005b6100cc600480360360208110156100a057600080fd5b81019080803573ffffffffffffffffffffffffffffffffffffffff16906020019092919050505061024e565b604051808215151515815260200191505060405180910390f35b610128600480360360208110156100fc57600080fd5b81019080803573ffffffffffffffffffffffffffffffffffffffff16906020019092919050505061026b565b005b61013e33600061038e90919063ffffffff16565b6101b0576040517f08c379a00000000000000000000000000000000000000000000000000000000081526004018080602001828103825260138152602001807f55736572206e6f7420617574686f72697365640000000000000000000000000081525060200191505060405180910390fd5b6101c481600061046c90919063ffffffff16565b6101d881600061038e90919063ffffffff16565b1561024b576040517f08c379a00000000000000000000000000000000000000000000000000000000081526004018080602001828103825260198152602001807f55736572206e6f742072656d6f7665642061732061646d696e0000000000000081525060200191505060405180910390fd5b50565b600061026482600061038e90919063ffffffff16565b9050919050565b61027f33600061038e90919063ffffffff16565b6102f1576040517f08c379a00000000000000000000000000000000000000000000000000000000081526004018080602001828103825260138152602001807f55736572206e6f7420617574686f72697365640000000000000000000000000081525060200191505060405180910390fd5b61030581600061052990919063ffffffff16565b61031981600061038e90919063ffffffff16565b61038b576040517f08c379a00000000000000000000000000000000000000000000000000000000081526004018080602001828103825260178152602001807f55736572206e6f742061646465642061732061646d696e00000000000000000081525060200191505060405180910390fd5b50565b60008073ffffffffffffffffffffffffffffffffffffffff168273ffffffffffffffffffffffffffffffffffffffff161415610415576040517f08c379a00000000000000000000000000000000000000000000000000000000081526004018080602001828103825260228152602001806106266022913960400191505060405180910390fd5b8260000160008373ffffffffffffffffffffffffffffffffffffffff1673ffffffffffffffffffffffffffffffffffffffff16815260200190815260200160002060009054906101000a900460ff16905092915050565b610476828261038e565b6104cb576040517f08c379a00000000000000000000000000000000000000000000000000000000081526004018080602001828103825260218152602001806106056021913960400191505060405180910390fd5b60008260000160008373ffffffffffffffffffffffffffffffffffffffff1673ffffffffffffffffffffffffffffffffffffffff16815260200190815260200160002060006101000a81548160ff0219169083151502179055505050565b610533828261038e565b156105a6576040517f08c379a000000000000000000000000000000000000000000000000000000000815260040180806020018281038252601f8152602001807f526f6c65733a206163636f756e7420616c72656164792068617320726f6c650081525060200191505060405180910390fd5b60018260000160008373ffffffffffffffffffffffffffffffffffffffff1673ffffffffffffffffffffffffffffffffffffffff16815260200190815260200160002060006101000a81548160ff021916908315150217905550505056fe526f6c65733a206163636f756e7420646f6573206e6f74206861766520726f6c65526f6c65733a206163636f756e7420697320746865207a65726f2061646472657373a265627a7a7230582076f671f07f676dc04f30e26d6e8771b932e96d1bf6dc7ee8b6cf6b6d52a6981d64736f6c634300050a0032526f6c65733a206163636f756e7420697320746865207a65726f2061646472657373",
  "source": "pragma solidity 0.5.10;\nimport { Roles } from \"../../_resources/openzeppelin-solidity/access/Roles.sol\";\n\ncontract AdminManaged{\n    using Roles for Roles.Role;\n\n    Roles.Role internal admins_;\n\n    constructor(address _firstAdmin) public {\n        admins_.add(_firstAdmin);\n    }\n\n    modifier onlyAdmin() {\n        require(admins_.has(msg.sender), \"User not authorised\");\n        _;\n    }\n\n    /// @dev    Used to add an admin\n    /// @param _newAdmin        :address The address of the new admin\n    function addAdmin(address _newAdmin) external onlyAdmin {\n        admins_.add(_newAdmin);\n        require(admins_.has(_newAdmin), \"User not added as admin\");\n    }\n\n    /// @dev    Used to remove admins\n    /// @param _oldAdmin        :address The address of the previous admin\n    function removeAdmin(address _oldAdmin) external onlyAdmin {\n        admins_.remove(_oldAdmin);\n        require(!admins_.has(_oldAdmin), \"User not removed as admin\");\n    }\n\n    /// @dev    Checking admin rights\n    /// @param _account         :address in question\n    /// @return bool\n    function isAdmin(address _account) external view returns(bool) {\n        return admins_.has(_account);\n    }\n\n}",
  "sourcePath": "/home/bscholtz/LinumLabs/workspace/molecule-alpha/Blockchain/contracts/_shared/modules/AdminManaged.sol",
  "compiler": {
    "name": "solc",
    "version": "0.5.10+commit.5a6ea5b1.Emscripten.clang",
    "optimizer": false,
    "runs": 200
  },
  "schemaVersion": "2.2.0",
  "updatedAt": "2019-09-02T09:22:46.901Z"
}