{
  "contractName": "AdminManaged",
  "abi": [
    {
      "inputs": [
        {
          "name": "_firstAdmin",
          "type": "address"
        }
      ],
      "payable": false,
      "stateMutability": "nonpayable",
      "type": "constructor"
    },
    {
      "constant": false,
      "inputs": [
        {
          "name": "_newAdmin",
          "type": "address"
        }
      ],
      "name": "addAdmin",
      "outputs": [],
      "payable": false,
      "stateMutability": "nonpayable",
      "type": "function"
    },
    {
      "constant": false,
      "inputs": [
        {
          "name": "_oldAdmin",
          "type": "address"
        }
      ],
      "name": "removeAdmin",
      "outputs": [],
      "payable": false,
      "stateMutability": "nonpayable",
      "type": "function"
    },
    {
      "constant": true,
      "inputs": [
        {
          "name": "_account",
          "type": "address"
        }
      ],
      "name": "isAdmin",
      "outputs": [
        {
          "name": "",
          "type": "bool"
        }
      ],
      "payable": false,
      "stateMutability": "view",
      "type": "function"
    }
  ],
  "bytecode": "0x608060405234801561001057600080fd5b506040516105ee3803806105ee8339818101604052602081101561003357600080fd5b505161004b600082610051602090811b61034e17901c565b50610176565b61006482826001600160e01b036100f516565b156100d057604080517f08c379a000000000000000000000000000000000000000000000000000000000815260206004820152601f60248201527f526f6c65733a206163636f756e7420616c72656164792068617320726f6c6500604482015290519081900360640190fd5b6001600160a01b0316600090815260209190915260409020805460ff19166001179055565b60006001600160a01b038216610156576040517f08c379a00000000000000000000000000000000000000000000000000000000081526004018080602001828103825260228152602001806105cc6022913960400191505060405180910390fd5b506001600160a01b03166000908152602091909152604090205460ff1690565b610447806101856000396000f3fe608060405234801561001057600080fd5b50600436106100415760003560e01c80631785f53c1461004657806324d7806c1461006e57806370480275146100a8575b600080fd5b61006c6004803603602081101561005c57600080fd5b50356001600160a01b03166100ce565b005b6100946004803603602081101561008457600080fd5b50356001600160a01b031661019d565b604080519115158252519081900360200190f35b61006c600480360360208110156100be57600080fd5b50356001600160a01b03166101b5565b6100df60003363ffffffff61028016565b610126576040805162461bcd60e51b8152602060048201526013602482015272155cd95c881b9bdd08185d5d1a1bdc9a5cd959606a1b604482015290519081900360640190fd5b61013760008263ffffffff6102e716565b61014860008263ffffffff61028016565b1561019a576040805162461bcd60e51b815260206004820152601960248201527f55736572206e6f742072656d6f7665642061732061646d696e00000000000000604482015290519081900360640190fd5b50565b60006101af818363ffffffff61028016565b92915050565b6101c660003363ffffffff61028016565b61020d576040805162461bcd60e51b8152602060048201526013602482015272155cd95c881b9bdd08185d5d1a1bdc9a5cd959606a1b604482015290519081900360640190fd5b61021e60008263ffffffff61034e16565b61022f60008263ffffffff61028016565b61019a576040805162461bcd60e51b815260206004820152601760248201527f55736572206e6f742061646465642061732061646d696e000000000000000000604482015290519081900360640190fd5b60006001600160a01b0382166102c75760405162461bcd60e51b81526004018080602001828103825260228152602001806103f16022913960400191505060405180910390fd5b506001600160a01b03166000908152602091909152604090205460ff1690565b6102f18282610280565b61032c5760405162461bcd60e51b81526004018080602001828103825260218152602001806103d06021913960400191505060405180910390fd5b6001600160a01b0316600090815260209190915260409020805460ff19169055565b6103588282610280565b156103aa576040805162461bcd60e51b815260206004820152601f60248201527f526f6c65733a206163636f756e7420616c72656164792068617320726f6c6500604482015290519081900360640190fd5b6001600160a01b0316600090815260209190915260409020805460ff1916600117905556fe526f6c65733a206163636f756e7420646f6573206e6f74206861766520726f6c65526f6c65733a206163636f756e7420697320746865207a65726f2061646472657373a265627a7a723058204f89e43657ed3d7459591ff7c181638490689833d501f75bad8d335f0687d3af64736f6c634300050a0032526f6c65733a206163636f756e7420697320746865207a65726f2061646472657373",
  "source": "pragma solidity 0.5.10;\nimport { Roles } from \"../../_resources/openzeppelin-solidity/access/Roles.sol\";\n\ncontract AdminManaged{\n    using Roles for Roles.Role;\n\n    Roles.Role internal admins_;\n\n    constructor(address _firstAdmin) public {\n        admins_.add(_firstAdmin);\n    }\n\n    modifier onlyAdmin() {\n        require(admins_.has(msg.sender), \"User not authorised\");\n        _;\n    }\n\n    /// @dev    Used to add an admin\n    /// @param _newAdmin        :address The address of the new admin\n    function addAdmin(address _newAdmin) external onlyAdmin {\n        admins_.add(_newAdmin);\n        require(admins_.has(_newAdmin), \"User not added as admin\");\n    }\n\n    /// @dev    Used to remove admins\n    /// @param _oldAdmin        :address The address of the previous admin\n    function removeAdmin(address _oldAdmin) external onlyAdmin {\n        admins_.remove(_oldAdmin);\n        require(!admins_.has(_oldAdmin), \"User not removed as admin\");\n    }\n\n    /// @dev    Checking admin rights\n    /// @param _account         :address in question\n    /// @return bool\n    function isAdmin(address _account) external view returns(bool) {\n        return admins_.has(_account);\n    }\n\n}",
  "sourcePath": "/home/bscholtz/LinumLabs/workspace/molecule-alpha_feature-8/Blockchain/contracts/_shared/modules/AdminManaged.sol",
  "compiler": {
    "name": "solc",
    "version": "0.5.10+commit.5a6ea5b1.Emscripten.clang",
    "optimizer": true,
    "runs": 500
  },
  "schemaVersion": "2.1.7",
  "updatedAt": "2019-08-12T11:56:49.003Z"
}