{
  "contractName": "CurveRegistry",
  "abi": [
    {
      "constant": false,
      "inputs": [
        {
          "name": "_oldAdmin",
          "type": "address"
        }
      ],
      "name": "removeAdmin",
      "outputs": [],
      "payable": false,
      "stateMutability": "nonpayable",
      "type": "function"
    },
    {
      "constant": true,
      "inputs": [
        {
          "name": "_account",
          "type": "address"
        }
      ],
      "name": "isAdmin",
      "outputs": [
        {
          "name": "",
          "type": "bool"
        }
      ],
      "payable": false,
      "stateMutability": "view",
      "type": "function"
    },
    {
      "constant": false,
      "inputs": [
        {
          "name": "_newAdmin",
          "type": "address"
        }
      ],
      "name": "addAdmin",
      "outputs": [],
      "payable": false,
      "stateMutability": "nonpayable",
      "type": "function"
    },
    {
      "inputs": [],
      "payable": false,
      "stateMutability": "nonpayable",
      "type": "constructor"
    },
    {
      "anonymous": false,
      "inputs": [
        {
          "indexed": false,
          "name": "index",
          "type": "uint256"
        },
        {
          "indexed": true,
          "name": "libraryAddress",
          "type": "address"
        },
        {
          "indexed": false,
          "name": "curveFunction",
          "type": "string"
        }
      ],
      "name": "CurveRegisterd",
      "type": "event"
    },
    {
      "anonymous": false,
      "inputs": [
        {
          "indexed": false,
          "name": "index",
          "type": "uint256"
        },
        {
          "indexed": true,
          "name": "libraryAddress",
          "type": "address"
        }
      ],
      "name": "CurveActivated",
      "type": "event"
    },
    {
      "anonymous": false,
      "inputs": [
        {
          "indexed": false,
          "name": "index",
          "type": "uint256"
        },
        {
          "indexed": true,
          "name": "libraryAddress",
          "type": "address"
        }
      ],
      "name": "CurveDeactivated",
      "type": "event"
    },
    {
      "constant": false,
      "inputs": [
        {
          "name": "_libraryAddress",
          "type": "address"
        },
        {
          "name": "_curveFunction",
          "type": "string"
        }
      ],
      "name": "registerCurve",
      "outputs": [
        {
          "name": "",
          "type": "uint256"
        }
      ],
      "payable": false,
      "stateMutability": "nonpayable",
      "type": "function"
    },
    {
      "constant": false,
      "inputs": [
        {
          "name": "_index",
          "type": "uint256"
        }
      ],
      "name": "reactivateCurve",
      "outputs": [],
      "payable": false,
      "stateMutability": "nonpayable",
      "type": "function"
    },
    {
      "constant": false,
      "inputs": [
        {
          "name": "_index",
          "type": "uint256"
        }
      ],
      "name": "deactivateCurve",
      "outputs": [],
      "payable": false,
      "stateMutability": "nonpayable",
      "type": "function"
    },
    {
      "constant": true,
      "inputs": [
        {
          "name": "_index",
          "type": "uint256"
        }
      ],
      "name": "getCurveAddress",
      "outputs": [
        {
          "name": "",
          "type": "address"
        }
      ],
      "payable": false,
      "stateMutability": "view",
      "type": "function"
    },
    {
      "constant": true,
      "inputs": [
        {
          "name": "_index",
          "type": "uint256"
        }
      ],
      "name": "getCurveData",
      "outputs": [
        {
          "name": "",
          "type": "address"
        },
        {
          "name": "",
          "type": "string"
        },
        {
          "name": "",
          "type": "bool"
        }
      ],
      "payable": false,
      "stateMutability": "view",
      "type": "function"
    },
    {
      "constant": true,
      "inputs": [],
      "name": "getIndex",
      "outputs": [
        {
          "name": "",
          "type": "uint256"
        }
      ],
      "payable": false,
      "stateMutability": "view",
      "type": "function"
    },
    {
      "constant": true,
      "inputs": [],
      "name": "publishedBlocknumber",
      "outputs": [
        {
          "name": "",
          "type": "uint256"
        }
      ],
      "payable": false,
      "stateMutability": "view",
      "type": "function"
    }
  ],
  "bytecode": "0x6080604052600060015534801561001557600080fd5b503361002f81600061003960201b610a9f1790919060201c565b504360025561015e565b61004c82826001600160e01b036100dd16565b156100b857604080517f08c379a000000000000000000000000000000000000000000000000000000000815260206004820152601f60248201527f526f6c65733a206163636f756e7420616c72656164792068617320726f6c6500604482015290519081900360640190fd5b6001600160a01b0316600090815260209190915260409020805460ff19166001179055565b60006001600160a01b03821661013e576040517f08c379a0000000000000000000000000000000000000000000000000000000008152600401808060200182810382526022815260200180610d9d6022913960400191505060405180910390fd5b506001600160a01b03166000908152602091909152604090205460ff1690565b610c308061016d6000396000f3fe608060405234801561001057600080fd5b506004361061009e5760003560e01c80638c402aed116100665780638c402aed146101f4578063a6b514e814610211578063c6c4d0041461024a578063df6b4bb7146102ca578063fee47856146102d25761009e565b80631785f53c146100a357806324d7806c146100cb5780636256e8bf1461010557806370480275146101b457806381045ead146101da575b600080fd5b6100c9600480360360208110156100b957600080fd5b50356001600160a01b03166102ef565b005b6100f1600480360360208110156100e157600080fd5b50356001600160a01b03166103be565b604080519115158252519081900360200190f35b6101226004803603602081101561011b57600080fd5b50356103d6565b604080516001600160a01b038516815282151591810191909152606060208083018281528551928401929092528451608084019186019080838360005b8381101561017757818101518382015260200161015f565b50505050905090810190601f1680156101a45780820380516001836020036101000a031916815260200191505b5094505050505060405180910390f35b6100c9600480360360208110156101ca57600080fd5b50356001600160a01b03166104a0565b6101e261056b565b60408051918252519081900360200190f35b6100c96004803603602081101561020a57600080fd5b5035610572565b61022e6004803603602081101561022757600080fd5b50356106f2565b604080516001600160a01b039092168252519081900360200190f35b6101e26004803603604081101561026057600080fd5b6001600160a01b03823516919081019060408101602082013564010000000081111561028b57600080fd5b82018360208201111561029d57600080fd5b803590602001918460018302840111640100000000831117156102bf57600080fd5b50909250905061070d565b6101e261084a565b6100c9600480360360208110156102e857600080fd5b5035610850565b61030060003363ffffffff6109d116565b610347576040805162461bcd60e51b8152602060048201526013602482015272155cd95c881b9bdd08185d5d1a1bdc9a5cd959606a1b604482015290519081900360640190fd5b61035860008263ffffffff610a3816565b61036960008263ffffffff6109d116565b156103bb576040805162461bcd60e51b815260206004820152601960248201527f55736572206e6f742072656d6f7665642061732061646d696e00000000000000604482015290519081900360640190fd5b50565b60006103d0818363ffffffff6109d116565b92915050565b600081815260036020908152604080832080546002808301546001938401805486516101009682161596909602600019011692909204601f810187900487028501870190955284845260609587956001600160a01b0390941694929360ff9092169291849183018282801561048c5780601f106104615761010080835404028352916020019161048c565b820191906000526020600020905b81548152906001019060200180831161046f57829003601f168201915b505050505091509250925092509193909250565b6104b160003363ffffffff6109d116565b6104f8576040805162461bcd60e51b8152602060048201526013602482015272155cd95c881b9bdd08185d5d1a1bdc9a5cd959606a1b604482015290519081900360640190fd5b61050960008263ffffffff610a9f16565b61051a60008263ffffffff6109d116565b6103bb576040805162461bcd60e51b815260206004820152601760248201527f55736572206e6f742061646465642061732061646d696e000000000000000000604482015290519081900360640190fd5b6001545b90565b61058360003363ffffffff6109d116565b6105ca576040805162461bcd60e51b8152602060048201526013602482015272155cd95c881b9bdd08185d5d1a1bdc9a5cd959606a1b604482015290519081900360640190fd5b60008181526003602052604090206002015460ff1615610631576040805162461bcd60e51b815260206004820152601760248201527f437572766520616c726561647920616374697661746564000000000000000000604482015290519081900360640190fd5b6000818152600360205260409020546001600160a01b0316610691576040805162461bcd60e51b815260206004820152601460248201527310dd5c9d99481b9bdd081c9959da5cdd195c995960621b604482015290519081900360640190fd5b60008181526003602090815260409182902060028101805460ff1916600117905554825184815292516001600160a01b03909116927f61cec364a0617676b2eeea0c440eca030e1e8192bda43a0ca15a9e21a3f29df192908290030190a250565b6000908152600360205260409020546001600160a01b031690565b600061071f813363ffffffff6109d116565b610766576040805162461bcd60e51b8152602060048201526013602482015272155cd95c881b9bdd08185d5d1a1bdc9a5cd959606a1b604482015290519081900360640190fd5b6001805480820182556000818152600360205260409020805473ffffffffffffffffffffffffffffffffffffffff19166001600160a01b03881617815590916107b191018585610b20565b50600081815260036020908152604091829020600201805460ff1916600117905581518381529081018281529181018590526001600160a01b038716917f7e1a7df9d439e7df17e62d8e973727175eca192561379a4486aeaa05f7eb512e9184918891889160608201848480828437600083820152604051601f909101601f1916909201829003965090945050505050a2949350505050565b60025490565b61086160003363ffffffff6109d116565b6108a8576040805162461bcd60e51b8152602060048201526013602482015272155cd95c881b9bdd08185d5d1a1bdc9a5cd959606a1b604482015290519081900360640190fd5b60008181526003602052604090206002015460ff161515600114610913576040805162461bcd60e51b815260206004820152601960248201527f437572766520616c726561647920646561637469766174656400000000000000604482015290519081900360640190fd5b6000818152600360205260409020546001600160a01b0316610973576040805162461bcd60e51b815260206004820152601460248201527310dd5c9d99481b9bdd081c9959da5cdd195c995960621b604482015290519081900360640190fd5b60008181526003602090815260409182902060028101805460ff1916905554825184815292516001600160a01b03909116927fce900d370fe63ec401a98d6f08ac2020f04d2b0dcb5fa1ec829e313dfb45a72b92908290030190a250565b60006001600160a01b038216610a185760405162461bcd60e51b8152600401808060200182810382526022815260200180610bda6022913960400191505060405180910390fd5b506001600160a01b03166000908152602091909152604090205460ff1690565b610a4282826109d1565b610a7d5760405162461bcd60e51b8152600401808060200182810382526021815260200180610bb96021913960400191505060405180910390fd5b6001600160a01b0316600090815260209190915260409020805460ff19169055565b610aa982826109d1565b15610afb576040805162461bcd60e51b815260206004820152601f60248201527f526f6c65733a206163636f756e7420616c72656164792068617320726f6c6500604482015290519081900360640190fd5b6001600160a01b0316600090815260209190915260409020805460ff19166001179055565b828054600181600116156101000203166002900490600052602060002090601f016020900481019282601f10610b615782800160ff19823516178555610b8e565b82800160010185558215610b8e579182015b82811115610b8e578235825591602001919060010190610b73565b50610b9a929150610b9e565b5090565b61056f91905b80821115610b9a5760008155600101610ba456fe526f6c65733a206163636f756e7420646f6573206e6f74206861766520726f6c65526f6c65733a206163636f756e7420697320746865207a65726f2061646472657373a265627a7a7230582098f0c97137b5b194410ceb8ca25d0139c0bd605d0808b59469e4e7077331e89d64736f6c634300050a0032526f6c65733a206163636f756e7420697320746865207a65726f2061646472657373",
  "source": "pragma solidity 0.5.10;\n\nimport { AdminManaged } from \"../_shared/modules/AdminManaged.sol\";\n\ncontract CurveRegistry is AdminManaged {\n    uint256 internal numberOfCurves_ = 0;\n    uint256 internal publishedBlocknumber_;\n\n    mapping(uint256 => CurveOption) internal curveContracts_;\n\n    struct CurveOption{\n        address libraryAddress;\n        string curveFunction;\n        bool active;\n    }\n\n    event CurveRegisterd(uint256 index, address indexed libraryAddress, string curveFunction);\n    event CurveActivated(uint256 index, address indexed libraryAddress);\n    event CurveDeactivated(uint256 index, address indexed libraryAddress);\n\n    constructor() public AdminManaged(msg.sender){\n        publishedBlocknumber_ = block.number;\n    }\n\n    /// @dev                            Logs the market into the registery\n    /// @param _libraryAddress          :address Address of the library\n    /// @param _curveFunction           :address Curve title/statement\n    /// @return uint256                 Returns the index of market for looking up\n    /// @author Ryan\n    function registerCurve(\n        address _libraryAddress,\n        string calldata _curveFunction)\n        external\n        onlyAdmin()\n        returns(uint256)\n    {\n        uint256 index = numberOfCurves_;\n        numberOfCurves_ = numberOfCurves_ + 1;\n\n        curveContracts_[index].libraryAddress = _libraryAddress;\n        curveContracts_[index].curveFunction = _curveFunction;\n        curveContracts_[index].active = true;\n\n        emit CurveRegisterd(\n            index,\n            _libraryAddress,\n            _curveFunction\n        );\n\n        return index;\n    }\n\n    /**\n      * @dev            Sets the curve to active\n      * @param _index   : uint256 - The index of the curve\n      */\n    function reactivateCurve(uint256 _index) external onlyAdmin {\n        require(curveContracts_[_index].active == false, \"Curve already activated\");\n        require(curveContracts_[_index].libraryAddress != address(0), \"Curve not registered\");\n        curveContracts_[_index].active = true;\n        \n        emit CurveActivated(_index, curveContracts_[_index].libraryAddress);\n    }\n\n    /**\n      * @dev            Sets the curve to inactive\n      * @notice         This function is for the case of an incorect\n      *                 curve module, or vunrability\n      * @param _index   : uint256 - The index of the curve\n      */\n    function deactivateCurve(uint256 _index) external onlyAdmin {\n        require(curveContracts_[_index].active == true, \"Curve already deactivated\");\n        require(curveContracts_[_index].libraryAddress != address(0), \"Curve not registered\");\n        curveContracts_[_index].active = false;\n\n        emit CurveDeactivated(_index, curveContracts_[_index].libraryAddress);\n    }\n\n    /// Fetching curve data\n    /// @param _index                   :uint256 Index of the curve library\n    /// @dev                            Fetches all data and contract addresses of deployed curves by index, kept as interface for later intergration\n    /// @return curveAddress            Returns a curve address\n    /// @author Ryan\n    function getCurveAddress(uint256 _index)\n        external\n        view\n        returns(address)\n    {\n        return curveContracts_[_index].libraryAddress;\n    }\n\n    /// @param _index                   :uint256 Index of the curve library\n    /// @dev                            Fetches all data and contract addresses of deployed curves by index, kept as interface for later intergration\n    /// @return curve                   Returns curve data\n    /// @author Ryan\n    function getCurveData(uint256 _index)\n        external\n        view\n        returns(\n            address,\n            string memory,\n            bool\n        )\n    {\n        return (\n            curveContracts_[_index].libraryAddress,\n            curveContracts_[_index].curveFunction,\n            curveContracts_[_index].active\n        );\n    }\n\n    /// @dev                            Fetchs the current number of curves infering maximum callable index\n    /// @return Index                   Returns the index of markets for looking up\n    /// @author Ryan\n    function getIndex()\n        external\n        view\n        returns(uint256)\n    {\n        return numberOfCurves_;\n    }\n\n    /// @dev                            In order to look up logs efficently, the published block is available\n    /// @return uint256                 The block when the contract was published\n    /// @author Ryan\n    function publishedBlocknumber() external view returns(uint256) {\n        return publishedBlocknumber_;\n    }\n}",
  "sourcePath": "/home/bscholtz/LinumLabs/workspace/molecule-alpha_feature-8/Blockchain/contracts/curveRegistry/CurveRegistry.sol",
  "compiler": {
    "name": "solc",
    "version": "0.5.10+commit.5a6ea5b1.Emscripten.clang",
    "optimizer": true,
    "runs": 500
  },
  "schemaVersion": "2.1.7",
  "updatedAt": "2019-08-12T11:56:49.008Z"
}