{
  "contractName": "CurveRegistry",
  "abi": [
    {
      "constant": false,
      "inputs": [],
      "name": "renounceWhitelistAdmin",
      "outputs": [],
      "payable": false,
      "stateMutability": "nonpayable",
      "type": "function"
    },
    {
      "constant": false,
      "inputs": [
        {
          "name": "account",
          "type": "address"
        }
      ],
      "name": "addWhitelistAdmin",
      "outputs": [],
      "payable": false,
      "stateMutability": "nonpayable",
      "type": "function"
    },
    {
      "constant": true,
      "inputs": [
        {
          "name": "account",
          "type": "address"
        }
      ],
      "name": "isWhitelistAdmin",
      "outputs": [
        {
          "name": "",
          "type": "bool"
        }
      ],
      "payable": false,
      "stateMutability": "view",
      "type": "function"
    },
    {
      "inputs": [],
      "payable": false,
      "stateMutability": "nonpayable",
      "type": "constructor"
    },
    {
      "anonymous": false,
      "inputs": [
        {
          "indexed": false,
          "name": "index",
          "type": "uint256"
        },
        {
          "indexed": true,
          "name": "libraryAddress",
          "type": "address"
        },
        {
          "indexed": false,
          "name": "curveFunction",
          "type": "string"
        }
      ],
      "name": "CurveRegisterd",
      "type": "event"
    },
    {
      "anonymous": false,
      "inputs": [
        {
          "indexed": false,
          "name": "index",
          "type": "uint256"
        },
        {
          "indexed": true,
          "name": "libraryAddress",
          "type": "address"
        }
      ],
      "name": "CurveActivated",
      "type": "event"
    },
    {
      "anonymous": false,
      "inputs": [
        {
          "indexed": false,
          "name": "index",
          "type": "uint256"
        },
        {
          "indexed": true,
          "name": "libraryAddress",
          "type": "address"
        }
      ],
      "name": "CurveDeactivated",
      "type": "event"
    },
    {
      "anonymous": false,
      "inputs": [
        {
          "indexed": true,
          "name": "account",
          "type": "address"
        }
      ],
      "name": "WhitelistAdminAdded",
      "type": "event"
    },
    {
      "anonymous": false,
      "inputs": [
        {
          "indexed": true,
          "name": "account",
          "type": "address"
        }
      ],
      "name": "WhitelistAdminRemoved",
      "type": "event"
    },
    {
      "constant": false,
      "inputs": [
        {
          "name": "_libraryAddress",
          "type": "address"
        },
        {
          "name": "_curveFunction",
          "type": "string"
        }
      ],
      "name": "registerCurve",
      "outputs": [
        {
          "name": "",
          "type": "uint256"
        }
      ],
      "payable": false,
      "stateMutability": "nonpayable",
      "type": "function"
    },
    {
      "constant": false,
      "inputs": [
        {
          "name": "_index",
          "type": "uint256"
        }
      ],
      "name": "reactivateCurve",
      "outputs": [],
      "payable": false,
      "stateMutability": "nonpayable",
      "type": "function"
    },
    {
      "constant": false,
      "inputs": [
        {
          "name": "_index",
          "type": "uint256"
        }
      ],
      "name": "deactivateCurve",
      "outputs": [],
      "payable": false,
      "stateMutability": "nonpayable",
      "type": "function"
    },
    {
      "constant": true,
      "inputs": [
        {
          "name": "_index",
          "type": "uint256"
        }
      ],
      "name": "getCurveAddress",
      "outputs": [
        {
          "name": "",
          "type": "address"
        }
      ],
      "payable": false,
      "stateMutability": "view",
      "type": "function"
    },
    {
      "constant": true,
      "inputs": [
        {
          "name": "_index",
          "type": "uint256"
        }
      ],
      "name": "getCurveData",
      "outputs": [
        {
          "name": "",
          "type": "address"
        },
        {
          "name": "",
          "type": "string"
        },
        {
          "name": "",
          "type": "bool"
        }
      ],
      "payable": false,
      "stateMutability": "view",
      "type": "function"
    },
    {
      "constant": true,
      "inputs": [],
      "name": "getIndex",
      "outputs": [
        {
          "name": "",
          "type": "uint256"
        }
      ],
      "payable": false,
      "stateMutability": "view",
      "type": "function"
    },
    {
      "constant": true,
      "inputs": [],
      "name": "publishedBlocknumber",
      "outputs": [
        {
          "name": "",
          "type": "uint256"
        }
      ],
      "payable": false,
      "stateMutability": "view",
      "type": "function"
    }
  ],
  "bytecode": "0x6080604052600060015534801561001557600080fd5b506100253361003160201b60201c565b4360028190555061024e565b61004981600061008f60201b610ef71790919060201c565b8073ffffffffffffffffffffffffffffffffffffffff167f22380c05984257a1cb900161c713dd71d39e74820f1aea43bd3f1bdd2096129960405160405180910390a250565b61009f828261017060201b60201c565b15610112576040517f08c379a000000000000000000000000000000000000000000000000000000000815260040180806020018281038252601f8152602001807f526f6c65733a206163636f756e7420616c72656164792068617320726f6c650081525060200191505060405180910390fd5b60018260000160008373ffffffffffffffffffffffffffffffffffffffff1673ffffffffffffffffffffffffffffffffffffffff16815260200190815260200160002060006101000a81548160ff0219169083151502179055505050565b60008073ffffffffffffffffffffffffffffffffffffffff168273ffffffffffffffffffffffffffffffffffffffff1614156101f7576040517f08c379a000000000000000000000000000000000000000000000000000000000815260040180806020018281038252602281526020018061138c6022913960400191505060405180910390fd5b8260000160008373ffffffffffffffffffffffffffffffffffffffff1673ffffffffffffffffffffffffffffffffffffffff16815260200190815260200160002060009054906101000a900460ff16905092915050565b61112f8061025d6000396000f3fe608060405234801561001057600080fd5b506004361061009e5760003560e01c8063a6b514e811610066578063a6b514e814610222578063bb5f747b14610290578063c6c4d004146102ec578063df6b4bb714610399578063fee47856146103b75761009e565b80634c5a628c146100a35780636256e8bf146100ad5780637362d9c81461019257806381045ead146101d65780638c402aed146101f4575b600080fd5b6100ab6103e5565b005b6100d9600480360360208110156100c357600080fd5b81019080803590602001909291905050506103f0565b604051808473ffffffffffffffffffffffffffffffffffffffff1673ffffffffffffffffffffffffffffffffffffffff1681526020018060200183151515158152602001828103825284818151815260200191508051906020019080838360005b8381101561015557808201518184015260208101905061013a565b50505050905090810190601f1680156101825780820380516001836020036101000a031916815260200191505b5094505050505060405180910390f35b6101d4600480360360208110156101a857600080fd5b81019080803573ffffffffffffffffffffffffffffffffffffffff169060200190929190505050610510565b005b6101de61057a565b6040518082815260200191505060405180910390f35b6102206004803603602081101561020a57600080fd5b8101908080359060200190929190505050610584565b005b61024e6004803603602081101561023857600080fd5b810190808035906020019092919050505061080e565b604051808273ffffffffffffffffffffffffffffffffffffffff1673ffffffffffffffffffffffffffffffffffffffff16815260200191505060405180910390f35b6102d2600480360360208110156102a657600080fd5b81019080803573ffffffffffffffffffffffffffffffffffffffff16906020019092919050505061084e565b604051808215151515815260200191505060405180910390f35b6103836004803603604081101561030257600080fd5b81019080803573ffffffffffffffffffffffffffffffffffffffff1690602001909291908035906020019064010000000081111561033f57600080fd5b82018360208201111561035157600080fd5b8035906020019184600183028401116401000000008311171561037357600080fd5b909192939192939050505061086b565b6040518082815260200191505060405180910390f35b6103a1610a14565b6040518082815260200191505060405180910390f35b6103e3600480360360208110156103cd57600080fd5b8101908080359060200190929190505050610a1e565b005b6103ee33610ca8565b565b6000606060006003600085815260200190815260200160002060000160009054906101000a900473ffffffffffffffffffffffffffffffffffffffff16600360008681526020019081526020016000206001016003600087815260200190815260200160002060020160009054906101000a900460ff16818054600181600116156101000203166002900480601f0160208091040260200160405190810160405280929190818152602001828054600181600116156101000203166002900480156104fc5780601f106104d1576101008083540402835291602001916104fc565b820191906000526020600020905b8154815290600101906020018083116104df57829003601f168201915b505050505091509250925092509193909250565b6105193361084e565b61056e576040517f08c379a00000000000000000000000000000000000000000000000000000000081526004018080602001828103825260408152602001806110bb6040913960400191505060405180910390fd5b61057781610d02565b50565b6000600154905090565b61058d3361084e565b6105e2576040517f08c379a00000000000000000000000000000000000000000000000000000000081526004018080602001828103825260408152602001806110bb6040913960400191505060405180910390fd5b600015156003600083815260200190815260200160002060020160009054906101000a900460ff1615151461067f576040517f08c379a00000000000000000000000000000000000000000000000000000000081526004018080602001828103825260178152602001807f437572766520616c72656164792061637469766174656400000000000000000081525060200191505060405180910390fd5b600073ffffffffffffffffffffffffffffffffffffffff166003600083815260200190815260200160002060000160009054906101000a900473ffffffffffffffffffffffffffffffffffffffff1673ffffffffffffffffffffffffffffffffffffffff161415610758576040517f08c379a00000000000000000000000000000000000000000000000000000000081526004018080602001828103825260148152602001807f4375727665206e6f74207265676973746572656400000000000000000000000081525060200191505060405180910390fd5b60016003600083815260200190815260200160002060020160006101000a81548160ff0219169083151502179055506003600082815260200190815260200160002060000160009054906101000a900473ffffffffffffffffffffffffffffffffffffffff1673ffffffffffffffffffffffffffffffffffffffff167f61cec364a0617676b2eeea0c440eca030e1e8192bda43a0ca15a9e21a3f29df1826040518082815260200191505060405180910390a250565b60006003600083815260200190815260200160002060000160009054906101000a900473ffffffffffffffffffffffffffffffffffffffff169050919050565b6000610864826000610d5c90919063ffffffff16565b9050919050565b60006108763361084e565b6108cb576040517f08c379a00000000000000000000000000000000000000000000000000000000081526004018080602001828103825260408152602001806110bb6040913960400191505060405180910390fd5b600060015490506001805401600181905550846003600083815260200190815260200160002060000160006101000a81548173ffffffffffffffffffffffffffffffffffffffff021916908373ffffffffffffffffffffffffffffffffffffffff1602179055508383600360008481526020019081526020016000206001019190610957929190610fd2565b5060016003600083815260200190815260200160002060020160006101000a81548160ff0219169083151502179055508473ffffffffffffffffffffffffffffffffffffffff167f7e1a7df9d439e7df17e62d8e973727175eca192561379a4486aeaa05f7eb512e82868660405180848152602001806020018281038252848482818152602001925080828437600081840152601f19601f82011690508083019250505094505050505060405180910390a2809150509392505050565b6000600254905090565b610a273361084e565b610a7c576040517f08c379a00000000000000000000000000000000000000000000000000000000081526004018080602001828103825260408152602001806110bb6040913960400191505060405180910390fd5b600115156003600083815260200190815260200160002060020160009054906101000a900460ff16151514610b19576040517f08c379a00000000000000000000000000000000000000000000000000000000081526004018080602001828103825260198152602001807f437572766520616c72656164792064656163746976617465640000000000000081525060200191505060405180910390fd5b600073ffffffffffffffffffffffffffffffffffffffff166003600083815260200190815260200160002060000160009054906101000a900473ffffffffffffffffffffffffffffffffffffffff1673ffffffffffffffffffffffffffffffffffffffff161415610bf2576040517f08c379a00000000000000000000000000000000000000000000000000000000081526004018080602001828103825260148152602001807f4375727665206e6f74207265676973746572656400000000000000000000000081525060200191505060405180910390fd5b60006003600083815260200190815260200160002060020160006101000a81548160ff0219169083151502179055506003600082815260200190815260200160002060000160009054906101000a900473ffffffffffffffffffffffffffffffffffffffff1673ffffffffffffffffffffffffffffffffffffffff167fce900d370fe63ec401a98d6f08ac2020f04d2b0dcb5fa1ec829e313dfb45a72b826040518082815260200191505060405180910390a250565b610cbc816000610e3a90919063ffffffff16565b8073ffffffffffffffffffffffffffffffffffffffff167f0a8eb35e5ca14b3d6f28e4abf2f128dbab231a58b56e89beb5d636115001e16560405160405180910390a250565b610d16816000610ef790919063ffffffff16565b8073ffffffffffffffffffffffffffffffffffffffff167f22380c05984257a1cb900161c713dd71d39e74820f1aea43bd3f1bdd2096129960405160405180910390a250565b60008073ffffffffffffffffffffffffffffffffffffffff168273ffffffffffffffffffffffffffffffffffffffff161415610de3576040517f08c379a00000000000000000000000000000000000000000000000000000000081526004018080602001828103825260228152602001806110996022913960400191505060405180910390fd5b8260000160008373ffffffffffffffffffffffffffffffffffffffff1673ffffffffffffffffffffffffffffffffffffffff16815260200190815260200160002060009054906101000a900460ff16905092915050565b610e448282610d5c565b610e99576040517f08c379a00000000000000000000000000000000000000000000000000000000081526004018080602001828103825260218152602001806110786021913960400191505060405180910390fd5b60008260000160008373ffffffffffffffffffffffffffffffffffffffff1673ffffffffffffffffffffffffffffffffffffffff16815260200190815260200160002060006101000a81548160ff0219169083151502179055505050565b610f018282610d5c565b15610f74576040517f08c379a000000000000000000000000000000000000000000000000000000000815260040180806020018281038252601f8152602001807f526f6c65733a206163636f756e7420616c72656164792068617320726f6c650081525060200191505060405180910390fd5b60018260000160008373ffffffffffffffffffffffffffffffffffffffff1673ffffffffffffffffffffffffffffffffffffffff16815260200190815260200160002060006101000a81548160ff0219169083151502179055505050565b828054600181600116156101000203166002900490600052602060002090601f016020900481019282601f1061101357803560ff1916838001178555611041565b82800160010185558215611041579182015b82811115611040578235825591602001919060010190611025565b5b50905061104e9190611052565b5090565b61107491905b80821115611070576000816000905550600101611058565b5090565b9056fe526f6c65733a206163636f756e7420646f6573206e6f74206861766520726f6c65526f6c65733a206163636f756e7420697320746865207a65726f206164647265737357686974656c69737441646d696e526f6c653a2063616c6c657220646f6573206e6f742068617665207468652057686974656c69737441646d696e20726f6c65a265627a7a72305820bb3de0924cf6716c3f8bc89ba52c9f70b63a71dcff665d01fbf5b566376b587d64736f6c634300050a0032526f6c65733a206163636f756e7420697320746865207a65726f2061646472657373",
  "source": "pragma solidity 0.5.10;\n\nimport { WhitelistAdminRole } from \"openzeppelin-solidity/contracts/access/roles/WhitelistAdminRole.sol\";\n\ncontract CurveRegistry is WhitelistAdminRole {\n    uint256 internal numberOfCurves_ = 0;\n    uint256 internal publishedBlocknumber_;\n\n    mapping(uint256 => CurveOption) internal curveContracts_;\n\n    struct CurveOption{\n        address libraryAddress;\n        string curveFunction;\n        bool active;\n    }\n\n    event CurveRegisterd(uint256 index, address indexed libraryAddress, string curveFunction);\n    event CurveActivated(uint256 index, address indexed libraryAddress);\n    event CurveDeactivated(uint256 index, address indexed libraryAddress);\n\n    constructor() public {\n        publishedBlocknumber_ = block.number;\n    }\n\n    /// @dev                            Logs the market into the registery\n    /// @param _libraryAddress          :address Address of the library\n    /// @param _curveFunction           :address Curve title/statement\n    /// @return uint256                 Returns the index of market for looking up\n    /// @author Ryan\n    function registerCurve(\n        address _libraryAddress,\n        string calldata _curveFunction)\n        external\n        onlyWhitelistAdmin()\n        returns(uint256)\n    {\n        uint256 index = numberOfCurves_;\n        numberOfCurves_ = numberOfCurves_ + 1;\n\n        curveContracts_[index].libraryAddress = _libraryAddress;\n        curveContracts_[index].curveFunction = _curveFunction;\n        curveContracts_[index].active = true;\n\n        emit CurveRegisterd(\n            index,\n            _libraryAddress,\n            _curveFunction\n        );\n\n        return index;\n    }\n\n    /**\n      * @dev            Sets the curve to active\n      * @param _index   : uint256 - The index of the curve\n      */\n    function reactivateCurve(uint256 _index) external onlyWhitelistAdmin {\n        require(curveContracts_[_index].active == false, \"Curve already activated\");\n        require(curveContracts_[_index].libraryAddress != address(0), \"Curve not registered\");\n        curveContracts_[_index].active = true;\n        \n        emit CurveActivated(_index, curveContracts_[_index].libraryAddress);\n    }\n\n    /**\n      * @dev            Sets the curve to inactive\n      * @notice         This function is for the case of an incorect\n      *                 curve module, or vunrability\n      * @param _index   : uint256 - The index of the curve\n      */\n    function deactivateCurve(uint256 _index) external onlyWhitelistAdmin {\n        require(curveContracts_[_index].active == true, \"Curve already deactivated\");\n        require(curveContracts_[_index].libraryAddress != address(0), \"Curve not registered\");\n        curveContracts_[_index].active = false;\n\n        emit CurveDeactivated(_index, curveContracts_[_index].libraryAddress);\n    }\n\n    /// Fetching curve data\n    /// @param _index                   :uint256 Index of the curve library\n    /// @dev                            Fetches all data and contract addresses of deployed curves by index, kept as interface for later intergration\n    /// @return curveAddress            Returns a curve address\n    /// @author Ryan\n    function getCurveAddress(uint256 _index)\n        external\n        view\n        returns(address)\n    {\n        return curveContracts_[_index].libraryAddress;\n    }\n\n    /// @param _index                   :uint256 Index of the curve library\n    /// @dev                            Fetches all data and contract addresses of deployed curves by index, kept as interface for later intergration\n    /// @return curve                   Returns curve data\n    /// @author Ryan\n    function getCurveData(uint256 _index)\n        external\n        view\n        returns(\n            address,\n            string memory,\n            bool\n        )\n    {\n        return (\n            curveContracts_[_index].libraryAddress,\n            curveContracts_[_index].curveFunction,\n            curveContracts_[_index].active\n        );\n    }\n\n    /// @dev                            Fetchs the current number of curves infering maximum callable index\n    /// @return Index                   Returns the index of markets for looking up\n    /// @author Ryan\n    function getIndex()\n        external\n        view\n        returns(uint256)\n    {\n        return numberOfCurves_;\n    }\n\n    /// @dev                            In order to look up logs efficently, the published block is available\n    /// @return uint256                 The block when the contract was published\n    /// @author Ryan\n    function publishedBlocknumber() external view returns(uint256) {\n        return publishedBlocknumber_;\n    }\n}",
  "sourcePath": "temp/curveRegistry/CurveRegistry.sol",
  "compiler": {
    "name": "solc",
    "version": "0.5.10+commit.5a6ea5b1.Emscripten.clang",
    "optimizer": false,
    "runs": 200
  },
  "schemaVersion": "2.2.0",
  "updatedAt": "2019-08-28T10:00:02.542Z"
}