{
  "contractName": "CurveFunctions",
  "abi": [
    {
      "constant": true,
      "inputs": [],
      "name": "DECIMALS",
      "outputs": [
        {
          "name": "",
          "type": "uint256"
        }
      ],
      "payable": false,
      "stateMutability": "view",
      "type": "function"
    },
    {
      "constant": true,
      "inputs": [],
      "name": "curveFunction",
      "outputs": [
        {
          "name": "",
          "type": "string"
        }
      ],
      "payable": false,
      "stateMutability": "view",
      "type": "function"
    },
    {
      "constant": true,
      "inputs": [
        {
          "name": "_x",
          "type": "uint256"
        }
      ],
      "name": "curveIntegral",
      "outputs": [
        {
          "name": "",
          "type": "uint256"
        }
      ],
      "payable": false,
      "stateMutability": "pure",
      "type": "function"
    },
    {
      "constant": true,
      "inputs": [
        {
          "name": "_x",
          "type": "uint256"
        }
      ],
      "name": "inverseCurveIntegral",
      "outputs": [
        {
          "name": "",
          "type": "uint256"
        }
      ],
      "payable": false,
      "stateMutability": "pure",
      "type": "function"
    },
    {
      "constant": true,
      "inputs": [
        {
          "name": "_x",
          "type": "uint256"
        }
      ],
      "name": "sqrt",
      "outputs": [
        {
          "name": "",
          "type": "uint256"
        }
      ],
      "payable": false,
      "stateMutability": "pure",
      "type": "function"
    }
  ],
  "bytecode": "0x608060405234801561001057600080fd5b506107c5806100206000396000f3fe608060405234801561001057600080fd5b50600436106100575760003560e01c80632e0f26251461005c5780633fd2300d1461007a578063677342ce146100bc5780639e416bc7146100fe578063d0ef837a14610181575b600080fd5b6100646101c3565b6040518082815260200191505060405180910390f35b6100a66004803603602081101561009057600080fd5b81019080803590602001909291905050506101c8565b6040518082815260200191505060405180910390f35b6100e8600480360360208110156100d257600080fd5b810190808035906020019092919050505061037f565b6040518082815260200191505060405180910390f35b6101066103ee565b6040518080602001828103825283818151815260200191508051906020019080838360005b8381101561014657808201518184015260208101905061012b565b50505050905090810190601f1680156101735780820380516001836020036101000a031916815260200191505b509250505060405180910390f35b6101ad6004803603602081101561019757600080fd5b8101908080359060200190929190505050610427565b6040518082815260200191505060405180910390f35b601281565b600080821015610240576040517f08c379a00000000000000000000000000000000000000000000000000000000081526004018080602001828103825260188152602001807f496e70757420617267756d656e7420746f6f20736d616c6c000000000000000081525060200191505060405180910390fd5b710125dfa371a19e6f7cb54395ca000000000082106102c7576040517f08c379a00000000000000000000000000000000000000000000000000000000081526004018080602001828103825260188152602001807f496e70757420617267756d656e7420746f6f206c61726765000000000000000081525060200191505060405180910390fd5b60006102f26102e060128061054990919063ffffffff16565b600a0a846105d290919063ffffffff16565b905060006006601203600a0a601902905060006001601203600a0a60050290506103756012600a0a610367856103598561034b6012600a0a61033d8b8b6105d290919063ffffffff16565b61065890919063ffffffff16565b6106e790919063ffffffff16565b6105d290919063ffffffff16565b61065890919063ffffffff16565b9350505050919050565b60008082141561039257600090506103e9565b600382116103a357600190506103e9565b6000600260018401816103b257fe5b04905060008390505b808210156103e3578190506002828386816103d257fe5b0401816103db57fe5b0491506103bb565b80925050505b919050565b6040518060400160405280601981526020017f6c696e6561723a2028312f3230303030292a78202b20302e350000000000000081525081565b60008082101561049f576040517f08c379a00000000000000000000000000000000000000000000000000000000081526004018080602001828103825260188152602001807f496e70757420617267756d656e7420746f6f20736d616c6c000000000000000081525060200191505060405180910390fd5b60006024905060006012600a0a84029050600082600a0a60c802905060006104fe6104cc85600a0a61037f565b6104f06104e187600a0a6109c402870161037f565b856105d290919063ffffffff16565b61065890919063ffffffff16565b905061053e6012600a0a8286600a0a7fffffffffffffffffffffffffffffffffffffffffffffffffffffffffffffd8f0020161065890919063ffffffff16565b945050505050919050565b6000828211156105c1576040517f08c379a000000000000000000000000000000000000000000000000000000000815260040180806020018281038252601e8152602001807f536166654d6174683a207375627472616374696f6e206f766572666c6f77000081525060200191505060405180910390fd5b600082840390508091505092915050565b6000808314156105e55760009050610652565b60008284029050828482816105f657fe5b041461064d576040517f08c379a00000000000000000000000000000000000000000000000000000000081526004018080602001828103825260218152602001806107706021913960400191505060405180910390fd5b809150505b92915050565b60008082116106cf576040517f08c379a000000000000000000000000000000000000000000000000000000000815260040180806020018281038252601a8152602001807f536166654d6174683a206469766973696f6e206279207a65726f00000000000081525060200191505060405180910390fd5b60008284816106da57fe5b0490508091505092915050565b600080828401905083811015610765576040517f08c379a000000000000000000000000000000000000000000000000000000000815260040180806020018281038252601b8152602001807f536166654d6174683a206164646974696f6e206f766572666c6f77000000000081525060200191505060405180910390fd5b809150509291505056fe536166654d6174683a206d756c7469706c69636174696f6e206f766572666c6f77a265627a7a723058209672b245e8772b0564ed93e9a290bff84078daf3fa7a9a1060f0fc7f22e315a364736f6c634300050a0032",
  "source": "pragma solidity 0.5.10;\n\nimport { SafeMath } from \"openzeppelin-solidity/contracts/math/SafeMath.sol\";\n\n// @author Ben Scholtz @ Linum Labs\n// @title Bonding curve functions\n\ncontract CurveFunctions {\n  using SafeMath for uint256;\n\n  string constant public curveFunction = \"linear: (1/20000)*x + 0.5\";\n  uint256 constant public DECIMALS = 18;\n\n  /// @dev            Calculates the definite integral of the curve\n  /// @param _x      token value for upper limit of definite integral\n  function curveIntegral(uint256 _x) public pure returns (uint256) {\n    require(_x >= 0, 'Input argument too small');\n    require(_x < 10**41, 'Input argument too large');\n\n    // Calculate equation arguments\n    uint256 x = _x.mul(10**(DECIMALS.sub(18)));\n    uint256 a = 25*10**(DECIMALS - 6);\n    uint256 b = 5*10**(DECIMALS - 1);\n\n    // curve integral: (0.000025*x + 0.5)*x\n    return (a.mul(x).div(10**DECIMALS).add(b)).mul(x).div(10**DECIMALS);\n  }\n\n  /// @dev            Calculates the definite inverse integral of the curve\n  /// @param _x      collateral value for upper limit of definite integral\n  function inverseCurveIntegral(uint256 _x) public pure returns(uint256) {\n    require(_x >= 0, 'Input argument too small');\n\n    // Use 36 decimal places for square root precision\n    uint256 DECIMALS_36 = 36;\n\n    // Calculate equation arguments\n    uint256 x = _x*10**DECIMALS;\n    uint256 prefix = 200*10**DECIMALS_36;\n    uint256 a = prefix.mul(sqrt(x + 2500*10**DECIMALS_36)).div(sqrt(10**DECIMALS_36));\n\n    // inverse curve integral: -10000*x + 200*sqrt(x + 2500)\n    return uint256(-10000*int256(10**DECIMALS_36) + int256(a)).div(10**DECIMALS);\n  }\n\n  function sqrt(uint256 _x) public pure returns (uint256) {\n    if (_x == 0) return 0;\n    else if (_x <= 3) return 1;\n    uint256 z = (_x + 1) / 2;\n    uint256 y = _x;\n    while (z < y)\n    {\n      y = z;\n      z = (_x / z + z) / 2;\n    }\n    return y;\n  }\n}",
  "sourcePath": "/home/bscholtz/LinumLabs/workspace/molecule-alpha/Blockchain/contracts/_curveIntegrals/v1/CurveFunctions.sol",
  "compiler": {
    "name": "solc",
    "version": "0.5.10+commit.5a6ea5b1.Emscripten.clang",
    "optimizer": false,
    "runs": 200
  },
  "schemaVersion": "2.2.0",
  "updatedAt": "2019-09-02T09:22:46.869Z"
}