{
  "contractName": "ERC20Capped",
  "abi": [
    {
      "constant": false,
      "inputs": [
        {
          "name": "spender",
          "type": "address"
        },
        {
          "name": "value",
          "type": "uint256"
        }
      ],
      "name": "approve",
      "outputs": [
        {
          "name": "",
          "type": "bool"
        }
      ],
      "payable": false,
      "stateMutability": "nonpayable",
      "type": "function"
    },
    {
      "constant": true,
      "inputs": [],
      "name": "totalSupply",
      "outputs": [
        {
          "name": "",
          "type": "uint256"
        }
      ],
      "payable": false,
      "stateMutability": "view",
      "type": "function"
    },
    {
      "constant": false,
      "inputs": [
        {
          "name": "sender",
          "type": "address"
        },
        {
          "name": "recipient",
          "type": "address"
        },
        {
          "name": "amount",
          "type": "uint256"
        }
      ],
      "name": "transferFrom",
      "outputs": [
        {
          "name": "",
          "type": "bool"
        }
      ],
      "payable": false,
      "stateMutability": "nonpayable",
      "type": "function"
    },
    {
      "constant": false,
      "inputs": [
        {
          "name": "spender",
          "type": "address"
        },
        {
          "name": "addedValue",
          "type": "uint256"
        }
      ],
      "name": "increaseAllowance",
      "outputs": [
        {
          "name": "",
          "type": "bool"
        }
      ],
      "payable": false,
      "stateMutability": "nonpayable",
      "type": "function"
    },
    {
      "constant": false,
      "inputs": [
        {
          "name": "account",
          "type": "address"
        },
        {
          "name": "amount",
          "type": "uint256"
        }
      ],
      "name": "mint",
      "outputs": [
        {
          "name": "",
          "type": "bool"
        }
      ],
      "payable": false,
      "stateMutability": "nonpayable",
      "type": "function"
    },
    {
      "constant": true,
      "inputs": [
        {
          "name": "account",
          "type": "address"
        }
      ],
      "name": "balanceOf",
      "outputs": [
        {
          "name": "",
          "type": "uint256"
        }
      ],
      "payable": false,
      "stateMutability": "view",
      "type": "function"
    },
    {
      "constant": false,
      "inputs": [
        {
          "name": "account",
          "type": "address"
        }
      ],
      "name": "addMinter",
      "outputs": [],
      "payable": false,
      "stateMutability": "nonpayable",
      "type": "function"
    },
    {
      "constant": false,
      "inputs": [],
      "name": "renounceMinter",
      "outputs": [],
      "payable": false,
      "stateMutability": "nonpayable",
      "type": "function"
    },
    {
      "constant": false,
      "inputs": [
        {
          "name": "spender",
          "type": "address"
        },
        {
          "name": "subtractedValue",
          "type": "uint256"
        }
      ],
      "name": "decreaseAllowance",
      "outputs": [
        {
          "name": "",
          "type": "bool"
        }
      ],
      "payable": false,
      "stateMutability": "nonpayable",
      "type": "function"
    },
    {
      "constant": false,
      "inputs": [
        {
          "name": "recipient",
          "type": "address"
        },
        {
          "name": "amount",
          "type": "uint256"
        }
      ],
      "name": "transfer",
      "outputs": [
        {
          "name": "",
          "type": "bool"
        }
      ],
      "payable": false,
      "stateMutability": "nonpayable",
      "type": "function"
    },
    {
      "constant": true,
      "inputs": [
        {
          "name": "account",
          "type": "address"
        }
      ],
      "name": "isMinter",
      "outputs": [
        {
          "name": "",
          "type": "bool"
        }
      ],
      "payable": false,
      "stateMutability": "view",
      "type": "function"
    },
    {
      "constant": true,
      "inputs": [
        {
          "name": "owner",
          "type": "address"
        },
        {
          "name": "spender",
          "type": "address"
        }
      ],
      "name": "allowance",
      "outputs": [
        {
          "name": "",
          "type": "uint256"
        }
      ],
      "payable": false,
      "stateMutability": "view",
      "type": "function"
    },
    {
      "inputs": [
        {
          "name": "cap",
          "type": "uint256"
        }
      ],
      "payable": false,
      "stateMutability": "nonpayable",
      "type": "constructor"
    },
    {
      "anonymous": false,
      "inputs": [
        {
          "indexed": true,
          "name": "account",
          "type": "address"
        }
      ],
      "name": "MinterAdded",
      "type": "event"
    },
    {
      "anonymous": false,
      "inputs": [
        {
          "indexed": true,
          "name": "account",
          "type": "address"
        }
      ],
      "name": "MinterRemoved",
      "type": "event"
    },
    {
      "anonymous": false,
      "inputs": [
        {
          "indexed": true,
          "name": "from",
          "type": "address"
        },
        {
          "indexed": true,
          "name": "to",
          "type": "address"
        },
        {
          "indexed": false,
          "name": "value",
          "type": "uint256"
        }
      ],
      "name": "Transfer",
      "type": "event"
    },
    {
      "anonymous": false,
      "inputs": [
        {
          "indexed": true,
          "name": "owner",
          "type": "address"
        },
        {
          "indexed": true,
          "name": "spender",
          "type": "address"
        },
        {
          "indexed": false,
          "name": "value",
          "type": "uint256"
        }
      ],
      "name": "Approval",
      "type": "event"
    },
    {
      "constant": true,
      "inputs": [],
      "name": "cap",
      "outputs": [
        {
          "name": "",
          "type": "uint256"
        }
      ],
      "payable": false,
      "stateMutability": "view",
      "type": "function"
    }
  ],
  "bytecode": "0x608060405234801561001057600080fd5b50604051610eae380380610eae8339818101604052602081101561003357600080fd5b5051610047336001600160e01b036100be16565b600081116100b657604080517f08c379a000000000000000000000000000000000000000000000000000000000815260206004820152601560248201527f45524332304361707065643a2063617020697320300000000000000000000000604482015290519081900360640190fd5b600455610232565b6100d681600361010d60201b610a2d1790919060201c565b6040516001600160a01b038216907f6ae172837ea30b801fbfcdd4108aa1d5bf8ff775444fd70256b44e6bf3dfc3f690600090a250565b61012082826001600160e01b036101b116565b1561018c57604080517f08c379a000000000000000000000000000000000000000000000000000000000815260206004820152601f60248201527f526f6c65733a206163636f756e7420616c72656164792068617320726f6c6500604482015290519081900360640190fd5b6001600160a01b0316600090815260209190915260409020805460ff19166001179055565b60006001600160a01b038216610212576040517f08c379a0000000000000000000000000000000000000000000000000000000008152600401808060200182810382526022815260200180610e8c6022913960400191505060405180910390fd5b506001600160a01b03166000908152602091909152604090205460ff1690565b610c4b806102416000396000f3fe608060405234801561001057600080fd5b50600436106100df5760003560e01c806370a082311161008c578063a457c2d711610066578063a457c2d71461022a578063a9059cbb14610256578063aa271e1a14610282578063dd62ed3e146102a8576100df565b806370a08231146101d4578063983b2d56146101fa5780639865027514610222576100df565b8063355274ea116100bd578063355274ea14610174578063395093511461017c57806340c10f19146101a8576100df565b8063095ea7b3146100e457806318160ddd1461012457806323b872dd1461013e575b600080fd5b610110600480360360408110156100fa57600080fd5b506001600160a01b0381351690602001356102d6565b604080519115158252519081900360200190f35b61012c6102ec565b60408051918252519081900360200190f35b6101106004803603606081101561015457600080fd5b506001600160a01b038135811691602081013590911690604001356102f2565b61012c610349565b6101106004803603604081101561019257600080fd5b506001600160a01b03813516906020013561034f565b610110600480360360408110156101be57600080fd5b506001600160a01b03813516906020013561038b565b61012c600480360360208110156101ea57600080fd5b50356001600160a01b03166103db565b6102206004803603602081101561021057600080fd5b50356001600160a01b03166103f6565b005b610220610446565b6101106004803603604081101561024057600080fd5b506001600160a01b038135169060200135610451565b6101106004803603604081101561026c57600080fd5b506001600160a01b03813516906020013561048d565b6101106004803603602081101561029857600080fd5b50356001600160a01b031661049a565b61012c600480360360408110156102be57600080fd5b506001600160a01b03813581169160200135166104b3565b60006102e33384846104de565b50600192915050565b60025490565b60006102ff8484846105ca565b6001600160a01b03841660009081526001602090815260408083203380855292529091205461033f91869161033a908663ffffffff61070c16565b6104de565b5060019392505050565b60045490565b3360008181526001602090815260408083206001600160a01b038716845290915281205490916102e391859061033a908663ffffffff61076916565b60006103963361049a565b6103d15760405162461bcd60e51b8152600401808060200182810382526030815260200180610b5b6030913960400191505060405180910390fd5b6102e383836107ca565b6001600160a01b031660009081526020819052604090205490565b6103ff3361049a565b61043a5760405162461bcd60e51b8152600401808060200182810382526030815260200180610b5b6030913960400191505060405180910390fd5b61044381610846565b50565b61044f3361088e565b565b3360008181526001602090815260408083206001600160a01b038716845290915281205490916102e391859061033a908663ffffffff61070c16565b60006102e33384846105ca565b60006104ad60038363ffffffff6108d616565b92915050565b6001600160a01b03918216600090815260016020908152604080832093909416825291909152205490565b6001600160a01b0383166105235760405162461bcd60e51b8152600401808060200182810382526024815260200180610bf36024913960400191505060405180910390fd5b6001600160a01b0382166105685760405162461bcd60e51b8152600401808060200182810382526022815260200180610b396022913960400191505060405180910390fd5b6001600160a01b03808416600081815260016020908152604080832094871680845294825291829020859055815185815291517f8c5be1e5ebec7d5bd14f71427d1e84f3dd0314c0f7b2291e5b200ac8c7c3b9259281900390910190a3505050565b6001600160a01b03831661060f5760405162461bcd60e51b8152600401808060200182810382526025815260200180610bce6025913960400191505060405180910390fd5b6001600160a01b0382166106545760405162461bcd60e51b8152600401808060200182810382526023815260200180610b166023913960400191505060405180910390fd5b6001600160a01b03831660009081526020819052604090205461067d908263ffffffff61070c16565b6001600160a01b0380851660009081526020819052604080822093909355908416815220546106b2908263ffffffff61076916565b6001600160a01b038084166000818152602081815260409182902094909455805185815290519193928716927fddf252ad1be2c89b69c2b068fc378daa952ba7f163c4a11628f55a4df523b3ef92918290030190a3505050565b600082821115610763576040805162461bcd60e51b815260206004820152601e60248201527f536166654d6174683a207375627472616374696f6e206f766572666c6f770000604482015290519081900360640190fd5b50900390565b6000828201838110156107c3576040805162461bcd60e51b815260206004820152601b60248201527f536166654d6174683a206164646974696f6e206f766572666c6f770000000000604482015290519081900360640190fd5b9392505050565b6004546107e5826107d96102ec565b9063ffffffff61076916565b1115610838576040805162461bcd60e51b815260206004820152601960248201527f45524332304361707065643a2063617020657863656564656400000000000000604482015290519081900360640190fd5b610842828261093d565b5050565b61085760038263ffffffff610a2d16565b6040516001600160a01b038216907f6ae172837ea30b801fbfcdd4108aa1d5bf8ff775444fd70256b44e6bf3dfc3f690600090a250565b61089f60038263ffffffff610aae16565b6040516001600160a01b038216907fe94479a9f7e1952cc78f2d6baab678adc1b772d936c6583def489e524cb6669290600090a250565b60006001600160a01b03821661091d5760405162461bcd60e51b8152600401808060200182810382526022815260200180610bac6022913960400191505060405180910390fd5b506001600160a01b03166000908152602091909152604090205460ff1690565b6001600160a01b038216610998576040805162461bcd60e51b815260206004820152601f60248201527f45524332303a206d696e7420746f20746865207a65726f206164647265737300604482015290519081900360640190fd5b6002546109ab908263ffffffff61076916565b6002556001600160a01b0382166000908152602081905260409020546109d7908263ffffffff61076916565b6001600160a01b0383166000818152602081815260408083209490945583518581529351929391927fddf252ad1be2c89b69c2b068fc378daa952ba7f163c4a11628f55a4df523b3ef9281900390910190a35050565b610a3782826108d6565b15610a89576040805162461bcd60e51b815260206004820152601f60248201527f526f6c65733a206163636f756e7420616c72656164792068617320726f6c6500604482015290519081900360640190fd5b6001600160a01b0316600090815260209190915260409020805460ff19166001179055565b610ab882826108d6565b610af35760405162461bcd60e51b8152600401808060200182810382526021815260200180610b8b6021913960400191505060405180910390fd5b6001600160a01b0316600090815260209190915260409020805460ff1916905556fe45524332303a207472616e7366657220746f20746865207a65726f206164647265737345524332303a20617070726f766520746f20746865207a65726f20616464726573734d696e746572526f6c653a2063616c6c657220646f6573206e6f74206861766520746865204d696e74657220726f6c65526f6c65733a206163636f756e7420646f6573206e6f74206861766520726f6c65526f6c65733a206163636f756e7420697320746865207a65726f206164647265737345524332303a207472616e736665722066726f6d20746865207a65726f206164647265737345524332303a20617070726f76652066726f6d20746865207a65726f2061646472657373a265627a7a723058209dfc2e7ab87a08017fc9d3546d113e26c4aa08a442ce2fba5506bddc7070e8ad64736f6c634300050a0032526f6c65733a206163636f756e7420697320746865207a65726f2061646472657373",
  "source": "pragma solidity ^0.5.0;\n\nimport \"./ERC20Mintable.sol\";\n\n/**\n * @dev Extension of `ERC20Mintable` that adds a cap to the supply of tokens.\n */\ncontract ERC20Capped is ERC20Mintable {\n    uint256 private _cap;\n\n    /**\n     * @dev Sets the value of the `cap`. This value is immutable, it can only be\n     * set once during construction.\n     */\n    constructor (uint256 cap) public {\n        require(cap > 0, \"ERC20Capped: cap is 0\");\n        _cap = cap;\n    }\n\n    /**\n     * @dev Returns the cap on the token's total supply.\n     */\n    function cap() public view returns (uint256) {\n        return _cap;\n    }\n\n    /**\n     * @dev See `ERC20Mintable.mint`.\n     *\n     * Requirements:\n     *\n     * - `value` must not cause the total supply to go over the cap.\n     */\n    function _mint(address account, uint256 value) internal {\n        require(totalSupply().add(value) <= _cap, \"ERC20Capped: cap exceeded\");\n        super._mint(account, value);\n    }\n}\n",
  "sourcePath": "/home/bscholtz/LinumLabs/workspace/molecule-alpha_feature-8/Blockchain/contracts/_resources/openzeppelin-solidity/token/ERC20/ERC20Capped.sol",
  "compiler": {
    "name": "solc",
    "version": "0.5.10+commit.5a6ea5b1.Emscripten.clang",
    "optimizer": true,
    "runs": 500
  },
  "schemaVersion": "2.1.7",
  "updatedAt": "2019-08-12T11:56:48.993Z"
}