{
  "contractName": "MarketFactory",
  "abi": [
    {
      "constant": false,
      "inputs": [],
      "name": "renounceWhitelistAdmin",
      "outputs": [],
      "payable": false,
      "stateMutability": "nonpayable",
      "type": "function"
    },
    {
      "constant": false,
      "inputs": [
        {
          "name": "account",
          "type": "address"
        }
      ],
      "name": "addWhitelistAdmin",
      "outputs": [],
      "payable": false,
      "stateMutability": "nonpayable",
      "type": "function"
    },
    {
      "constant": true,
      "inputs": [
        {
          "name": "account",
          "type": "address"
        }
      ],
      "name": "isWhitelistAdmin",
      "outputs": [
        {
          "name": "",
          "type": "bool"
        }
      ],
      "payable": false,
      "stateMutability": "view",
      "type": "function"
    },
    {
      "inputs": [
        {
          "name": "_collateralToken",
          "type": "address"
        },
        {
          "name": "_moleculeVault",
          "type": "address"
        },
        {
          "name": "_marketRegistry",
          "type": "address"
        },
        {
          "name": "_curveRegistry",
          "type": "address"
        }
      ],
      "payable": false,
      "stateMutability": "nonpayable",
      "type": "constructor"
    },
    {
      "anonymous": false,
      "inputs": [
        {
          "indexed": true,
          "name": "account",
          "type": "address"
        }
      ],
      "name": "WhitelistAdminAdded",
      "type": "event"
    },
    {
      "anonymous": false,
      "inputs": [
        {
          "indexed": true,
          "name": "account",
          "type": "address"
        }
      ],
      "name": "WhitelistAdminRemoved",
      "type": "event"
    },
    {
      "constant": false,
      "inputs": [
        {
          "name": "_fundingGoals",
          "type": "uint256[]"
        },
        {
          "name": "_phaseDurations",
          "type": "uint256[]"
        },
        {
          "name": "_creator",
          "type": "address"
        },
        {
          "name": "_curveType",
          "type": "uint256"
        },
        {
          "name": "_taxationRate",
          "type": "uint256"
        }
      ],
      "name": "deployMarket",
      "outputs": [],
      "payable": false,
      "stateMutability": "nonpayable",
      "type": "function"
    },
    {
      "constant": false,
      "inputs": [
        {
          "name": "_newMoleculeVault",
          "type": "address"
        }
      ],
      "name": "updateMoleculeVault",
      "outputs": [],
      "payable": false,
      "stateMutability": "nonpayable",
      "type": "function"
    },
    {
      "constant": true,
      "inputs": [],
      "name": "moleculeVault",
      "outputs": [
        {
          "name": "",
          "type": "address"
        }
      ],
      "payable": false,
      "stateMutability": "view",
      "type": "function"
    },
    {
      "constant": true,
      "inputs": [],
      "name": "marketRegistry",
      "outputs": [
        {
          "name": "",
          "type": "address"
        }
      ],
      "payable": false,
      "stateMutability": "view",
      "type": "function"
    },
    {
      "constant": true,
      "inputs": [],
      "name": "curveRegistry",
      "outputs": [
        {
          "name": "",
          "type": "address"
        }
      ],
      "payable": false,
      "stateMutability": "view",
      "type": "function"
    },
    {
      "constant": true,
      "inputs": [],
      "name": "collateralToken",
      "outputs": [
        {
          "name": "",
          "type": "address"
        }
      ],
      "payable": false,
      "stateMutability": "view",
      "type": "function"
    }
  ],
  "bytecode": "0x608060405234801561001057600080fd5b5060405162006cab38038062006cab8339818101604052608081101561003557600080fd5b81019080805190602001909291908051906020019092919080519060200190929190805190602001909291905050506100733361018060201b60201c565b80600360006101000a81548173ffffffffffffffffffffffffffffffffffffffff021916908373ffffffffffffffffffffffffffffffffffffffff16021790555083600460006101000a81548173ffffffffffffffffffffffffffffffffffffffff021916908373ffffffffffffffffffffffffffffffffffffffff16021790555081600260006101000a81548173ffffffffffffffffffffffffffffffffffffffff021916908373ffffffffffffffffffffffffffffffffffffffff16021790555082600160006101000a81548173ffffffffffffffffffffffffffffffffffffffff021916908373ffffffffffffffffffffffffffffffffffffffff1602179055505050505061039e565b6101988160006101de60201b6110b31790919060201c565b8073ffffffffffffffffffffffffffffffffffffffff167f22380c05984257a1cb900161c713dd71d39e74820f1aea43bd3f1bdd2096129960405160405180910390a250565b6101ee82826102bf60201b60201c565b15610261576040517f08c379a000000000000000000000000000000000000000000000000000000000815260040180806020018281038252601f8152602001807f526f6c65733a206163636f756e7420616c72656164792068617320726f6c650081525060200191505060405180910390fd5b60018260000160008373ffffffffffffffffffffffffffffffffffffffff1673ffffffffffffffffffffffffffffffffffffffff16815260200190815260200160002060006101000a81548160ff0219169083151502179055505050565b60008073ffffffffffffffffffffffffffffffffffffffff168273ffffffffffffffffffffffffffffffffffffffff161415610347576040517f08c379a000000000000000000000000000000000000000000000000000000000815260040180806020018281038252602281526020018062006c896022913960400191505060405180910390fd5b8260000160008373ffffffffffffffffffffffffffffffffffffffff1673ffffffffffffffffffffffffffffffffffffffff16815260200190815260200160002060009054906101000a900460ff16905092915050565b6168db80620003ae6000396000f3fe60806040523480156200001157600080fd5b5060043610620000a05760003560e01c8063706abf13116200006f578063706abf1314620001905780637362d9c8146200029b578063b2016bd414620002e2578063bb5f747b146200032e578063ecb96fe6146200038d57620000a0565b806307ce446914620000a557806327c24a5d14620000f15780634c5a628c146200013d5780635402e07f1462000149575b600080fd5b620000af620003d9565b604051808273ffffffffffffffffffffffffffffffffffffffff1673ffffffffffffffffffffffffffffffffffffffff16815260200191505060405180910390f35b620000fb62000403565b604051808273ffffffffffffffffffffffffffffffffffffffff1673ffffffffffffffffffffffffffffffffffffffff16815260200191505060405180910390f35b620001476200042d565b005b6200018e600480360360208110156200016157600080fd5b81019080803573ffffffffffffffffffffffffffffffffffffffff1690602001909291905050506200043a565b005b62000299600480360360a0811015620001a857600080fd5b8101908080359060200190640100000000811115620001c657600080fd5b820183602082011115620001d957600080fd5b80359060200191846020830284011164010000000083111715620001fc57600080fd5b9091929391929390803590602001906401000000008111156200021e57600080fd5b8201836020820111156200023157600080fd5b803590602001918460208302840111640100000000831117156200025457600080fd5b9091929391929390803573ffffffffffffffffffffffffffffffffffffffff1690602001909291908035906020019092919080359060200190929190505050620004e0565b005b620002e060048036036020811015620002b357600080fd5b81019080803573ffffffffffffffffffffffffffffffffffffffff16906020019092919050505062000d77565b005b620002ec62000de7565b604051808273ffffffffffffffffffffffffffffffffffffffff1673ffffffffffffffffffffffffffffffffffffffff16815260200191505060405180910390f35b62000373600480360360208110156200034657600080fd5b81019080803573ffffffffffffffffffffffffffffffffffffffff16906020019092919050505062000e11565b604051808215151515815260200191505060405180910390f35b6200039762000e30565b604051808273ffffffffffffffffffffffffffffffffffffffff1673ffffffffffffffffffffffffffffffffffffffff16815260200191505060405180910390f35b6000600160009054906101000a900473ffffffffffffffffffffffffffffffffffffffff16905090565b6000600360009054906101000a900473ffffffffffffffffffffffffffffffffffffffff16905090565b620004383362000e5a565b565b620004453362000e11565b6200049c576040517f08c379a0000000000000000000000000000000000000000000000000000000008152600401808060200182810382526040815260200180620068676040913960400191505060405180910390fd5b80600160006101000a81548173ffffffffffffffffffffffffffffffffffffffff021916908373ffffffffffffffffffffffffffffffffffffffff16021790555050565b620004eb3362000e11565b62000542576040517f08c379a0000000000000000000000000000000000000000000000000000000008152600401808060200182810382526040815260200180620068676040913960400191505060405180910390fd5b600080600360009054906101000a900473ffffffffffffffffffffffffffffffffffffffff1673ffffffffffffffffffffffffffffffffffffffff16636256e8bf856040518263ffffffff1660e01b81526004018082815260200191505060006040518083038186803b158015620005b957600080fd5b505afa158015620005ce573d6000803e3d6000fd5b505050506040513d6000823e3d601f19601f820116820180604052506060811015620005f957600080fd5b810190808051906020019092919080516401000000008111156200061c57600080fd5b828101905060208101848111156200063357600080fd5b81518560018202830111640100000000821117156200065157600080fd5b505092919060200180519060200190929190505050925050915060008311620006e2576040517f08c379a00000000000000000000000000000000000000000000000000000000081526004018080602001828103825260158152602001807f5461786174696f6e207261746520746f6f206c6f77000000000000000000000081525060200191505060405180910390fd5b6064831062000759576040517f08c379a00000000000000000000000000000000000000000000000000000000081526004018080602001828103825260168152602001807f5461786174696f6e207261746520746f6f20686967680000000000000000000081525060200191505060405180910390fd5b6001151581151514620007d4576040517f08c379a000000000000000000000000000000000000000000000000000000000815260040180806020018281038252600e8152602001807f437572766520696e61637469766500000000000000000000000000000000000081525060200191505060405180910390fd5b600073ffffffffffffffffffffffffffffffffffffffff168273ffffffffffffffffffffffffffffffffffffffff16141562000878576040517f08c379a00000000000000000000000000000000000000000000000000000000081526004018080602001828103825260158152602001807f4375727665206c69627261727920696e76616c6964000000000000000000000081525060200191505060405180910390fd5b60008989898989600460009054906101000a900473ffffffffffffffffffffffffffffffffffffffff16600160009054906101000a900473ffffffffffffffffffffffffffffffffffffffff16604051620008d39062001191565b8080602001806020018673ffffffffffffffffffffffffffffffffffffffff1673ffffffffffffffffffffffffffffffffffffffff1681526020018573ffffffffffffffffffffffffffffffffffffffff1673ffffffffffffffffffffffffffffffffffffffff1681526020018473ffffffffffffffffffffffffffffffffffffffff1673ffffffffffffffffffffffffffffffffffffffff16815260200183810383528a8a82818152602001925060200280828437600081840152601f19601f8201169050808301925050508381038252888882818152602001925060200280828437600081840152601f19601f8201169050808301925050509950505050505050505050604051809103906000f080158015620009f6573d6000803e3d6000fd5b5090506000848285600460009054906101000a900473ffffffffffffffffffffffffffffffffffffffff1660405162000a2f906200119f565b808581526020018473ffffffffffffffffffffffffffffffffffffffff1673ffffffffffffffffffffffffffffffffffffffff1681526020018373ffffffffffffffffffffffffffffffffffffffff1673ffffffffffffffffffffffffffffffffffffffff1681526020018273ffffffffffffffffffffffffffffffffffffffff1673ffffffffffffffffffffffffffffffffffffffff168152602001945050505050604051809103906000f08015801562000aef573d6000803e3d6000fd5b5090508173ffffffffffffffffffffffffffffffffffffffff1663c4d66de8826040518263ffffffff1660e01b8152600401808273ffffffffffffffffffffffffffffffffffffffff1673ffffffffffffffffffffffffffffffffffffffff168152602001915050602060405180830381600087803b15801562000b7257600080fd5b505af115801562000b87573d6000803e3d6000fd5b505050506040513d602081101562000b9e57600080fd5b810190808051906020019092919050505062000c22576040517f08c379a00000000000000000000000000000000000000000000000000000000081526004018080602001828103825260158152602001807f5661756c74206e6f7420696e697469616c69736564000000000000000000000081525060200191505060405180910390fd5b600260009054906101000a900473ffffffffffffffffffffffffffffffffffffffff1673ffffffffffffffffffffffffffffffffffffffff1663d2a4226882848a6040518463ffffffff1660e01b8152600401808473ffffffffffffffffffffffffffffffffffffffff1673ffffffffffffffffffffffffffffffffffffffff1681526020018373ffffffffffffffffffffffffffffffffffffffff1673ffffffffffffffffffffffffffffffffffffffff1681526020018273ffffffffffffffffffffffffffffffffffffffff1673ffffffffffffffffffffffffffffffffffffffff1681526020019350505050602060405180830381600087803b15801562000d2c57600080fd5b505af115801562000d41573d6000803e3d6000fd5b505050506040513d602081101562000d5857600080fd5b8101908080519060200190929190505050505050505050505050505050565b62000d823362000e11565b62000dd9576040517f08c379a0000000000000000000000000000000000000000000000000000000008152600401808060200182810382526040815260200180620068676040913960400191505060405180910390fd5b62000de48162000eb6565b50565b6000600460009054906101000a900473ffffffffffffffffffffffffffffffffffffffff16905090565b600062000e2982600062000f1290919063ffffffff16565b9050919050565b6000600260009054906101000a900473ffffffffffffffffffffffffffffffffffffffff16905090565b62000e7081600062000ff290919063ffffffff16565b8073ffffffffffffffffffffffffffffffffffffffff167f0a8eb35e5ca14b3d6f28e4abf2f128dbab231a58b56e89beb5d636115001e16560405160405180910390a250565b62000ecc816000620010b390919063ffffffff16565b8073ffffffffffffffffffffffffffffffffffffffff167f22380c05984257a1cb900161c713dd71d39e74820f1aea43bd3f1bdd2096129960405160405180910390a250565b60008073ffffffffffffffffffffffffffffffffffffffff168273ffffffffffffffffffffffffffffffffffffffff16141562000f9b576040517f08c379a0000000000000000000000000000000000000000000000000000000008152600401808060200182810382526022815260200180620068456022913960400191505060405180910390fd5b8260000160008373ffffffffffffffffffffffffffffffffffffffff1673ffffffffffffffffffffffffffffffffffffffff16815260200190815260200160002060009054906101000a900460ff16905092915050565b62000ffe828262000f12565b62001055576040517f08c379a0000000000000000000000000000000000000000000000000000000008152600401808060200182810382526021815260200180620068246021913960400191505060405180910390fd5b60008260000160008373ffffffffffffffffffffffffffffffffffffffff1673ffffffffffffffffffffffffffffffffffffffff16815260200190815260200160002060006101000a81548160ff0219169083151502179055505050565b620010bf828262000f12565b1562001133576040517f08c379a000000000000000000000000000000000000000000000000000000000815260040180806020018281038252601f8152602001807f526f6c65733a206163636f756e7420616c72656164792068617320726f6c650081525060200191505060405180910390fd5b60018260000160008373ffffffffffffffffffffffffffffffffffffffff1673ffffffffffffffffffffffffffffffffffffffff16815260200190815260200160002060006101000a81548160ff0219169083151502179055505050565b612d7580620011ae83390190565b6129018062003f238339019056fe60806040523480156200001157600080fd5b5060405162002d7538038062002d75833981810160405260a08110156200003757600080fd5b8101908080516401000000008111156200005057600080fd5b828101905060208101848111156200006757600080fd5b81518560208202830111640100000000821117156200008557600080fd5b50509291906020018051640100000000811115620000a257600080fd5b82810190506020810184811115620000b957600080fd5b8151856020820283011164010000000082111715620000d757600080fd5b505092919060200180519060200190929190805190602001909291908051906020019092919050505062000111336200055860201b60201c565b600085511162000189576040517f08c379a000000000000000000000000000000000000000000000000000000000815260040180806020018281038252601a8152602001807f4e6f2066756e64696e6720676f616c732073706563696669656400000000000081525060200191505060405180910390fd5b600a85511062000201576040517f08c379a00000000000000000000000000000000000000000000000000000000081526004018080602001828103825260178152602001807f546f6f206d616e792070686173657320646566696e656400000000000000000081525060200191505060405180910390fd5b835185511462000279576040517f08c379a000000000000000000000000000000000000000000000000000000000815260040180806020018281038252601b8152602001807f496e76616c696420706861736520636f6e66696775726174696f6e000000000081525060200191505060405180910390fd5b6200028f83620005b960201b620017171760201c565b600060078190555082600160006101000a81548173ffffffffffffffffffffffffffffffffffffffff021916908373ffffffffffffffffffffffffffffffffffffffff16021790555081600360006101000a81548173ffffffffffffffffffffffffffffffffffffffff021916908373ffffffffffffffffffffffffffffffffffffffff16021790555080600460006101000a81548173ffffffffffffffffffffffffffffffffffffffff021916908373ffffffffffffffffffffffffffffffffffffffff160217905550600460009054906101000a900473ffffffffffffffffffffffffffffffffffffffff1673ffffffffffffffffffffffffffffffffffffffff1663771a3a1d6040518163ffffffff1660e01b815260040160206040518083038186803b158015620003c357600080fd5b505afa158015620003d8573d6000803e3d6000fd5b505050506040513d6020811015620003ef57600080fd5b810190808051906020019092919050505060058190555060008551905060008090505b81811015620004ef576000620004946200046b6064620004576005548c87815181106200043b57fe5b60200260200101516200063560201b62001aac1790919060201c565b620006c060201b62001b321790919060201c565b8984815181106200047857fe5b60200260200101516200075160201b62001a241790919060201c565b9050806008600084815260200190815260200160002060000181905550868281518110620004be57fe5b6020026020010151600860008481526020019081526020016000206001018190555050808060010191505062000412565b5042600860008081526020019081526020016000206002018190555060016008600080815260200190815260200160002060030160006101000a81548160ff021916908360038111156200053f57fe5b02179055506000600681905550505050505050620009c2565b62000573816000620007da60201b620021291790919060201c565b8073ffffffffffffffffffffffffffffffffffffffff167f22380c05984257a1cb900161c713dd71d39e74820f1aea43bd3f1bdd2096129960405160405180910390a250565b620005ca33620008be60201b60201c565b62000621576040517f08c379a000000000000000000000000000000000000000000000000000000000815260040180806020018281038252604081526020018062002d356040913960400191505060405180910390fd5b62000632816200055860201b60201c565b50565b6000808314156200064a5760009050620006ba565b60008284029050828482816200065c57fe5b0414620006b5576040517f08c379a000000000000000000000000000000000000000000000000000000000815260040180806020018281038252602181526020018062002cf26021913960400191505060405180910390fd5b809150505b92915050565b600080821162000738576040517f08c379a000000000000000000000000000000000000000000000000000000000815260040180806020018281038252601a8152602001807f536166654d6174683a206469766973696f6e206279207a65726f00000000000081525060200191505060405180910390fd5b60008284816200074457fe5b0490508091505092915050565b600080828401905083811015620007d0576040517f08c379a000000000000000000000000000000000000000000000000000000000815260040180806020018281038252601b8152602001807f536166654d6174683a206164646974696f6e206f766572666c6f77000000000081525060200191505060405180910390fd5b8091505092915050565b620007ec8282620008e260201b60201c565b1562000860576040517f08c379a000000000000000000000000000000000000000000000000000000000815260040180806020018281038252601f8152602001807f526f6c65733a206163636f756e7420616c72656164792068617320726f6c650081525060200191505060405180910390fd5b60018260000160008373ffffffffffffffffffffffffffffffffffffffff1673ffffffffffffffffffffffffffffffffffffffff16815260200190815260200160002060006101000a81548160ff0219169083151502179055505050565b6000620008db826000620008e260201b62001d171790919060201c565b9050919050565b60008073ffffffffffffffffffffffffffffffffffffffff168273ffffffffffffffffffffffffffffffffffffffff1614156200096b576040517f08c379a000000000000000000000000000000000000000000000000000000000815260040180806020018281038252602281526020018062002d136022913960400191505060405180910390fd5b8260000160008373ffffffffffffffffffffffffffffffffffffffff1673ffffffffffffffffffffffffffffffffffffffff16815260200190815260200160002060009054906101000a900460ff16905092915050565b61232080620009d26000396000f3fe608060405234801561001057600080fd5b50600436106100b45760003560e01c80635d3a4db9116100715780635d3a4db9146101b15780637362d9c8146101bb57806380f55605146101ff578063bb5f747b14610249578063c4d66de8146102a5578063cd44461e14610301576100b4565b806302d05d3f146100b9578063055ad42e146101035780632e1a7d4d1461012157806333545eee1461016757806340fb9353146101895780634c5a628c146101a7575b600080fd5b6100c1610366565b604051808273ffffffffffffffffffffffffffffffffffffffff1673ffffffffffffffffffffffffffffffffffffffff16815260200191505060405180910390f35b61010b610390565b6040518082815260200191505060405180910390f35b61014d6004803603602081101561013757600080fd5b810190808035906020019092919050505061039a565b604051808215151515815260200191505060405180910390f35b61016f6109ad565b604051808215151515815260200191505060405180910390f35b610191610df5565b6040518082815260200191505060405180910390f35b6101af610e53565b005b6101b9610e5e565b005b6101fd600480360360208110156101d157600080fd5b81019080803573ffffffffffffffffffffffffffffffffffffffff169060200190929190505050611717565b005b610207611781565b604051808273ffffffffffffffffffffffffffffffffffffffff1673ffffffffffffffffffffffffffffffffffffffff16815260200191505060405180910390f35b61028b6004803603602081101561025f57600080fd5b81019080803573ffffffffffffffffffffffffffffffffffffffff1690602001909291905050506117ab565b604051808215151515815260200191505060405180910390f35b6102e7600480360360208110156102bb57600080fd5b81019080803573ffffffffffffffffffffffffffffffffffffffff1690602001909291905050506117c8565b604051808215151515815260200191505060405180910390f35b61032d6004803603602081101561031757600080fd5b810190808035906020019092919050505061191d565b6040518085815260200184815260200183815260200182600381111561034f57fe5b60ff16815260200194505050505060405180910390f35b6000600160009054906101000a900473ffffffffffffffffffffffffffffffffffffffff16905090565b6000600654905090565b60006103a5336117ab565b6103fa576040517f08c379a00000000000000000000000000000000000000000000000000000000081526004018080602001828103825260408152602001806122ac6040913960400191505060405180910390fd5b6002600381111561040757fe5b6008600084815260200190815260200160002060030160009054906101000a900460ff16600381111561043657fe5b146104a9576040517f08c379a00000000000000000000000000000000000000000000000000000000081526004018080602001828103825260158152602001807f46756e6420706861736520696e636f6d706c657465000000000000000000000081525060200191505060405180910390fd5b600060038111156104b657fe5b60086000600654815260200190815260200160002060030160009054906101000a900460ff1660038111156104e757fe5b14156105a357600260009054906101000a900473ffffffffffffffffffffffffffffffffffffffff1673ffffffffffffffffffffffffffffffffffffffff166302fb0c5e6040518163ffffffff1660e01b815260040160206040518083038186803b15801561055557600080fd5b505afa158015610569573d6000803e3d6000fd5b505050506040513d602081101561057f57600080fd5b81019080805190602001909291905050501561059e5761059d610e5e565b5b6109a4565b6105ce600860008481526020019081526020016000206000015460075461199b90919063ffffffff16565b6007819055506003808111156105e057fe5b6008600084815260200190815260200160002060030160009054906101000a900460ff16600381111561060f57fe5b5050600061066561062c6064600554611a2490919063ffffffff16565b6106576005546008600088815260200190815260200160002060000154611aac90919063ffffffff16565b611b3290919063ffffffff16565b9050600360009054906101000a900473ffffffffffffffffffffffffffffffffffffffff1673ffffffffffffffffffffffffffffffffffffffff1663a9059cbb600460009054906101000a900473ffffffffffffffffffffffffffffffffffffffff16836040518363ffffffff1660e01b8152600401808373ffffffffffffffffffffffffffffffffffffffff1673ffffffffffffffffffffffffffffffffffffffff16815260200182815260200192505050602060405180830381600087803b15801561073257600080fd5b505af1158015610746573d6000803e3d6000fd5b505050506040513d602081101561075c57600080fd5b81019080805190602001909291905050506107df576040517f08c379a00000000000000000000000000000000000000000000000000000000081526004018080602001828103825260138152602001807f546f6b656e73206e6f74207472616e736665720000000000000000000000000081525060200191505060405180910390fd5b600061080a82600860008781526020019081526020016000206000015461199b90919063ffffffff16565b9050600360009054906101000a900473ffffffffffffffffffffffffffffffffffffffff1673ffffffffffffffffffffffffffffffffffffffff1663a9059cbb33836040518363ffffffff1660e01b8152600401808373ffffffffffffffffffffffffffffffffffffffff1673ffffffffffffffffffffffffffffffffffffffff16815260200182815260200192505050602060405180830381600087803b1580156108b557600080fd5b505af11580156108c9573d6000803e3d6000fd5b505050506040513d60208110156108df57600080fd5b8101908080519060200190929190505050610962576040517f08c379a00000000000000000000000000000000000000000000000000000000081526004018080602001828103825260138152602001807f546f6b656e73206e6f74207472616e736665720000000000000000000000000081525060200191505060405180910390fd5b7f2d4b889da8a0924a586db952c7af049dd904c115b9e9c159c6c222f5a560ac448482604051808381526020018281526020019250505060405180910390a150505b60019050919050565b6000600260009054906101000a900473ffffffffffffffffffffffffffffffffffffffff1673ffffffffffffffffffffffffffffffffffffffff163373ffffffffffffffffffffffffffffffffffffffff1614610a72576040517f08c379a000000000000000000000000000000000000000000000000000000000815260040180806020018281038252601a8152602001807f496e76616c69642072657175657374696e67206163636f756e7400000000000081525060200191505060405180910390fd5b60016003811115610a7f57fe5b60086000600654815260200190815260200160002060030160009054906101000a900460ff166003811115610ab057fe5b14610b23576040517f08c379a00000000000000000000000000000000000000000000000000000000081526004018080602001828103825260108152602001807f46756e64696e6720696e6163746976650000000000000000000000000000000081525060200191505060405180910390fd5b6000600360009054906101000a900473ffffffffffffffffffffffffffffffffffffffff1673ffffffffffffffffffffffffffffffffffffffff166370a08231306040518263ffffffff1660e01b8152600401808273ffffffffffffffffffffffffffffffffffffffff1673ffffffffffffffffffffffffffffffffffffffff16815260200191505060206040518083038186803b158015610bc457600080fd5b505afa158015610bd8573d6000803e3d6000fd5b505050506040513d6020811015610bee57600080fd5b810190808051906020019092919050505090506000610c466008600060065481526020019081526020016000206001015460086000600654815260200190815260200160002060020154611bc190919063ffffffff16565b9050428111610c5a57600092505050610df2565b600860006006548152602001908152602001600020600001548210610deb57600260086000600654815260200190815260200160002060030160006101000a81548160ff02191690836003811115610cae57fe5b0217905550610ce060086000600654815260200190815260200160002060000154600754611a2490919063ffffffff16565b6007819055506001600654016006819055506000600860006006548152602001908152602001600020600001541115610d6b57600160086000600654815260200190815260200160002060030160006101000a81548160ff02191690836003811115610d4857fe5b021790555042600860006006548152602001908152602001600020600201819055505b7f809759a8805d7e63b4a9e1c8569d3b7eeb19f4f60640176e5eb10012a0249f14610da2600160065461199b90919063ffffffff16565b60086000610dbc600160065461199b90919063ffffffff16565b815260200190815260200160002060000154604051808381526020018281526020019250505060405180910390a15b6001925050505b90565b600080610e4a610e39610e146064600554611a2490919063ffffffff16565b610e2b600554600754611aac90919063ffffffff16565b611b3290919063ffffffff16565b60075461199b90919063ffffffff16565b90508091505090565b610e5c33611c63565b565b610e67336117ab565b610ebc576040517f08c379a00000000000000000000000000000000000000000000000000000000081526004018080602001828103825260408152602001806122ac6040913960400191505060405180910390fd5b6000600360009054906101000a900473ffffffffffffffffffffffffffffffffffffffff1673ffffffffffffffffffffffffffffffffffffffff166370a08231306040518263ffffffff1660e01b8152600401808273ffffffffffffffffffffffffffffffffffffffff1673ffffffffffffffffffffffffffffffffffffffff16815260200191505060206040518083038186803b158015610f5d57600080fd5b505afa158015610f71573d6000803e3d6000fd5b505050506040513d6020811015610f8757600080fd5b81019080805190602001909291905050509050600060078190555060006003811115610faf57fe5b60086000600654815260200190815260200160002060030160009054906101000a900460ff166003811115610fe057fe5b14801561102c575060026003811115610ff557fe5b60086000600160065403815260200190815260200160002060030160009054906101000a900460ff16600381111561102957fe5b10155b1561148457600061106f61104c6064600554611a2490919063ffffffff16565b61106160055485611aac90919063ffffffff16565b611b3290919063ffffffff16565b9050600360009054906101000a900473ffffffffffffffffffffffffffffffffffffffff1673ffffffffffffffffffffffffffffffffffffffff1663a9059cbb600460009054906101000a900473ffffffffffffffffffffffffffffffffffffffff16836040518363ffffffff1660e01b8152600401808373ffffffffffffffffffffffffffffffffffffffff1673ffffffffffffffffffffffffffffffffffffffff16815260200182815260200192505050602060405180830381600087803b15801561113c57600080fd5b505af1158015611150573d6000803e3d6000fd5b505050506040513d602081101561116657600080fd5b81019080805190602001909291905050506111e9576040517f08c379a000000000000000000000000000000000000000000000000000000000815260040180806020018281038252601b8152602001807f5472616e73666572696e67206f662066756e6473206661696c6564000000000081525060200191505060405180910390fd5b600360009054906101000a900473ffffffffffffffffffffffffffffffffffffffff1673ffffffffffffffffffffffffffffffffffffffff166370a08231306040518263ffffffff1660e01b8152600401808273ffffffffffffffffffffffffffffffffffffffff1673ffffffffffffffffffffffffffffffffffffffff16815260200191505060206040518083038186803b15801561128857600080fd5b505afa15801561129c573d6000803e3d6000fd5b505050506040513d60208110156112b257600080fd5b81019080805190602001909291905050509150600360009054906101000a900473ffffffffffffffffffffffffffffffffffffffff1673ffffffffffffffffffffffffffffffffffffffff1663a9059cbb600160009054906101000a900473ffffffffffffffffffffffffffffffffffffffff16846040518363ffffffff1660e01b8152600401808373ffffffffffffffffffffffffffffffffffffffff1673ffffffffffffffffffffffffffffffffffffffff16815260200182815260200192505050602060405180830381600087803b15801561139057600080fd5b505af11580156113a4573d6000803e3d6000fd5b505050506040513d60208110156113ba57600080fd5b810190808051906020019092919050505061143d576040517f08c379a000000000000000000000000000000000000000000000000000000000815260040180806020018281038252601b8152602001807f5472616e73666572696e67206f662066756e6473206661696c6564000000000081525060200191505060405180910390fd5b7f2d4b889da8a0924a586db952c7af049dd904c115b9e9c159c6c222f5a560ac4460065483604051808381526020018281526020019250505060405180910390a1506115fd565b600360009054906101000a900473ffffffffffffffffffffffffffffffffffffffff1673ffffffffffffffffffffffffffffffffffffffff1663a9059cbb600260009054906101000a900473ffffffffffffffffffffffffffffffffffffffff16836040518363ffffffff1660e01b8152600401808373ffffffffffffffffffffffffffffffffffffffff1673ffffffffffffffffffffffffffffffffffffffff16815260200182815260200192505050602060405180830381600087803b15801561154f57600080fd5b505af1158015611563573d6000803e3d6000fd5b505050506040513d602081101561157957600080fd5b81019080805190602001909291905050506115fc576040517f08c379a000000000000000000000000000000000000000000000000000000000815260040180806020018281038252601b8152602001807f5472616e73666572696e67206f662066756e6473206661696c6564000000000081525060200191505060405180910390fd5b5b600260009054906101000a900473ffffffffffffffffffffffffffffffffffffffff1673ffffffffffffffffffffffffffffffffffffffff1663cd89019d6040518163ffffffff1660e01b8152600401602060405180830381600087803b15801561166757600080fd5b505af115801561167b573d6000803e3d6000fd5b505050506040513d602081101561169157600080fd5b8101908080519060200190929190505050611714576040517f08c379a00000000000000000000000000000000000000000000000000000000081526004018080602001828103825260188152602001807f4d61726b6574207465726d696e6174696f6e206572726f72000000000000000081525060200191505060405180910390fd5b50565b611720336117ab565b611775576040517f08c379a00000000000000000000000000000000000000000000000000000000081526004018080602001828103825260408152602001806122ac6040913960400191505060405180910390fd5b61177e81611cbd565b50565b6000600260009054906101000a900473ffffffffffffffffffffffffffffffffffffffff16905090565b60006117c1826000611d1790919063ffffffff16565b9050919050565b60006117d3336117ab565b611828576040517f08c379a00000000000000000000000000000000000000000000000000000000081526004018080602001828103825260408152602001806122ac6040913960400191505060405180910390fd5b600073ffffffffffffffffffffffffffffffffffffffff168273ffffffffffffffffffffffffffffffffffffffff1614156118cb576040517f08c379a00000000000000000000000000000000000000000000000000000000081526004018080602001828103825260148152602001807f436f6e74726163747320696e6974616c6973656400000000000000000000000081525060200191505060405180910390fd5b81600260006101000a81548173ffffffffffffffffffffffffffffffffffffffff021916908373ffffffffffffffffffffffffffffffffffffffff160217905550611914610e53565b60019050919050565b6000806000806008600086815260200190815260200160002060000154600860008781526020019081526020016000206001015460086000888152602001908152602001600020600201546008600089815260200190815260200160002060030160009054906101000a900460ff1693509350935093509193509193565b600082821115611a13576040517f08c379a000000000000000000000000000000000000000000000000000000000815260040180806020018281038252601e8152602001807f536166654d6174683a207375627472616374696f6e206f766572666c6f77000081525060200191505060405180910390fd5b600082840390508091505092915050565b600080828401905083811015611aa2576040517f08c379a000000000000000000000000000000000000000000000000000000000815260040180806020018281038252601b8152602001807f536166654d6174683a206164646974696f6e206f766572666c6f77000000000081525060200191505060405180910390fd5b8091505092915050565b600080831415611abf5760009050611b2c565b6000828402905082848281611ad057fe5b0414611b27576040517f08c379a00000000000000000000000000000000000000000000000000000000081526004018080602001828103825260218152602001806122696021913960400191505060405180910390fd5b809150505b92915050565b6000808211611ba9576040517f08c379a000000000000000000000000000000000000000000000000000000000815260040180806020018281038252601a8152602001807f536166654d6174683a206469766973696f6e206279207a65726f00000000000081525060200191505060405180910390fd5b6000828481611bb457fe5b0490508091505092915050565b600080600080611bdc620151808781611bd657fe5b04611df5565b8093508194508295505050508482019150600c6001830381611bfa57fe5b04830192506001600c6001840381611c0e57fe5b060191506000611c1e8484611ec9565b905080821115611c2c578091505b620151808781611c3857fe5b0662015180611c48868686611f54565b0201945086851015611c5957600080fd5b5050505092915050565b611c7781600061206c90919063ffffffff16565b8073ffffffffffffffffffffffffffffffffffffffff167f0a8eb35e5ca14b3d6f28e4abf2f128dbab231a58b56e89beb5d636115001e16560405160405180910390a250565b611cd181600061212990919063ffffffff16565b8073ffffffffffffffffffffffffffffffffffffffff167f22380c05984257a1cb900161c713dd71d39e74820f1aea43bd3f1bdd2096129960405160405180910390a250565b60008073ffffffffffffffffffffffffffffffffffffffff168273ffffffffffffffffffffffffffffffffffffffff161415611d9e576040517f08c379a000000000000000000000000000000000000000000000000000000000815260040180806020018281038252602281526020018061228a6022913960400191505060405180910390fd5b8260000160008373ffffffffffffffffffffffffffffffffffffffff1673ffffffffffffffffffffffffffffffffffffffff16815260200190815260200160002060009054906101000a900460ff16905092915050565b600080600080849050600062253d8c62010bd98301019050600062023ab18260040281611e1e57fe5b059050600460038262023ab1020181611e3357fe5b0582039150600062164b0960018401610fa00281611e4d57fe5b059050601f6004826105b50281611e6057fe5b058403019250600061098f8460500281611e7657fe5b059050600060508261098f0281611e8957fe5b0585039050600b8281611e9857fe5b05945084600c0260028301039150848360318603606402010192508298508197508096505050505050509193909250565b60006001821480611eda5750600382145b80611ee55750600582145b80611ef05750600782145b80611efb5750600882145b80611f065750600a82145b80611f115750600c82145b15611f1f57601f9050611f4e565b60028214611f3057601e9050611f4d565b611f3983612204565b611f4457601c611f47565b601d5b60ff1690505b5b92915050565b60006107b2841015611fce576040517f08c379a000000000000000000000000000000000000000000000000000000000815260040180806020018281038252600b8152602001807f45706f6368206572726f7200000000000000000000000000000000000000000081525060200191505060405180910390fd5b600084905060008490506000849050600062253d8c60046064600c600e870381611ff457fe5b056113248801018161200257fe5b056003028161200d57fe5b05600c80600c600e88038161201e57fe5b0502600287030361016f028161203057fe5b056004600c600e88038161204057fe5b056112c08901016105b5028161205257fe5b05617d4b8603010103039050809450505050509392505050565b6120768282611d17565b6120cb576040517f08c379a00000000000000000000000000000000000000000000000000000000081526004018080602001828103825260218152602001806122486021913960400191505060405180910390fd5b60008260000160008373ffffffffffffffffffffffffffffffffffffffff1673ffffffffffffffffffffffffffffffffffffffff16815260200190815260200160002060006101000a81548160ff0219169083151502179055505050565b6121338282611d17565b156121a6576040517f08c379a000000000000000000000000000000000000000000000000000000000815260040180806020018281038252601f8152602001807f526f6c65733a206163636f756e7420616c72656164792068617320726f6c650081525060200191505060405180910390fd5b60018260000160008373ffffffffffffffffffffffffffffffffffffffff1673ffffffffffffffffffffffffffffffffffffffff16815260200190815260200160002060006101000a81548160ff0219169083151502179055505050565b6000806004838161221157fe5b0614801561222a575060006064838161222657fe5b0614155b8061224057506000610190838161223d57fe5b06145b905091905056fe526f6c65733a206163636f756e7420646f6573206e6f74206861766520726f6c65536166654d6174683a206d756c7469706c69636174696f6e206f766572666c6f77526f6c65733a206163636f756e7420697320746865207a65726f206164647265737357686974656c69737441646d696e526f6c653a2063616c6c657220646f6573206e6f742068617665207468652057686974656c69737441646d696e20726f6c65a265627a7a723058209f1cf3afc27cbd7ceb4b5fb633a9f04be85c135dcb7acfc075b7c6cf0df061b364736f6c634300050a0032536166654d6174683a206d756c7469706c69636174696f6e206f766572666c6f77526f6c65733a206163636f756e7420697320746865207a65726f206164647265737357686974656c69737441646d696e526f6c653a2063616c6c657220646f6573206e6f742068617665207468652057686974656c69737441646d696e20726f6c65608060405260016000806101000a81548160ff021916908315150217905550601260055534801561002f57600080fd5b506040516129013803806129018339818101604052608081101561005257600080fd5b81019080805190602001909291908051906020019092919080519060200190929190805190602001909291905050508360018190555082600060016101000a81548173ffffffffffffffffffffffffffffffffffffffff021916908373ffffffffffffffffffffffffffffffffffffffff16021790555081600260006101000a81548173ffffffffffffffffffffffffffffffffffffffff021916908373ffffffffffffffffffffffffffffffffffffffff16021790555080600360006101000a81548173ffffffffffffffffffffffffffffffffffffffff021916908373ffffffffffffffffffffffffffffffffffffffff160217905550505050506127a38061015e6000396000f3fe608060405234801561001057600080fd5b50600436106101165760003560e01c806370a08231116100a2578063c544682b11610071578063c544682b14610493578063cd89019d146104d5578063db9c0c21146104f7578063dd62ed3e14610539578063eb767f0c146105b157610116565b806370a082311461037557806396365d44146103cd578063a9059cbb146103eb578063b9d367431461045157610116565b80632e1a7d4d116100e95780632e1a7d4d14610247578063313ce5671461028d57806340c10f19146102ab57806342966c68146103115780635aea1bb41461035757610116565b806302fb0c5e1461011b578063095ea7b31461013d57806318160ddd146101a357806323b872dd146101c1575b600080fd5b6101236105f3565b604051808215151515815260200191505060405180910390f35b6101896004803603604081101561015357600080fd5b81019080803573ffffffffffffffffffffffffffffffffffffffff16906020019092919080359060200190929190505050610609565b604051808215151515815260200191505060405180910390f35b6101ab6106fb565b6040518082815260200191505060405180910390f35b61022d600480360360608110156101d757600080fd5b81019080803573ffffffffffffffffffffffffffffffffffffffff169060200190929190803573ffffffffffffffffffffffffffffffffffffffff16906020019092919080359060200190929190505050610705565b604051808215151515815260200191505060405180910390f35b6102736004803603602081101561025d57600080fd5b8101908080359060200190929190505050610bfa565b604051808215151515815260200191505060405180910390f35b610295611098565b6040518082815260200191505060405180910390f35b6102f7600480360360408110156102c157600080fd5b81019080803573ffffffffffffffffffffffffffffffffffffffff169060200190929190803590602001909291905050506110a2565b604051808215151515815260200191505060405180910390f35b61033d6004803603602081101561032757600080fd5b81019080803590602001909291905050506116c9565b604051808215151515815260200191505060405180910390f35b61035f611a84565b6040518082815260200191505060405180910390f35b6103b76004803603602081101561038b57600080fd5b81019080803573ffffffffffffffffffffffffffffffffffffffff169060200190929190505050611a8e565b6040518082815260200191505060405180910390f35b6103d5611ad7565b6040518082815260200191505060405180910390f35b6104376004803603604081101561040157600080fd5b81019080803573ffffffffffffffffffffffffffffffffffffffff16906020019092919080359060200190929190505050611bb8565b604051808215151515815260200191505060405180910390f35b61047d6004803603602081101561046757600080fd5b8101908080359060200190929190505050611eab565b6040518082815260200191505060405180910390f35b6104bf600480360360208110156104a957600080fd5b8101908080359060200190929190505050612006565b6040518082815260200191505060405180910390f35b6104dd61211c565b604051808215151515815260200191505060405180910390f35b6105236004803603602081101561050d57600080fd5b81019080803590602001909291905050506122ae565b6040518082815260200191505060405180910390f35b61059b6004803603604081101561054f57600080fd5b81019080803573ffffffffffffffffffffffffffffffffffffffff169060200190929190803573ffffffffffffffffffffffffffffffffffffffff1690602001909291905050506122f0565b6040518082815260200191505060405180910390f35b6105dd600480360360208110156105c757600080fd5b8101908080359060200190929190505050612377565b6040518082815260200191505060405180910390f35b60008060009054906101000a900460ff16905090565b600081600660003373ffffffffffffffffffffffffffffffffffffffff1673ffffffffffffffffffffffffffffffffffffffff16815260200190815260200160002060008573ffffffffffffffffffffffffffffffffffffffff1673ffffffffffffffffffffffffffffffffffffffff168152602001908152602001600020819055508273ffffffffffffffffffffffffffffffffffffffff163373ffffffffffffffffffffffffffffffffffffffff167f8c5be1e5ebec7d5bd14f71427d1e84f3dd0314c0f7b2291e5b200ac8c7c3b925846040518082815260200191505060405180910390a36001905092915050565b6000600454905090565b6000600760008573ffffffffffffffffffffffffffffffffffffffff1673ffffffffffffffffffffffffffffffffffffffff168152602001908152602001600020548211156107bc576040517f08c379a00000000000000000000000000000000000000000000000000000000081526004018080602001828103825260208152602001807f52657175657374656420616d6f756e7420657863656564732062616c616e636581525060200191505060405180910390fd5b600660008573ffffffffffffffffffffffffffffffffffffffff1673ffffffffffffffffffffffffffffffffffffffff16815260200190815260200160002060003373ffffffffffffffffffffffffffffffffffffffff1673ffffffffffffffffffffffffffffffffffffffff168152602001908152602001600020548211156108ae576040517f08c379a00000000000000000000000000000000000000000000000000000000081526004018080602001828103825260128152602001807f416c6c6f77616e6365206578636565646564000000000000000000000000000081525060200191505060405180910390fd5b600073ffffffffffffffffffffffffffffffffffffffff168373ffffffffffffffffffffffffffffffffffffffff161415610951576040517f08c379a00000000000000000000000000000000000000000000000000000000081526004018080602001828103825260168152602001807f546172676574206163636f756e7420696e76616c69640000000000000000000081525060200191505060405180910390fd5b6109a382600760008773ffffffffffffffffffffffffffffffffffffffff1673ffffffffffffffffffffffffffffffffffffffff168152602001908152602001600020546123b990919063ffffffff16565b600760008673ffffffffffffffffffffffffffffffffffffffff1673ffffffffffffffffffffffffffffffffffffffff16815260200190815260200160002081905550610a3882600760008673ffffffffffffffffffffffffffffffffffffffff1673ffffffffffffffffffffffffffffffffffffffff1681526020019081526020016000205461244290919063ffffffff16565b600760008573ffffffffffffffffffffffffffffffffffffffff1673ffffffffffffffffffffffffffffffffffffffff16815260200190815260200160002081905550610b0a82600660008773ffffffffffffffffffffffffffffffffffffffff1673ffffffffffffffffffffffffffffffffffffffff16815260200190815260200160002060003373ffffffffffffffffffffffffffffffffffffffff1673ffffffffffffffffffffffffffffffffffffffff168152602001908152602001600020546123b990919063ffffffff16565b600660008673ffffffffffffffffffffffffffffffffffffffff1673ffffffffffffffffffffffffffffffffffffffff16815260200190815260200160002060003373ffffffffffffffffffffffffffffffffffffffff1673ffffffffffffffffffffffffffffffffffffffff168152602001908152602001600020819055508273ffffffffffffffffffffffffffffffffffffffff168473ffffffffffffffffffffffffffffffffffffffff167fddf252ad1be2c89b69c2b068fc378daa952ba7f163c4a11628f55a4df523b3ef846040518082815260200191505060405180910390a3600190509392505050565b60008015156000809054906101000a900460ff16151514610c83576040517f08c379a00000000000000000000000000000000000000000000000000000000081526004018080602001828103825260148152602001807f4d61726b6574206e6f742066696e616c6973656400000000000000000000000081525060200191505060405180910390fd5b600760003373ffffffffffffffffffffffffffffffffffffffff1673ffffffffffffffffffffffffffffffffffffffff16815260200190815260200160002054821115610d38576040517f08c379a00000000000000000000000000000000000000000000000000000000081526004018080602001828103825260128152602001807f496e73756666696369656e742066756e6473000000000000000000000000000081525060200191505060405180910390fd5b610d8a82600760003373ffffffffffffffffffffffffffffffffffffffff1673ffffffffffffffffffffffffffffffffffffffff168152602001908152602001600020546123b990919063ffffffff16565b600760003373ffffffffffffffffffffffffffffffffffffffff1673ffffffffffffffffffffffffffffffffffffffff168152602001908152602001600020819055506000600360009054906101000a900473ffffffffffffffffffffffffffffffffffffffff1673ffffffffffffffffffffffffffffffffffffffff166370a08231306040518263ffffffff1660e01b8152600401808273ffffffffffffffffffffffffffffffffffffffff1673ffffffffffffffffffffffffffffffffffffffff16815260200191505060206040518083038186803b158015610e6e57600080fd5b505afa158015610e82573d6000803e3d6000fd5b505050506040513d6020811015610e9857600080fd5b810190808051906020019092919050505090506000610ed4600454610ec686856124ca90919063ffffffff16565b61255090919063ffffffff16565b9050600360009054906101000a900473ffffffffffffffffffffffffffffffffffffffff1673ffffffffffffffffffffffffffffffffffffffff1663a9059cbb33836040518363ffffffff1660e01b8152600401808373ffffffffffffffffffffffffffffffffffffffff1673ffffffffffffffffffffffffffffffffffffffff16815260200182815260200192505050602060405180830381600087803b158015610f7f57600080fd5b505af1158015610f93573d6000803e3d6000fd5b505050506040513d6020811015610fa957600080fd5b810190808051906020019092919050505061102c576040517f08c379a00000000000000000000000000000000000000000000000000000000081526004018080602001828103825260138152602001807f446169207472616e73666572206661696c65640000000000000000000000000081525060200191505060405180910390fd5b3373ffffffffffffffffffffffffffffffffffffffff163073ffffffffffffffffffffffffffffffffffffffff167fddf252ad1be2c89b69c2b068fc378daa952ba7f163c4a11628f55a4df523b3ef866040518082815260200191505060405180910390a35050919050565b6000600554905090565b60008060009054906101000a900460ff16611125576040517f08c379a000000000000000000000000000000000000000000000000000000000815260040180806020018281038252600f8152602001807f4d61726b657420696e616374697665000000000000000000000000000000000081525060200191505060405180910390fd5b600061113083611eab565b9050600081116111a8576040517f08c379a00000000000000000000000000000000000000000000000000000000081526004018080602001828103825260188152602001807f546f6b656e732072657175657374656420746f6f206c6f77000000000000000081525060200191505060405180910390fd5b60006064905060006111fc6111ed6111cb6001548561244290919063ffffffff16565b6111df6064876124ca90919063ffffffff16565b61255090919063ffffffff16565b846123b990919063ffffffff16565b9050600360009054906101000a900473ffffffffffffffffffffffffffffffffffffffff1673ffffffffffffffffffffffffffffffffffffffff166323b872dd3330866040518463ffffffff1660e01b8152600401808473ffffffffffffffffffffffffffffffffffffffff1673ffffffffffffffffffffffffffffffffffffffff1681526020018373ffffffffffffffffffffffffffffffffffffffff1673ffffffffffffffffffffffffffffffffffffffff1681526020018281526020019350505050602060405180830381600087803b1580156112db57600080fd5b505af11580156112ef573d6000803e3d6000fd5b505050506040513d602081101561130557600080fd5b810190808051906020019092919050505050600360009054906101000a900473ffffffffffffffffffffffffffffffffffffffff1673ffffffffffffffffffffffffffffffffffffffff1663a9059cbb600060019054906101000a900473ffffffffffffffffffffffffffffffffffffffff16836040518363ffffffff1660e01b8152600401808373ffffffffffffffffffffffffffffffffffffffff1673ffffffffffffffffffffffffffffffffffffffff16815260200182815260200192505050602060405180830381600087803b1580156113e257600080fd5b505af11580156113f6573d6000803e3d6000fd5b505050506040513d602081101561140c57600080fd5b810190808051906020019092919050505061148f576040517f08c379a00000000000000000000000000000000000000000000000000000000081526004018080602001828103825260198152602001807f5661756c7420746178206e6f74207472616e736665727265640000000000000081525060200191505060405180910390fd5b6114a48560045461244290919063ffffffff16565b6004819055506114fc85600760003373ffffffffffffffffffffffffffffffffffffffff1673ffffffffffffffffffffffffffffffffffffffff1681526020019081526020016000205461244290919063ffffffff16565b600760003373ffffffffffffffffffffffffffffffffffffffff1673ffffffffffffffffffffffffffffffffffffffff16815260200190815260200160002081905550600060019054906101000a900473ffffffffffffffffffffffffffffffffffffffff1673ffffffffffffffffffffffffffffffffffffffff166333545eee6040518163ffffffff1660e01b8152600401602060405180830381600087803b1580156115a957600080fd5b505af11580156115bd573d6000803e3d6000fd5b505050506040513d60208110156115d357600080fd5b8101908080519060200190929190505050611656576040517f08c379a00000000000000000000000000000000000000000000000000000000081526004018080602001828103825260198152602001807f46756e64696e672076616c69646174696f6e206661696c65640000000000000081525060200191505060405180910390fd5b8573ffffffffffffffffffffffffffffffffffffffff16600073ffffffffffffffffffffffffffffffffffffffff167fddf252ad1be2c89b69c2b068fc378daa952ba7f163c4a11628f55a4df523b3ef876040518082815260200191505060405180910390a36001935050505092915050565b60008060009054906101000a900460ff1661174c576040517f08c379a000000000000000000000000000000000000000000000000000000000815260040180806020018281038252600f8152602001807f4d61726b657420696e616374697665000000000000000000000000000000000081525060200191505060405180910390fd5b81600760003373ffffffffffffffffffffffffffffffffffffffff1673ffffffffffffffffffffffffffffffffffffffff168152602001908152602001600020541015611801576040517f08c379a000000000000000000000000000000000000000000000000000000000815260040180806020018281038252601b8152602001807f4e6f7420656e6f75676820746f6b656e7320617661696c61626c65000000000081525060200191505060405180910390fd5b600061180c83612006565b9050611823836004546123b990919063ffffffff16565b60048190555061187b83600760003373ffffffffffffffffffffffffffffffffffffffff1673ffffffffffffffffffffffffffffffffffffffff168152602001908152602001600020546123b990919063ffffffff16565b600760003373ffffffffffffffffffffffffffffffffffffffff1673ffffffffffffffffffffffffffffffffffffffff16815260200190815260200160002081905550600360009054906101000a900473ffffffffffffffffffffffffffffffffffffffff1673ffffffffffffffffffffffffffffffffffffffff1663a9059cbb33836040518363ffffffff1660e01b8152600401808373ffffffffffffffffffffffffffffffffffffffff1673ffffffffffffffffffffffffffffffffffffffff16815260200182815260200192505050602060405180830381600087803b15801561196757600080fd5b505af115801561197b573d6000803e3d6000fd5b505050506040513d602081101561199157600080fd5b8101908080519060200190929190505050611a14576040517f08c379a000000000000000000000000000000000000000000000000000000000815260040180806020018281038252600f8152602001807f546f6b656e73206e6f742073656e74000000000000000000000000000000000081525060200191505060405180910390fd5b600073ffffffffffffffffffffffffffffffffffffffff163373ffffffffffffffffffffffffffffffffffffffff167fddf252ad1be2c89b69c2b068fc378daa952ba7f163c4a11628f55a4df523b3ef856040518082815260200191505060405180910390a36001915050919050565b6000600154905090565b6000600760008373ffffffffffffffffffffffffffffffffffffffff1673ffffffffffffffffffffffffffffffffffffffff168152602001908152602001600020549050919050565b6000600360009054906101000a900473ffffffffffffffffffffffffffffffffffffffff1673ffffffffffffffffffffffffffffffffffffffff166370a08231306040518263ffffffff1660e01b8152600401808273ffffffffffffffffffffffffffffffffffffffff1673ffffffffffffffffffffffffffffffffffffffff16815260200191505060206040518083038186803b158015611b7857600080fd5b505afa158015611b8c573d6000803e3d6000fd5b505050506040513d6020811015611ba257600080fd5b8101908080519060200190929190505050905090565b6000600760003373ffffffffffffffffffffffffffffffffffffffff1673ffffffffffffffffffffffffffffffffffffffff16815260200190815260200160002054821115611c6f576040517f08c379a00000000000000000000000000000000000000000000000000000000081526004018080602001828103825260128152602001807f496e73756666696369656e742066756e6473000000000000000000000000000081525060200191505060405180910390fd5b600073ffffffffffffffffffffffffffffffffffffffff168373ffffffffffffffffffffffffffffffffffffffff161415611d12576040517f08c379a00000000000000000000000000000000000000000000000000000000081526004018080602001828103825260168152602001807f546172676574206163636f756e7420696e76616c69640000000000000000000081525060200191505060405180910390fd5b611d6482600760003373ffffffffffffffffffffffffffffffffffffffff1673ffffffffffffffffffffffffffffffffffffffff168152602001908152602001600020546123b990919063ffffffff16565b600760003373ffffffffffffffffffffffffffffffffffffffff1673ffffffffffffffffffffffffffffffffffffffff16815260200190815260200160002081905550611df982600760008673ffffffffffffffffffffffffffffffffffffffff1673ffffffffffffffffffffffffffffffffffffffff1681526020019081526020016000205461244290919063ffffffff16565b600760008573ffffffffffffffffffffffffffffffffffffffff1673ffffffffffffffffffffffffffffffffffffffff168152602001908152602001600020819055508273ffffffffffffffffffffffffffffffffffffffff163373ffffffffffffffffffffffffffffffffffffffff167fddf252ad1be2c89b69c2b068fc378daa952ba7f163c4a11628f55a4df523b3ef846040518082815260200191505060405180910390a36001905092915050565b600080600360009054906101000a900473ffffffffffffffffffffffffffffffffffffffff1673ffffffffffffffffffffffffffffffffffffffff166370a08231306040518263ffffffff1660e01b8152600401808273ffffffffffffffffffffffffffffffffffffffff1673ffffffffffffffffffffffffffffffffffffffff16815260200191505060206040518083038186803b158015611f4d57600080fd5b505afa158015611f61573d6000803e3d6000fd5b505050506040513d6020811015611f7757600080fd5b810190808051906020019092919050505090506000611fbb82611fad611fa88760045461244290919063ffffffff16565b6125df565b6123b990919063ffffffff16565b90506000611fe76064611fd9600154856124ca90919063ffffffff16565b61255090919063ffffffff16565b9050611ffc818361244290919063ffffffff16565b9350505050919050565b600080600360009054906101000a900473ffffffffffffffffffffffffffffffffffffffff1673ffffffffffffffffffffffffffffffffffffffff166370a08231306040518263ffffffff1660e01b8152600401808273ffffffffffffffffffffffffffffffffffffffff1673ffffffffffffffffffffffffffffffffffffffff16815260200191505060206040518083038186803b1580156120a857600080fd5b505afa1580156120bc573d6000803e3d6000fd5b505050506040513d60208110156120d257600080fd5b81019080805190602001909291905050509050612114612105612100856004546123b990919063ffffffff16565b6125df565b826123b990919063ffffffff16565b915050919050565b60008060019054906101000a900473ffffffffffffffffffffffffffffffffffffffff1673ffffffffffffffffffffffffffffffffffffffff163373ffffffffffffffffffffffffffffffffffffffff16146121e0576040517f08c379a00000000000000000000000000000000000000000000000000000000081526004018080602001828103825260118152602001807f496e76616c696420726571756573746f7200000000000000000000000000000081525060200191505060405180910390fd5b6000809054906101000a900460ff16612261576040517f08c379a00000000000000000000000000000000000000000000000000000000081526004018080602001828103825260128152602001807f4d61726b6574206465616374697661746564000000000000000000000000000081525060200191505060405180910390fd5b60008060006101000a81548160ff0219169083151502179055507f66a42cbcfa32eefc570a4d86de8ad4da16de318667980b246524534806d022e260405160405180910390a16001905090565b60006122e96122d86122d3846122c56004546125df565b6123b990919063ffffffff16565b612696565b6004546123b990919063ffffffff16565b9050919050565b6000600660008473ffffffffffffffffffffffffffffffffffffffff1673ffffffffffffffffffffffffffffffffffffffff16815260200190815260200160002060008373ffffffffffffffffffffffffffffffffffffffff1673ffffffffffffffffffffffffffffffffffffffff16815260200190815260200160002054905092915050565b60006123b26004546123a461239f856123916004546125df565b61244290919063ffffffff16565b612696565b6123b990919063ffffffff16565b9050919050565b600082821115612431576040517f08c379a000000000000000000000000000000000000000000000000000000000815260040180806020018281038252601e8152602001807f536166654d6174683a207375627472616374696f6e206f766572666c6f77000081525060200191505060405180910390fd5b600082840390508091505092915050565b6000808284019050838110156124c0576040517f08c379a000000000000000000000000000000000000000000000000000000000815260040180806020018281038252601b8152602001807f536166654d6174683a206164646974696f6e206f766572666c6f77000000000081525060200191505060405180910390fd5b8091505092915050565b6000808314156124dd576000905061254a565b60008284029050828482816124ee57fe5b0414612545576040517f08c379a000000000000000000000000000000000000000000000000000000000815260040180806020018281038252602181526020018061274e6021913960400191505060405180910390fd5b809150505b92915050565b60008082116125c7576040517f08c379a000000000000000000000000000000000000000000000000000000000815260040180806020018281038252601a8152602001807f536166654d6174683a206469766973696f6e206279207a65726f00000000000081525060200191505060405180910390fd5b60008284816125d257fe5b0490508091505092915050565b6000600260009054906101000a900473ffffffffffffffffffffffffffffffffffffffff1673ffffffffffffffffffffffffffffffffffffffff16633fd2300d836040518263ffffffff1660e01b81526004018082815260200191505060206040518083038186803b15801561265457600080fd5b505afa158015612668573d6000803e3d6000fd5b505050506040513d602081101561267e57600080fd5b81019080805190602001909291905050509050919050565b6000600260009054906101000a900473ffffffffffffffffffffffffffffffffffffffff1673ffffffffffffffffffffffffffffffffffffffff1663d0ef837a836040518263ffffffff1660e01b81526004018082815260200191505060206040518083038186803b15801561270b57600080fd5b505afa15801561271f573d6000803e3d6000fd5b505050506040513d602081101561273557600080fd5b8101908080519060200190929190505050905091905056fe536166654d6174683a206d756c7469706c69636174696f6e206f766572666c6f77a265627a7a72305820dd9d98a2672525befc3ab7e272a05238cb2291e2542253ba6518f362fcd59f8764736f6c634300050a0032526f6c65733a206163636f756e7420646f6573206e6f74206861766520726f6c65526f6c65733a206163636f756e7420697320746865207a65726f206164647265737357686974656c69737441646d696e526f6c653a2063616c6c657220646f6573206e6f742068617665207468652057686974656c69737441646d696e20726f6c65a265627a7a72305820c7f065daa663f91800dad7b8f40b904fe650ef2d497f66127fa7e3b8a197c04864736f6c634300050a0032526f6c65733a206163636f756e7420697320746865207a65726f2061646472657373",
  "source": "pragma solidity 0.5.10;\n\nimport { Market } from \"./Market.sol\";\nimport { IMarketFactory } from \"./IMarketFactory.sol\";\nimport { Vault } from \"../vault/Vault.sol\";\nimport { WhitelistAdminRole } from \"openzeppelin-solidity/contracts/access/roles/WhitelistAdminRole.sol\";\nimport { IMarketRegistry } from \"../marketRegistry/IMarketRegistry.sol\";\nimport { ICurveRegistry } from \"../curveRegistry/ICurveRegistry.sol\";\n\ncontract MarketFactory is IMarketFactory, WhitelistAdminRole {\n    //The molecule vault for molecule tax\n    address internal moleculeVault_;\n    //The registry of all created markets\n    IMarketRegistry internal marketRegistry_;\n    //The registry of all curve types\n    ICurveRegistry internal curveRegistry_;\n    //The ERC20 collateral token contract address\n    address internal collateralToken_;\n\n    /**\n      * @author Veronica @veronicaLC\n      * @dev Sets variables for market deployments. Molecule tax cannot\n      *         be smaller than 0 (1-99).\n      * @param _collateralToken Address of the ERC20 collateral token\n      * @param _moleculeVault   The address of the molecule tax vault\n      * @param _marketRegistry  Address of the registry of all markets\n      * @param _curveRegistry   Address of the registry of all curve types\n      *                         funding rounds\n      */\n    constructor(\n        address _collateralToken,\n        address _moleculeVault,\n        address _marketRegistry,\n        address _curveRegistry\n    )\n        WhitelistAdminRole()\n        public\n    {\n        curveRegistry_ = ICurveRegistry(_curveRegistry);\n        collateralToken_ = _collateralToken;\n        marketRegistry_ = IMarketRegistry(_marketRegistry);\n        moleculeVault_ = _moleculeVault;\n    }\n\n    /**\n      * @author Veronica - @veronicalc\n      * @dev    This function allows for the creation of a\n      *         new market, consisting of a curve and vault\n      * @notice Vyper cannot handle arrays of unknown length,\n      *         and thus the funding goals and durations will\n      *         only be stored in the vault, which is Solidity.\n      * @param _fundingGoals This is the amount wanting to be\n      *             raised in each round, in collateral.\n      * @param _phaseDurations The time for each round in\n      *             number of blocks.\n      * @param _creator Address of the researcher.\n      * @param _curveType Curve selected\n      * @param _taxationRate The pecentage of taxation. e.g: 60\n      */\n    function deployMarket(\n        uint256[] calldata _fundingGoals,\n        uint256[] calldata _phaseDurations,\n        address _creator,\n        uint256 _curveType,\n        uint256 _taxationRate\n    )\n        external\n        onlyWhitelistAdmin()\n    {\n        (address curveLibrary,, bool curveState) = curveRegistry_.getCurveData(_curveType);\n\n        require(_taxationRate > 0, \"Taxation rate too low\");\n        require(_taxationRate < 100, \"Taxation rate too high\");\n\n        require(curveState == true, \"Curve inactive\");\n        require(curveLibrary != address(0), \"Curve library invalid\");\n        \n        address newVault = address(new Vault(\n            _fundingGoals,\n            _phaseDurations,\n            _creator,\n            collateralToken_,\n            moleculeVault_\n        ));\n\n        address newMarket = address(new Market(\n            _taxationRate,\n            newVault,\n            curveLibrary,\n            collateralToken_\n        ));\n\n        require(Vault(newVault).initialize(newMarket), \"Vault not initialised\");\n        marketRegistry_.registerMarket(newMarket, newVault, _creator);\n    }\n\n    /**\n      * @notice This function will only affect new markets, and will not update\n      *         already created markets.\n      */\n    function updateMoleculeVault(address _newMoleculeVault) public onlyWhitelistAdmin() {\n        moleculeVault_ = _newMoleculeVault;\n    }\n\n    function moleculeVault() public view returns(address) {\n        return moleculeVault_;\n    }\n\n    function marketRegistry() public view returns(address) {\n        return address(marketRegistry_);\n    }\n\n    function curveRegistry() public view returns(address) {\n        return address(curveRegistry_);\n    }\n\n    function collateralToken() public view returns(address) {\n        return collateralToken_;\n    }\n}\n",
  "sourcePath": "temp/market/MarketFactory.sol",
  "compiler": {
    "name": "solc",
    "version": "0.5.10+commit.5a6ea5b1.Emscripten.clang",
    "optimizer": false,
    "runs": 200
  },
  "schemaVersion": "2.2.0",
  "updatedAt": "2019-08-28T10:00:02.545Z"
}