{
  "contractName": "MarketRegistry",
  "abi": [
    {
      "constant": false,
      "inputs": [],
      "name": "renounceWhitelistAdmin",
      "outputs": [],
      "payable": false,
      "stateMutability": "nonpayable",
      "type": "function"
    },
    {
      "constant": false,
      "inputs": [
        {
          "name": "account",
          "type": "address"
        }
      ],
      "name": "addWhitelistAdmin",
      "outputs": [],
      "payable": false,
      "stateMutability": "nonpayable",
      "type": "function"
    },
    {
      "constant": true,
      "inputs": [
        {
          "name": "account",
          "type": "address"
        }
      ],
      "name": "isWhitelistAdmin",
      "outputs": [
        {
          "name": "",
          "type": "bool"
        }
      ],
      "payable": false,
      "stateMutability": "view",
      "type": "function"
    },
    {
      "inputs": [],
      "payable": false,
      "stateMutability": "nonpayable",
      "type": "constructor"
    },
    {
      "anonymous": false,
      "inputs": [
        {
          "indexed": false,
          "name": "index",
          "type": "uint256"
        },
        {
          "indexed": true,
          "name": "marketAddress",
          "type": "address"
        },
        {
          "indexed": true,
          "name": "vault",
          "type": "address"
        },
        {
          "indexed": true,
          "name": "creator",
          "type": "address"
        }
      ],
      "name": "MarketCreated",
      "type": "event"
    },
    {
      "anonymous": false,
      "inputs": [
        {
          "indexed": false,
          "name": "deployer",
          "type": "address"
        },
        {
          "indexed": false,
          "name": "version",
          "type": "string"
        }
      ],
      "name": "DeployerAdded",
      "type": "event"
    },
    {
      "anonymous": false,
      "inputs": [
        {
          "indexed": false,
          "name": "deployer",
          "type": "address"
        },
        {
          "indexed": false,
          "name": "reason",
          "type": "string"
        }
      ],
      "name": "DeployerRemoved",
      "type": "event"
    },
    {
      "anonymous": false,
      "inputs": [
        {
          "indexed": true,
          "name": "account",
          "type": "address"
        }
      ],
      "name": "WhitelistAdminAdded",
      "type": "event"
    },
    {
      "anonymous": false,
      "inputs": [
        {
          "indexed": true,
          "name": "account",
          "type": "address"
        }
      ],
      "name": "WhitelistAdminRemoved",
      "type": "event"
    },
    {
      "constant": false,
      "inputs": [
        {
          "name": "_newDeployer",
          "type": "address"
        },
        {
          "name": "_version",
          "type": "string"
        }
      ],
      "name": "addMarketDeployer",
      "outputs": [],
      "payable": false,
      "stateMutability": "nonpayable",
      "type": "function"
    },
    {
      "constant": false,
      "inputs": [
        {
          "name": "_deployerToRemove",
          "type": "address"
        },
        {
          "name": "_reason",
          "type": "string"
        }
      ],
      "name": "removeMarketDeployer",
      "outputs": [],
      "payable": false,
      "stateMutability": "nonpayable",
      "type": "function"
    },
    {
      "constant": false,
      "inputs": [
        {
          "name": "_marketAddress",
          "type": "address"
        },
        {
          "name": "_vault",
          "type": "address"
        },
        {
          "name": "_creator",
          "type": "address"
        }
      ],
      "name": "registerMarket",
      "outputs": [
        {
          "name": "",
          "type": "uint256"
        }
      ],
      "payable": false,
      "stateMutability": "nonpayable",
      "type": "function"
    },
    {
      "constant": true,
      "inputs": [
        {
          "name": "_index",
          "type": "uint256"
        }
      ],
      "name": "getMarket",
      "outputs": [
        {
          "name": "",
          "type": "address"
        },
        {
          "name": "",
          "type": "address"
        },
        {
          "name": "",
          "type": "address"
        }
      ],
      "payable": false,
      "stateMutability": "view",
      "type": "function"
    },
    {
      "constant": true,
      "inputs": [],
      "name": "getIndex",
      "outputs": [
        {
          "name": "",
          "type": "uint256"
        }
      ],
      "payable": false,
      "stateMutability": "view",
      "type": "function"
    },
    {
      "constant": true,
      "inputs": [
        {
          "name": "_deployer",
          "type": "address"
        }
      ],
      "name": "isMarketDeployer",
      "outputs": [
        {
          "name": "",
          "type": "bool"
        }
      ],
      "payable": false,
      "stateMutability": "view",
      "type": "function"
    },
    {
      "constant": true,
      "inputs": [],
      "name": "publishedBlocknumber",
      "outputs": [
        {
          "name": "",
          "type": "uint256"
        }
      ],
      "payable": false,
      "stateMutability": "view",
      "type": "function"
    }
  ],
  "bytecode": "0x6080604052600060035534801561001557600080fd5b506100253361003160201b60201c565b4360048190555061024e565b61004981600061008f60201b610f181790919060201c565b8073ffffffffffffffffffffffffffffffffffffffff167f22380c05984257a1cb900161c713dd71d39e74820f1aea43bd3f1bdd2096129960405160405180910390a250565b61009f828261017060201b60201c565b15610112576040517f08c379a000000000000000000000000000000000000000000000000000000000815260040180806020018281038252601f8152602001807f526f6c65733a206163636f756e7420616c72656164792068617320726f6c650081525060200191505060405180910390fd5b60018260000160008373ffffffffffffffffffffffffffffffffffffffff1673ffffffffffffffffffffffffffffffffffffffff16815260200190815260200160002060006101000a81548160ff0219169083151502179055505050565b60008073ffffffffffffffffffffffffffffffffffffffff168273ffffffffffffffffffffffffffffffffffffffff1614156101f7576040517f08c379a00000000000000000000000000000000000000000000000000000000081526004018080602001828103825260228152602001806113086022913960400191505060405180910390fd5b8260000160008373ffffffffffffffffffffffffffffffffffffffff1673ffffffffffffffffffffffffffffffffffffffff16815260200190815260200160002060009054906101000a900460ff16905092915050565b6110ab8061025d6000396000f3fe608060405234801561001057600080fd5b506004361061009e5760003560e01c8063c6622d2311610066578063c6622d2314610204578063c7bc9e3014610260578063d2a42268146102f9578063df6b4bb714610391578063eb44fdd3146103af5761009e565b806331717ef3146100a35780634c5a628c1461013c5780637362d9c81461014657806381045ead1461018a578063bb5f747b146101a8575b600080fd5b61013a600480360360408110156100b957600080fd5b81019080803573ffffffffffffffffffffffffffffffffffffffff169060200190929190803590602001906401000000008111156100f657600080fd5b82018360208201111561010857600080fd5b8035906020019184600183028401116401000000008311171561012a57600080fd5b9091929391929390505050610483565b005b61014461069c565b005b6101886004803603602081101561015c57600080fd5b81019080803573ffffffffffffffffffffffffffffffffffffffff1690602001909291905050506106a7565b005b610192610711565b6040518082815260200191505060405180910390f35b6101ea600480360360208110156101be57600080fd5b81019080803573ffffffffffffffffffffffffffffffffffffffff16906020019092919050505061071b565b604051808215151515815260200191505060405180910390f35b6102466004803603602081101561021a57600080fd5b81019080803573ffffffffffffffffffffffffffffffffffffffff169060200190929190505050610738565b604051808215151515815260200191505060405180910390f35b6102f76004803603604081101561027657600080fd5b81019080803573ffffffffffffffffffffffffffffffffffffffff169060200190929190803590602001906401000000008111156102b357600080fd5b8201836020820111156102c557600080fd5b803590602001918460018302840111640100000000831117156102e757600080fd5b909192939192939050505061078e565b005b61037b6004803603606081101561030f57600080fd5b81019080803573ffffffffffffffffffffffffffffffffffffffff169060200190929190803573ffffffffffffffffffffffffffffffffffffffff169060200190929190803573ffffffffffffffffffffffffffffffffffffffff1690602001909291905050506109a7565b6040518082815260200191505060405180910390f35b610399610c08565b6040518082815260200191505060405180910390f35b6103db600480360360208110156103c557600080fd5b8101908080359060200190929190505050610c12565b604051808473ffffffffffffffffffffffffffffffffffffffff1673ffffffffffffffffffffffffffffffffffffffff1681526020018373ffffffffffffffffffffffffffffffffffffffff1673ffffffffffffffffffffffffffffffffffffffff1681526020018273ffffffffffffffffffffffffffffffffffffffff1673ffffffffffffffffffffffffffffffffffffffff168152602001935050505060405180910390f35b61048c3361071b565b6104e1576040517f08c379a00000000000000000000000000000000000000000000000000000000081526004018080602001828103825260408152602001806110376040913960400191505060405180910390fd5b60011515600260008573ffffffffffffffffffffffffffffffffffffffff1673ffffffffffffffffffffffffffffffffffffffff16815260200190815260200160002060009054906101000a900460ff16151514156105a8576040517f08c379a00000000000000000000000000000000000000000000000000000000081526004018080602001828103825260108152602001807f416c726561647920617070726f7665640000000000000000000000000000000081525060200191505060405180910390fd5b6001600260008573ffffffffffffffffffffffffffffffffffffffff1673ffffffffffffffffffffffffffffffffffffffff16815260200190815260200160002060006101000a81548160ff0219169083151502179055507fcc2765917e3afff500d8ead143bdbee3d614a301693c093aabe15ebe2014a9bd838383604051808473ffffffffffffffffffffffffffffffffffffffff1673ffffffffffffffffffffffffffffffffffffffff168152602001806020018281038252848482818152602001925080828437600081840152601f19601f82011690508083019250505094505050505060405180910390a1505050565b6106a533610cc9565b565b6106b03361071b565b610705576040517f08c379a00000000000000000000000000000000000000000000000000000000081526004018080602001828103825260408152602001806110376040913960400191505060405180910390fd5b61070e81610d23565b50565b6000600354905090565b6000610731826000610d7d90919063ffffffff16565b9050919050565b6000600260008373ffffffffffffffffffffffffffffffffffffffff1673ffffffffffffffffffffffffffffffffffffffff16815260200190815260200160002060009054906101000a900460ff169050919050565b6107973361071b565b6107ec576040517f08c379a00000000000000000000000000000000000000000000000000000000081526004018080602001828103825260408152602001806110376040913960400191505060405180910390fd5b60001515600260008573ffffffffffffffffffffffffffffffffffffffff1673ffffffffffffffffffffffffffffffffffffffff16815260200190815260200160002060009054906101000a900460ff16151514156108b3576040517f08c379a00000000000000000000000000000000000000000000000000000000081526004018080602001828103825260108152602001807f416c726561647920696e6163746976650000000000000000000000000000000081525060200191505060405180910390fd5b6000600260008573ffffffffffffffffffffffffffffffffffffffff1673ffffffffffffffffffffffffffffffffffffffff16815260200190815260200160002060006101000a81548160ff0219169083151502179055507fe5e0c598f53224319bd76423a66ff83de40143779c23dcaa369ae187f8ffabfc838383604051808473ffffffffffffffffffffffffffffffffffffffff1673ffffffffffffffffffffffffffffffffffffffff168152602001806020018281038252848482818152602001925080828437600081840152601f19601f82011690508083019250505094505050505060405180910390a1505050565b600060011515600260003373ffffffffffffffffffffffffffffffffffffffff1673ffffffffffffffffffffffffffffffffffffffff16815260200190815260200160002060009054906101000a900460ff16151514610a6f576040517f08c379a00000000000000000000000000000000000000000000000000000000081526004018080602001828103825260178152602001807f4465706c6f796572206e6f74207265676973746572656400000000000000000081525060200191505060405180910390fd5b60006003549050600160035401600381905550846001600083815260200190815260200160002060000160006101000a81548173ffffffffffffffffffffffffffffffffffffffff021916908373ffffffffffffffffffffffffffffffffffffffff160217905550836001600083815260200190815260200160002060010160006101000a81548173ffffffffffffffffffffffffffffffffffffffff021916908373ffffffffffffffffffffffffffffffffffffffff160217905550826001600083815260200190815260200160002060020160006101000a81548173ffffffffffffffffffffffffffffffffffffffff021916908373ffffffffffffffffffffffffffffffffffffffff1602179055508273ffffffffffffffffffffffffffffffffffffffff168473ffffffffffffffffffffffffffffffffffffffff168673ffffffffffffffffffffffffffffffffffffffff167fe4aa324a80899358fb4a460836947a422f4df85aa94d768c738806d61d9bc9a2846040518082815260200191505060405180910390a4809150509392505050565b6000600454905090565b60008060006001600085815260200190815260200160002060000160009054906101000a900473ffffffffffffffffffffffffffffffffffffffff166001600086815260200190815260200160002060010160009054906101000a900473ffffffffffffffffffffffffffffffffffffffff166001600087815260200190815260200160002060020160009054906101000a900473ffffffffffffffffffffffffffffffffffffffff169250925092509193909250565b610cdd816000610e5b90919063ffffffff16565b8073ffffffffffffffffffffffffffffffffffffffff167f0a8eb35e5ca14b3d6f28e4abf2f128dbab231a58b56e89beb5d636115001e16560405160405180910390a250565b610d37816000610f1890919063ffffffff16565b8073ffffffffffffffffffffffffffffffffffffffff167f22380c05984257a1cb900161c713dd71d39e74820f1aea43bd3f1bdd2096129960405160405180910390a250565b60008073ffffffffffffffffffffffffffffffffffffffff168273ffffffffffffffffffffffffffffffffffffffff161415610e04576040517f08c379a00000000000000000000000000000000000000000000000000000000081526004018080602001828103825260228152602001806110156022913960400191505060405180910390fd5b8260000160008373ffffffffffffffffffffffffffffffffffffffff1673ffffffffffffffffffffffffffffffffffffffff16815260200190815260200160002060009054906101000a900460ff16905092915050565b610e658282610d7d565b610eba576040517f08c379a0000000000000000000000000000000000000000000000000000000008152600401808060200182810382526021815260200180610ff46021913960400191505060405180910390fd5b60008260000160008373ffffffffffffffffffffffffffffffffffffffff1673ffffffffffffffffffffffffffffffffffffffff16815260200190815260200160002060006101000a81548160ff0219169083151502179055505050565b610f228282610d7d565b15610f95576040517f08c379a000000000000000000000000000000000000000000000000000000000815260040180806020018281038252601f8152602001807f526f6c65733a206163636f756e7420616c72656164792068617320726f6c650081525060200191505060405180910390fd5b60018260000160008373ffffffffffffffffffffffffffffffffffffffff1673ffffffffffffffffffffffffffffffffffffffff16815260200190815260200160002060006101000a81548160ff021916908315150217905550505056fe526f6c65733a206163636f756e7420646f6573206e6f74206861766520726f6c65526f6c65733a206163636f756e7420697320746865207a65726f206164647265737357686974656c69737441646d696e526f6c653a2063616c6c657220646f6573206e6f742068617665207468652057686974656c69737441646d696e20726f6c65a265627a7a72305820c770246a8ff696bf8a782ddda7fc27613e3c941572fb6eb9a6bf1036229815ef64736f6c634300050a0032526f6c65733a206163636f756e7420697320746865207a65726f2061646472657373",
  "source": "pragma solidity 0.5.10;\n\nimport { WhitelistAdminRole } from \"openzeppelin-solidity/contracts/access/roles/WhitelistAdminRole.sol\";\nimport { IMarketRegistry } from \"./IMarketRegistry.sol\";\n\ncontract MarketRegistry is IMarketRegistry, WhitelistAdminRole {\n    mapping(uint256 => Market) internal markets_;\n    mapping(address => bool) internal deployer_;\n\n    uint256 internal numberOfMarkets_ = 0;\n    uint256 internal publishedBlocknumber_;\n\n    struct Market {\n        address marketAddress;\n        address vault;\n        address creator;\n    }\n\n    event MarketCreated(uint256 index, address indexed marketAddress, address indexed vault, address indexed creator);\n    event DeployerAdded(address deployer, string version);\n    event DeployerRemoved(address deployer, string reason);\n\n    constructor() public WhitelistAdminRole(){\n        publishedBlocknumber_ = block.number;\n    }\n\n    modifier isRegisteredDeployer(){\n        require(deployer_[msg.sender] == true, \"Deployer not registered\");\n        _;\n    }\n\n    /// @dev                            Adds a new market deployer to the registry\n    /// @param _newDeployer             :address Address of the new market deployer\n    /// @param _version                 :string Log text for tracking purposes\n    /// @author Ryan\n    function addMarketDeployer(\n        address _newDeployer,\n        string calldata _version\n    )\n        external\n        onlyWhitelistAdmin()\n    {\n        require(deployer_[_newDeployer] != true, \"Already approved\");\n        deployer_[_newDeployer] = true;\n        emit DeployerAdded(_newDeployer, _version);\n    }\n\n    /// @dev                            Removes a market deployer from the registry\n    /// @param _deployerToRemove        :address Address of the market deployer to remove\n    /// @param _reason                  :string Log text for tracking purposes\n    /// @author Ryan\n    function removeMarketDeployer(\n        address _deployerToRemove, \n        string calldata _reason\n    ) \n        external \n        onlyWhitelistAdmin()\n    {\n        require(deployer_[_deployerToRemove] != false, \"Already inactive\");\n        deployer_[_deployerToRemove] = false;\n        emit DeployerRemoved(_deployerToRemove, _reason);\n    }\n\n    /// @dev                            Logs the market into the registery\n    /// @param _vault                   :address Address of the vault\n    /// @param _creator                 :address Creator of the market\n    /// @return uint256                 Returns the index of market for looking up\n    /// @author Ryan\n    function registerMarket(\n        address _marketAddress,\n        address _vault,\n        address _creator)\n        external\n        isRegisteredDeployer()\n        returns(uint256)\n    {\n        uint256 index = numberOfMarkets_;\n        numberOfMarkets_ = numberOfMarkets_ + 1;\n\n        markets_[index].marketAddress = _marketAddress;\n        markets_[index].vault = _vault;\n        markets_[index].creator = _creator;\n\n        emit MarketCreated(\n            index,\n            _marketAddress,\n            _vault,\n            _creator\n        );\n\n        return index;\n    }\n\n    /// Fetching market data\n    /// @param _index                   :uint256 Index of the market\n    /// @dev                            Fetches all data and contract addresses of deployed markets by index, kept as interface for later intergration\n    /// @return Market                  Returns a market struct matching the provided index\n    /// @author Ryan\n    function getMarket(uint256 _index)\n        external\n        view\n        returns(\n            address,\n            address,\n            address\n        )\n    {\n        return (\n            markets_[_index].marketAddress,\n            markets_[_index].vault,\n            markets_[_index].creator\n        );\n    }\n\n    /// @dev                            Fetchs the current number of markets infering maximum callable index\n    /// @return Index                   Returns the index of markets for looking up\n    /// @author Ryan\n    function getIndex()\n        external\n        view\n        returns(uint256)\n    {\n        return numberOfMarkets_;\n    }\n\n    /// @dev                            Used to check if the deployer is registered\n    /// @return bool                    A simple bool to indicate state\n    /// @author Ryan\n    function isMarketDeployer(address _deployer) external view returns(bool){\n        return deployer_[_deployer];\n    }\n\n    /// @dev                            In order to look up logs efficently, the published block is available\n    /// @return uint256                 The block when the contract was published\n    /// @author Ryan\n    function publishedBlocknumber() external view returns(uint256) {\n        return publishedBlocknumber_;\n    }\n}\n",
  "sourcePath": "/home/bscholtz/LinumLabs/workspace/molecule-alpha/Blockchain/contracts/marketRegistry/MarketRegistry.sol",
  "compiler": {
    "name": "solc",
    "version": "0.5.10+commit.5a6ea5b1.Emscripten.clang",
    "optimizer": false,
    "runs": 200
  },
  "schemaVersion": "2.2.0",
  "updatedAt": "2019-09-02T09:22:46.910Z"
}