{
  "contractName": "MarketFactory",
  "abi": [
    {
      "constant": false,
      "inputs": [],
      "name": "renounceWhitelistAdmin",
      "outputs": [],
      "payable": false,
      "stateMutability": "nonpayable",
      "type": "function"
    },
    {
      "constant": false,
      "inputs": [
        {
          "name": "account",
          "type": "address"
        }
      ],
      "name": "addWhitelistAdmin",
      "outputs": [],
      "payable": false,
      "stateMutability": "nonpayable",
      "type": "function"
    },
    {
      "constant": true,
      "inputs": [
        {
          "name": "account",
          "type": "address"
        }
      ],
      "name": "isWhitelistAdmin",
      "outputs": [
        {
          "name": "",
          "type": "bool"
        }
      ],
      "payable": false,
      "stateMutability": "view",
      "type": "function"
    },
    {
      "inputs": [
        {
          "name": "_collateralToken",
          "type": "address"
        },
        {
          "name": "_moleculeVault",
          "type": "address"
        },
        {
          "name": "_marketRegistry",
          "type": "address"
        },
        {
          "name": "_curveRegistry",
          "type": "address"
        }
      ],
      "payable": false,
      "stateMutability": "nonpayable",
      "type": "constructor"
    },
    {
      "anonymous": false,
      "inputs": [
        {
          "indexed": true,
          "name": "account",
          "type": "address"
        }
      ],
      "name": "WhitelistAdminAdded",
      "type": "event"
    },
    {
      "anonymous": false,
      "inputs": [
        {
          "indexed": true,
          "name": "account",
          "type": "address"
        }
      ],
      "name": "WhitelistAdminRemoved",
      "type": "event"
    },
    {
      "constant": false,
      "inputs": [
        {
          "name": "_fundingGoals",
          "type": "uint256[]"
        },
        {
          "name": "_phaseDurations",
          "type": "uint256[]"
        },
        {
          "name": "_creator",
          "type": "address"
        },
        {
          "name": "_curveType",
          "type": "uint256"
        },
        {
          "name": "_taxationRate",
          "type": "uint256"
        }
      ],
      "name": "deployMarket",
      "outputs": [],
      "payable": false,
      "stateMutability": "nonpayable",
      "type": "function"
    },
    {
      "constant": false,
      "inputs": [
        {
          "name": "_newMoleculeVault",
          "type": "address"
        }
      ],
      "name": "updateMoleculeVault",
      "outputs": [],
      "payable": false,
      "stateMutability": "nonpayable",
      "type": "function"
    },
    {
      "constant": true,
      "inputs": [],
      "name": "moleculeVault",
      "outputs": [
        {
          "name": "",
          "type": "address"
        }
      ],
      "payable": false,
      "stateMutability": "view",
      "type": "function"
    },
    {
      "constant": true,
      "inputs": [],
      "name": "marketRegistry",
      "outputs": [
        {
          "name": "",
          "type": "address"
        }
      ],
      "payable": false,
      "stateMutability": "view",
      "type": "function"
    },
    {
      "constant": true,
      "inputs": [],
      "name": "curveRegistry",
      "outputs": [
        {
          "name": "",
          "type": "address"
        }
      ],
      "payable": false,
      "stateMutability": "view",
      "type": "function"
    },
    {
      "constant": true,
      "inputs": [],
      "name": "collateralToken",
      "outputs": [
        {
          "name": "",
          "type": "address"
        }
      ],
      "payable": false,
      "stateMutability": "view",
      "type": "function"
    }
  ],
  "bytecode": "0x608060405234801561001057600080fd5b506040516144923803806144928339818101604052608081101561003357600080fd5b508051602082015160408301516060909301519192909161005c336001600160e01b036100ac16565b600380546001600160a01b03199081166001600160a01b03938416179091556004805482169583169590951790945560028054851692821692909217909155600180549093169116179055610220565b6100c48160006100fb60201b610a471790919060201c565b6040516001600160a01b038216907f22380c05984257a1cb900161c713dd71d39e74820f1aea43bd3f1bdd2096129990600090a250565b61010e82826001600160e01b0361019f16565b1561017a57604080517f08c379a000000000000000000000000000000000000000000000000000000000815260206004820152601f60248201527f526f6c65733a206163636f756e7420616c72656164792068617320726f6c6500604482015290519081900360640190fd5b6001600160a01b0316600090815260209190915260409020805460ff19166001179055565b60006001600160a01b038216610200576040517f08c379a00000000000000000000000000000000000000000000000000000000081526004018080602001828103825260228152602001806144706022913960400191505060405180910390fd5b506001600160a01b03166000908152602091909152604090205460ff1690565b6142418061022f6000396000f3fe60806040523480156200001157600080fd5b5060043610620000a05760003560e01c8063706abf13116200006f578063706abf13146200010a5780637362d9c814620001ea578063b2016bd41462000213578063bb5f747b146200021d578063ecb96fe6146200025a57620000a0565b806307ce446914620000a557806327c24a5d14620000cb5780634c5a628c14620000d55780635402e07f14620000e1575b600080fd5b620000af62000264565b604080516001600160a01b039092168252519081900360200190f35b620000af62000273565b620000df62000282565b005b620000df60048036036020811015620000f957600080fd5b50356001600160a01b03166200028f565b620000df600480360360a08110156200012257600080fd5b8101906020810181356401000000008111156200013e57600080fd5b8201836020820111156200015157600080fd5b803590602001918460208302840111640100000000831117156200017457600080fd5b9193909290916020810190356401000000008111156200019357600080fd5b820183602082011115620001a657600080fd5b80359060200191846020830284011164010000000083111715620001c957600080fd5b91935091506001600160a01b03813516906020810135906040013562000306565b620000df600480360360208110156200020257600080fd5b50356001600160a01b031662000851565b620000af620008a7565b62000246600480360360208110156200023557600080fd5b50356001600160a01b0316620008b6565b604080519115158252519081900360200190f35b620000af620008d0565b6001546001600160a01b031690565b6003546001600160a01b031690565b6200028d33620008df565b565b6200029a33620008b6565b620002d75760405162461bcd60e51b8152600401808060200182810382526040815260200180620041cd6040913960400191505060405180910390fd5b6001805473ffffffffffffffffffffffffffffffffffffffff19166001600160a01b0392909216919091179055565b6200031133620008b6565b6200034e5760405162461bcd60e51b8152600401808060200182810382526040815260200180620041cd6040913960400191505060405180910390fd5b60035460408051636256e8bf60e01b815260048101859052905160009283926001600160a01b0390911691636256e8bf916024808201928692909190829003018186803b1580156200039f57600080fd5b505afa158015620003b4573d6000803e3d6000fd5b505050506040513d6000823e601f3d908101601f191682016040526060811015620003de57600080fd5b8151602083018051919392830192916401000000008111156200040057600080fd5b820160208101848111156200041457600080fd5b81516401000000008111828201871017156200042f57600080fd5b5050506020015192945091925050508262000491576040805162461bcd60e51b815260206004820152601560248201527f5461786174696f6e207261746520746f6f206c6f770000000000000000000000604482015290519081900360640190fd5b60648310620004e7576040805162461bcd60e51b815260206004820152601660248201527f5461786174696f6e207261746520746f6f206869676800000000000000000000604482015290519081900360640190fd5b6001811515146200053f576040805162461bcd60e51b815260206004820152600e60248201527f437572766520696e616374697665000000000000000000000000000000000000604482015290519081900360640190fd5b6001600160a01b0382166200059b576040805162461bcd60e51b815260206004820152601560248201527f4375727665206c69627261727920696e76616c69640000000000000000000000604482015290519081900360640190fd5b6004546001546040516000928c928c928c928c928c926001600160a01b039283169290911690620005cc9062000acb565b6001600160a01b03808516604083015283811660608301528216608082015260a080825281018790528060208082019060c08301908b908b0280828437600083820152601f01601f191690910184810383528881526020908101915089908902808284376000838201819052604051601f909201601f19169093018190039c509a509098505050505050505050f0801580156200066d573d6000803e3d6000fd5b506004546040519192506000918691849187916001600160a01b031690620006959062000ad9565b9384526001600160a01b039283166020850152908216604080850191909152911660608301525190819003608001906000f080158015620006da573d6000803e3d6000fd5b509050816001600160a01b031663c4d66de8826040518263ffffffff1660e01b815260040180826001600160a01b03166001600160a01b03168152602001915050602060405180830381600087803b1580156200073657600080fd5b505af11580156200074b573d6000803e3d6000fd5b505050506040513d60208110156200076257600080fd5b5051620007b6576040805162461bcd60e51b815260206004820152601560248201527f5661756c74206e6f7420696e697469616c697365640000000000000000000000604482015290519081900360640190fd5b60025460408051631a54844d60e31b81526001600160a01b03848116600483015285811660248301528a811660448301529151919092169163d2a422689160648083019260209291908290030181600087803b1580156200081657600080fd5b505af11580156200082b573d6000803e3d6000fd5b505050506040513d60208110156200084257600080fd5b50505050505050505050505050565b6200085c33620008b6565b620008995760405162461bcd60e51b8152600401808060200182810382526040815260200180620041cd6040913960400191505060405180910390fd5b620008a48162000929565b50565b6004546001600160a01b031690565b6000620008ca818363ffffffff6200097316565b92915050565b6002546001600160a01b031690565b620008f260008263ffffffff620009dc16565b6040516001600160a01b038216907f0a8eb35e5ca14b3d6f28e4abf2f128dbab231a58b56e89beb5d636115001e16590600090a250565b6200093c60008263ffffffff62000a4716565b6040516001600160a01b038216907f22380c05984257a1cb900161c713dd71d39e74820f1aea43bd3f1bdd2096129990600090a250565b60006001600160a01b038216620009bc5760405162461bcd60e51b8152600401808060200182810382526022815260200180620041ab6022913960400191505060405180910390fd5b506001600160a01b03166000908152602091909152604090205460ff1690565b620009e8828262000973565b62000a255760405162461bcd60e51b81526004018080602001828103825260218152602001806200418a6021913960400191505060405180910390fd5b6001600160a01b0316600090815260209190915260409020805460ff19169055565b62000a53828262000973565b1562000aa6576040805162461bcd60e51b815260206004820152601f60248201527f526f6c65733a206163636f756e7420616c72656164792068617320726f6c6500604482015290519081900360640190fd5b6001600160a01b0316600090815260209190915260409020805460ff19166001179055565b611f6a8062000ae883390190565b6117388062002a528339019056fe60806040523480156200001157600080fd5b5060405162001f6a38038062001f6a833981810160405260a08110156200003757600080fd5b8101908080516401000000008111156200005057600080fd5b820160208101848111156200006457600080fd5b81518560208202830111640100000000821117156200008257600080fd5b505092919060200180516401000000008111156200009f57600080fd5b82016020810184811115620000b357600080fd5b8151856020820283011164010000000082111715620000d157600080fd5b5050602082015160408301516060909301519194509250620000fc336001600160e01b036200046f16565b60008551116200016d57604080517f08c379a000000000000000000000000000000000000000000000000000000000815260206004820152601a60248201527f4e6f2066756e64696e6720676f616c7320737065636966696564000000000000604482015290519081900360640190fd5b600a855110620001de57604080517f08c379a000000000000000000000000000000000000000000000000000000000815260206004820152601760248201527f546f6f206d616e792070686173657320646566696e6564000000000000000000604482015290519081900360640190fd5b83518551146200024f57604080517f08c379a000000000000000000000000000000000000000000000000000000000815260206004820152601b60248201527f496e76616c696420706861736520636f6e66696775726174696f6e0000000000604482015290519081900360640190fd5b6200026583620004c160201b62000eba1760201c565b6000600755600180546001600160a01b038086166001600160a01b0319928316179092556003805485841690831617905560048054848416921691909117808255604080517f771a3a1d0000000000000000000000000000000000000000000000000000000081529051919093169263771a3a1d9281810192602092909190829003018186803b158015620002f957600080fd5b505afa1580156200030e573d6000803e3d6000fd5b505050506040513d60208110156200032557600080fd5b5051600555845160005b8181101562000405576000620003b1620003886005546200037460648c87815181106200035857fe5b60200260200101516200054360201b620010e81790919060201c565b620005cb60201b620011521790919060201c565b8984815181106200039557fe5b60200260200101516200064a60201b620010871790919060201c565b60008381526008602052604090208190558751909150879083908110620003d457fe5b602002602001015160086000848152602001908152602001600020600101819055505080806001019150506200032f565b505060008080526008602052427f5eff886ea0ce6ca488a3d6e336d6c0f75f46d19b42c06ce5ee98e42c96d256c9557f5eff886ea0ce6ca488a3d6e336d6c0f75f46d19b42c06ce5ee98e42c96d256ca805460ff1916600117905560065550620008069350505050565b6200048a816000620006bf60201b620015521790919060201c565b6040516001600160a01b038216907f22380c05984257a1cb900161c713dd71d39e74820f1aea43bd3f1bdd2096129990600090a250565b620004d5336001600160e01b036200076616565b6200052c576040517f08c379a000000000000000000000000000000000000000000000000000000000815260040180806020018281038252604081526020018062001f2a6040913960400191505060405180910390fd5b62000540816001600160e01b036200046f16565b50565b6000808211620005b457604080517f08c379a000000000000000000000000000000000000000000000000000000000815260206004820152601a60248201527f536166654d6174683a206469766973696f6e206279207a65726f000000000000604482015290519081900360640190fd5b6000828481620005c057fe5b049150505b92915050565b600082620005dc57506000620005c5565b82820282848281620005ea57fe5b041462000643576040517f08c379a000000000000000000000000000000000000000000000000000000000815260040180806020018281038252602181526020018062001ee76021913960400191505060405180910390fd5b9392505050565b6000828201838110156200064357604080517f08c379a000000000000000000000000000000000000000000000000000000000815260206004820152601b60248201527f536166654d6174683a206164646974696f6e206f766572666c6f770000000000604482015290519081900360640190fd5b620006d482826001600160e01b036200078316565b156200074157604080517f08c379a000000000000000000000000000000000000000000000000000000000815260206004820152601f60248201527f526f6c65733a206163636f756e7420616c72656164792068617320726f6c6500604482015290519081900360640190fd5b6001600160a01b0316600090815260209190915260409020805460ff19166001179055565b6000620005c58260006200078360201b620012b61790919060201c565b60006001600160a01b038216620007e6576040517f08c379a000000000000000000000000000000000000000000000000000000000815260040180806020018281038252602281526020018062001f086022913960400191505060405180910390fd5b506001600160a01b03166000908152602091909152604090205460ff1690565b6116d180620008166000396000f3fe608060405234801561001057600080fd5b50600436106100d45760003560e01c80635d3a4db911610081578063bb5f747b1161005b578063bb5f747b14610198578063c4d66de8146101be578063cd44461e146101e4576100d4565b80635d3a4db9146101625780637362d9c81461016a57806380f5560514610190576100d4565b806333545eee116100b257806333545eee1461014857806340fb9353146101505780634c5a628c14610158576100d4565b806302d05d3f146100d9578063055ad42e146100fd5780632e1a7d4d14610117575b600080fd5b6100e161023a565b604080516001600160a01b039092168252519081900360200190f35b61010561024a565b60408051918252519081900360200190f35b6101346004803603602081101561012d57600080fd5b5035610250565b604080519115158252519081900360200190f35b61013461064d565b610105610905565b61016061094e565b005b610160610959565b6101606004803603602081101561018057600080fd5b50356001600160a01b0316610eba565b6100e1610f07565b610134600480360360208110156101ae57600080fd5b50356001600160a01b0316610f16565b610134600480360360208110156101d457600080fd5b50356001600160a01b0316610f2e565b610201600480360360208110156101fa57600080fd5b5035610fff565b6040518085815260200184815260200183815260200182600381111561022357fe5b60ff16815260200194505050505060405180910390f35b6001546001600160a01b03165b90565b60065490565b600061025b33610f16565b6102965760405162461bcd60e51b815260040180806020018281038252604081526020018061165d6040913960400191505060405180910390fd5b6002600083815260086020526040902060039081015460ff16908111156102b957fe5b1461030b576040805162461bcd60e51b815260206004820152601560248201527f46756e6420706861736520696e636f6d706c6574650000000000000000000000604482015290519081900360640190fd5b600654600090815260086020526040812060039081015460ff169081111561032f57fe5b14156103c157600260009054906101000a90046001600160a01b03166001600160a01b03166302fb0c5e6040518163ffffffff1660e01b815260040160206040518083038186803b15801561038357600080fd5b505afa158015610397573d6000803e3d6000fd5b505050506040513d60208110156103ad57600080fd5b5051156103bc576103bc610959565b610645565b6000828152600860205260409020546007546103e29163ffffffff61102a16565b600755600082815260086020526040902060039081015460ff168181111561040657fe5b505060055460009061044d9061044161042682606463ffffffff61108716565b6000878152600860205260409020549063ffffffff6110e816565b9063ffffffff61115216565b600354600480546040805163a9059cbb60e01b81526001600160a01b039283169381019390935260248301859052519394509091169163a9059cbb916044808201926020929091908290030181600087803b1580156104ab57600080fd5b505af11580156104bf573d6000803e3d6000fd5b505050506040513d60208110156104d557600080fd5b505161051e576040805162461bcd60e51b81526020600482015260136024820152722a37b5b2b739903737ba103a3930b739b332b960691b604482015290519081900360640190fd5b60008381526008602052604081205461053d908363ffffffff61102a16565b6003546040805163a9059cbb60e01b81523360048201526024810184905290519293506001600160a01b039091169163a9059cbb916044808201926020929091908290030181600087803b15801561059457600080fd5b505af11580156105a8573d6000803e3d6000fd5b505050506040513d60208110156105be57600080fd5b5051610607576040805162461bcd60e51b81526020600482015260136024820152722a37b5b2b739903737ba103a3930b739b332b960691b604482015290519081900360640190fd5b604080518581526020810183905281517f2d4b889da8a0924a586db952c7af049dd904c115b9e9c159c6c222f5a560ac44929181900390910190a150505b506001919050565b6002546000906001600160a01b031633146106af576040805162461bcd60e51b815260206004820152601a60248201527f496e76616c69642072657175657374696e67206163636f756e74000000000000604482015290519081900360640190fd5b6001600654600090815260086020526040902060039081015460ff16908111156106d557fe5b14610727576040805162461bcd60e51b815260206004820152601060248201527f46756e64696e6720696e61637469766500000000000000000000000000000000604482015290519081900360640190fd5b600354604080516370a0823160e01b815230600482015290516000926001600160a01b0316916370a08231916024808301926020929190829003018186803b15801561077257600080fd5b505afa158015610786573d6000803e3d6000fd5b505050506040513d602081101561079c57600080fd5b50516006546000908152600860205260408120600181015460029091015492935090916107ce9163ffffffff6111ab16565b90504281116107e257600092505050610247565b60065460009081526008602052604090205482106108fc5760068054600090815260086020526040808220600301805460ff1916600217905591548152205460075461082d91611087565b60075560068054600101908190556000908152600860205260409020541561087d5760068054600090815260086020526040808220600301805460ff191660011790559154815220426002909101555b6006547f809759a8805d7e63b4a9e1c8569d3b7eeb19f4f60640176e5eb10012a0249f14906108b390600163ffffffff61102a16565b600860006108cd600160065461102a90919063ffffffff16565b815260200190815260200160002060000154604051808381526020018281526020019250505060405180910390a15b60019250505090565b60008061094861093960055461044161092a606460055461108790919063ffffffff16565b6007549063ffffffff6110e816565b6007549063ffffffff61102a16565b91505090565b61095733611226565b565b61096233610f16565b61099d5760405162461bcd60e51b815260040180806020018281038252604081526020018061165d6040913960400191505060405180910390fd5b600354604080516370a0823160e01b815230600482015290516000926001600160a01b0316916370a08231916024808301926020929190829003018186803b1580156109e857600080fd5b505afa1580156109fc573d6000803e3d6000fd5b505050506040513d6020811015610a1257600080fd5b505160006007819055909150600654600090815260086020526040902060039081015460ff1690811115610a4257fe5b148015610a775750600260065460001901600090815260086020526040902060039081015460ff1690811115610a7457fe5b10155b15610d1457600554600090610aa790610441610a9a82606463ffffffff61108716565b859063ffffffff6110e816565b600354600480546040805163a9059cbb60e01b81526001600160a01b039283169381019390935260248301859052519394509091169163a9059cbb916044808201926020929091908290030181600087803b158015610b0557600080fd5b505af1158015610b19573d6000803e3d6000fd5b505050506040513d6020811015610b2f57600080fd5b5051610b82576040805162461bcd60e51b815260206004820152601b60248201527f5472616e73666572696e67206f662066756e6473206661696c65640000000000604482015290519081900360640190fd5b600354604080516370a0823160e01b815230600482015290516001600160a01b03909216916370a0823191602480820192602092909190829003018186803b158015610bcd57600080fd5b505afa158015610be1573d6000803e3d6000fd5b505050506040513d6020811015610bf757600080fd5b50516003546001546040805163a9059cbb60e01b81526001600160a01b03928316600482015260248101859052905193955091169163a9059cbb916044808201926020929091908290030181600087803b158015610c5457600080fd5b505af1158015610c68573d6000803e3d6000fd5b505050506040513d6020811015610c7e57600080fd5b5051610cd1576040805162461bcd60e51b815260206004820152601b60248201527f5472616e73666572696e67206f662066756e6473206661696c65640000000000604482015290519081900360640190fd5b600654604080519182526020820184905280517f2d4b889da8a0924a586db952c7af049dd904c115b9e9c159c6c222f5a560ac449281900390910190a150610dea565b6003546002546040805163a9059cbb60e01b81526001600160a01b039283166004820152602481018590529051919092169163a9059cbb9160448083019260209291908290030181600087803b158015610d6d57600080fd5b505af1158015610d81573d6000803e3d6000fd5b505050506040513d6020811015610d9757600080fd5b5051610dea576040805162461bcd60e51b815260206004820152601b60248201527f5472616e73666572696e67206f662066756e6473206661696c65640000000000604482015290519081900360640190fd5b600260009054906101000a90046001600160a01b03166001600160a01b031663cd89019d6040518163ffffffff1660e01b8152600401602060405180830381600087803b158015610e3a57600080fd5b505af1158015610e4e573d6000803e3d6000fd5b505050506040513d6020811015610e6457600080fd5b5051610eb7576040805162461bcd60e51b815260206004820152601860248201527f4d61726b6574207465726d696e6174696f6e206572726f720000000000000000604482015290519081900360640190fd5b50565b610ec333610f16565b610efe5760405162461bcd60e51b815260040180806020018281038252604081526020018061165d6040913960400191505060405180910390fd5b610eb78161126e565b6002546001600160a01b031690565b6000610f28818363ffffffff6112b616565b92915050565b6000610f3933610f16565b610f745760405162461bcd60e51b815260040180806020018281038252604081526020018061165d6040913960400191505060405180910390fd5b6001600160a01b038216610fcf576040805162461bcd60e51b815260206004820152601460248201527f436f6e74726163747320696e6974616c69736564000000000000000000000000604482015290519081900360640190fd5b6002805473ffffffffffffffffffffffffffffffffffffffff19166001600160a01b03841617905561064561094e565b6000908152600860205260409020805460018201546002830154600390930154919390929160ff1690565b600082821115611081576040805162461bcd60e51b815260206004820152601e60248201527f536166654d6174683a207375627472616374696f6e206f766572666c6f770000604482015290519081900360640190fd5b50900390565b6000828201838110156110e1576040805162461bcd60e51b815260206004820152601b60248201527f536166654d6174683a206164646974696f6e206f766572666c6f770000000000604482015290519081900360640190fd5b9392505050565b600080821161113e576040805162461bcd60e51b815260206004820152601a60248201527f536166654d6174683a206469766973696f6e206279207a65726f000000000000604482015290519081900360640190fd5b600082848161114957fe5b04949350505050565b60008261116157506000610f28565b8282028284828161116e57fe5b04146110e15760405162461bcd60e51b815260040180806020018281038252602181526020018061161a6021913960400191505060405180910390fd5b60008080806111be62015180870461131d565b600c9188016000198101838104949094019650945092509006600101915060006111e884846113b3565b9050808211156111f6578091505b6201518087066201518061120b868686611439565b020194508685101561121c57600080fd5b5050505092915050565b61123760008263ffffffff6114eb16565b6040516001600160a01b038216907f0a8eb35e5ca14b3d6f28e4abf2f128dbab231a58b56e89beb5d636115001e16590600090a250565b61127f60008263ffffffff61155216565b6040516001600160a01b038216907f22380c05984257a1cb900161c713dd71d39e74820f1aea43bd3f1bdd2096129990600090a250565b60006001600160a01b0382166112fd5760405162461bcd60e51b815260040180806020018281038252602281526020018061163b6022913960400191505060405180910390fd5b506001600160a01b03166000908152602091909152604090205460ff1690565b60008080836226496581018262023ab1600483020590506004600362023ab18302010590910390600062164b09610fa0600185010205905060046105b58202058303601f019250600061098f846050028161137457fe5b0590506000605061098f83020585039050600b820560301994909401606402929092018301996002600c90940290910392909201975095509350505050565b600081600114806113c45750816003145b806113cf5750816005145b806113da5750816007145b806113e55750816008145b806113f0575081600a145b806113fb575081600c145b156114085750601f610f28565b816002146114185750601e610f28565b611421836115d3565b61142c57601c61142f565b601d5b60ff169392505050565b60006107b2841015611480576040805162461bcd60e51b815260206004820152600b60248201526a22b837b1b41032b93937b960a91b604482015290519081900360640190fd5b838383600062253d8c600460036064611324600c600d19890105890101050205600c80600d19870105600c02600287030361016f02816114bc57fe5b0560046105b5600c600d1989010589016112c0010205617d4b8603010103039050809450505050509392505050565b6114f582826112b6565b6115305760405162461bcd60e51b81526004018080602001828103825260218152602001806115f96021913960400191505060405180910390fd5b6001600160a01b0316600090815260209190915260409020805460ff19169055565b61155c82826112b6565b156115ae576040805162461bcd60e51b815260206004820152601f60248201527f526f6c65733a206163636f756e7420616c72656164792068617320726f6c6500604482015290519081900360640190fd5b6001600160a01b0316600090815260209190915260409020805460ff19166001179055565b6000600482061580156115e857506064820615155b80610f285750506101909006159056fe526f6c65733a206163636f756e7420646f6573206e6f74206861766520726f6c65536166654d6174683a206d756c7469706c69636174696f6e206f766572666c6f77526f6c65733a206163636f756e7420697320746865207a65726f206164647265737357686974656c69737441646d696e526f6c653a2063616c6c657220646f6573206e6f742068617665207468652057686974656c69737441646d696e20726f6c65a265627a7a7230582022db9494b6bcc4238db186548a61252b3d843ff5d762b0ac0e2e198b647f8e9064736f6c634300050a0032536166654d6174683a206d756c7469706c69636174696f6e206f766572666c6f77526f6c65733a206163636f756e7420697320746865207a65726f206164647265737357686974656c69737441646d696e526f6c653a2063616c6c657220646f6573206e6f742068617665207468652057686974656c69737441646d696e20726f6c6560806040526000805460ff19166001179055601260055534801561002257600080fd5b506040516117383803806117388339818101604052608081101561004557600080fd5b50805160208201516040830151606090930151600192909255600080546001600160a01b0392831661010002610100600160a81b0319909116179055600280549382166001600160a01b031994851617905560038054919092169216919091179055611682806100b66000396000f3fe608060405234801561001057600080fd5b50600436106101165760003560e01c806370a08231116100a2578063c544682b11610071578063c544682b146102a0578063cd89019d146102bd578063db9c0c21146102c5578063dd62ed3e146102e2578063eb767f0c1461031057610116565b806370a082311461022957806396365d441461024f578063a9059cbb14610257578063b9d367431461028357610116565b80632e1a7d4d116100e95780632e1a7d4d146101b3578063313ce567146101d057806340c10f19146101d857806342966c68146102045780635aea1bb41461022157610116565b806302fb0c5e1461011b578063095ea7b31461013757806318160ddd1461016357806323b872dd1461017d575b600080fd5b61012361032d565b604080519115158252519081900360200190f35b6101236004803603604081101561014d57600080fd5b506001600160a01b038135169060200135610336565b61016b61039d565b60408051918252519081900360200190f35b6101236004803603606081101561019357600080fd5b506001600160a01b038135811691602081013590911690604001356103a3565b610123600480360360208110156101c957600080fd5b50356105f0565b61016b61088a565b610123600480360360408110156101ee57600080fd5b506001600160a01b038135169060200135610890565b6101236004803603602081101561021a57600080fd5b5035610c94565b61016b610ea9565b61016b6004803603602081101561023f57600080fd5b50356001600160a01b0316610eaf565b61016b610eca565b6101236004803603604081101561026d57600080fd5b506001600160a01b038135169060200135610f46565b61016b6004803603602081101561029957600080fd5b50356110aa565b61016b600480360360208110156102b657600080fd5b5035611182565b610123611230565b61016b600480360360208110156102db57600080fd5b5035611323565b61016b600480360360408110156102f857600080fd5b506001600160a01b038135811691602001351661134e565b61016b6004803603602081101561032657600080fd5b5035611379565b60005460ff1690565b3360008181526006602090815260408083206001600160a01b038716808552908352818420869055815186815291519394909390927f8c5be1e5ebec7d5bd14f71427d1e84f3dd0314c0f7b2291e5b200ac8c7c3b925928290030190a35060015b92915050565b60045490565b6001600160a01b038316600090815260076020526040812054821115610410576040805162461bcd60e51b815260206004820181905260248201527f52657175657374656420616d6f756e7420657863656564732062616c616e6365604482015290519081900360640190fd5b6001600160a01b0384166000908152600660209081526040808320338452909152902054821115610488576040805162461bcd60e51b815260206004820152601260248201527f416c6c6f77616e63652065786365656465640000000000000000000000000000604482015290519081900360640190fd5b6001600160a01b0383166104e3576040805162461bcd60e51b815260206004820152601660248201527f546172676574206163636f756e7420696e76616c696400000000000000000000604482015290519081900360640190fd5b6001600160a01b03841660009081526007602052604090205461050c908363ffffffff6113e816565b6001600160a01b038086166000908152600760205260408082209390935590851681522054610541908363ffffffff61144516565b6001600160a01b038085166000908152600760209081526040808320949094559187168152600682528281203382529091522054610585908363ffffffff6113e816565b6001600160a01b03808616600081815260066020908152604080832033845282529182902094909455805186815290519287169391927fddf252ad1be2c89b69c2b068fc378daa952ba7f163c4a11628f55a4df523b3ef929181900390910190a35060019392505050565b6000805460ff1615610649576040805162461bcd60e51b815260206004820152601460248201527f4d61726b6574206e6f742066696e616c69736564000000000000000000000000604482015290519081900360640190fd5b336000908152600760205260409020548211156106a2576040805162461bcd60e51b8152602060048201526012602482015271496e73756666696369656e742066756e647360701b604482015290519081900360640190fd5b336000908152600760205260409020546106c2908363ffffffff6113e816565b3360009081526007602090815260408083209390935560035483516370a0823160e01b8152306004820152935192936001600160a01b03909116926370a0823192602480840193919291829003018186803b15801561072057600080fd5b505afa158015610734573d6000803e3d6000fd5b505050506040513d602081101561074a57600080fd5b505160045490915060009061077890859061076c90859063ffffffff61149f16565b9063ffffffff61150916565b6003546040805163a9059cbb60e01b81523360048201526024810184905290519293506001600160a01b039091169163a9059cbb916044808201926020929091908290030181600087803b1580156107cf57600080fd5b505af11580156107e3573d6000803e3d6000fd5b505050506040513d60208110156107f957600080fd5b505161084c576040805162461bcd60e51b815260206004820152601360248201527f446169207472616e73666572206661696c656400000000000000000000000000604482015290519081900360640190fd5b604080518581529051339130917fddf252ad1be2c89b69c2b068fc378daa952ba7f163c4a11628f55a4df523b3ef9181900360200190a35050919050565b60055490565b6000805460ff166108da576040805162461bcd60e51b815260206004820152600f60248201526e4d61726b657420696e61637469766560881b604482015290519081900360640190fd5b600354604080516370a0823160e01b815230600482015290516000926001600160a01b0316916370a08231916024808301926020929190829003018186803b15801561092557600080fd5b505afa158015610939573d6000803e3d6000fd5b505050506040513d602081101561094f57600080fd5b505160045490915060009061098590839061097990610974908863ffffffff61144516565b611562565b9063ffffffff6113e816565b905060006109a360015461076c60648561149f90919063ffffffff16565b6003549091506001600160a01b03166323b872dd33306109c9868663ffffffff61144516565b6040518463ffffffff1660e01b815260040180846001600160a01b03166001600160a01b03168152602001836001600160a01b03166001600160a01b031681526020018281526020019350505050602060405180830381600087803b158015610a3157600080fd5b505af1158015610a45573d6000803e3d6000fd5b505050506040513d6020811015610a5b57600080fd5b5050600354600080546040805163a9059cbb60e01b81526101009092046001600160a01b03908116600484015260248301869052905193169263a9059cbb92604480840193602093929083900390910190829087803b158015610abd57600080fd5b505af1158015610ad1573d6000803e3d6000fd5b505050506040513d6020811015610ae757600080fd5b5051610b3a576040805162461bcd60e51b815260206004820152601660248201527f5661756c7420706f7274696f6e206e6f742073656e7400000000000000000000604482015290519081900360640190fd5b600454610b4d908663ffffffff61144516565b60045533600090815260076020526040902054610b70908663ffffffff61144516565b33600090815260076020908152604080832093909355815483516319aa2f7760e11b815293516101009091046001600160a01b0316936333545eee9360048083019493928390030190829087803b158015610bca57600080fd5b505af1158015610bde573d6000803e3d6000fd5b505050506040513d6020811015610bf457600080fd5b5051610c47576040805162461bcd60e51b815260206004820152601960248201527f46756e64696e672076616c69646174696f6e206661696c656400000000000000604482015290519081900360640190fd5b6040805186815290516001600160a01b038816916000917fddf252ad1be2c89b69c2b068fc378daa952ba7f163c4a11628f55a4df523b3ef9181900360200190a350600195945050505050565b6000805460ff16610cde576040805162461bcd60e51b815260206004820152600f60248201526e4d61726b657420696e61637469766560881b604482015290519081900360640190fd5b33600090815260076020526040902054821115610d42576040805162461bcd60e51b815260206004820152601b60248201527f4e6f7420656e6f75676820746f6b656e7320617661696c61626c650000000000604482015290519081900360640190fd5b6000610d4d83611182565b600454909150610d63908463ffffffff6113e816565b60045533600090815260076020526040902054610d86908463ffffffff6113e816565b33600081815260076020908152604080832094909455600354845163a9059cbb60e01b815260048101949094526024840186905293516001600160a01b039094169363a9059cbb93604480820194918390030190829087803b158015610deb57600080fd5b505af1158015610dff573d6000803e3d6000fd5b505050506040513d6020811015610e1557600080fd5b5051610e68576040805162461bcd60e51b815260206004820152600f60248201527f546f6b656e73206e6f742073656e740000000000000000000000000000000000604482015290519081900360640190fd5b60408051848152905160009133917fddf252ad1be2c89b69c2b068fc378daa952ba7f163c4a11628f55a4df523b3ef9181900360200190a350600192915050565b60015490565b6001600160a01b031660009081526007602052604090205490565b600354604080516370a0823160e01b815230600482015290516000926001600160a01b0316916370a08231916024808301926020929190829003018186803b158015610f1557600080fd5b505afa158015610f29573d6000803e3d6000fd5b505050506040513d6020811015610f3f57600080fd5b5051905090565b33600090815260076020526040812054821115610f9f576040805162461bcd60e51b8152602060048201526012602482015271496e73756666696369656e742066756e647360701b604482015290519081900360640190fd5b6001600160a01b038316610ffa576040805162461bcd60e51b815260206004820152601660248201527f546172676574206163636f756e7420696e76616c696400000000000000000000604482015290519081900360640190fd5b3360009081526007602052604090205461101a908363ffffffff6113e816565b33600090815260076020526040808220929092556001600160a01b0385168152205461104c908363ffffffff61144516565b6001600160a01b0384166000818152600760209081526040918290209390935580518581529051919233927fddf252ad1be2c89b69c2b068fc378daa952ba7f163c4a11628f55a4df523b3ef9281900390910190a350600192915050565b600354604080516370a0823160e01b8152306004820152905160009283926001600160a01b03909116916370a0823191602480820192602092909190829003018186803b1580156110fa57600080fd5b505afa15801561110e573d6000803e3d6000fd5b505050506040513d602081101561112457600080fd5b505160045490915060009061114990839061097990610974908863ffffffff61144516565b9050600061116760015461076c60648561149f90919063ffffffff16565b9050611179828263ffffffff61144516565b95945050505050565b600354604080516370a0823160e01b8152306004820152905160009283926001600160a01b03909116916370a0823191602480820192602092909190829003018186803b1580156111d257600080fd5b505afa1580156111e6573d6000803e3d6000fd5b505050506040513d60208110156111fc57600080fd5b50516004549091506112299061121c90610974908663ffffffff6113e816565b829063ffffffff6113e816565b9392505050565b6000805461010090046001600160a01b03163314611295576040805162461bcd60e51b815260206004820152601160248201527f496e76616c696420726571756573746f72000000000000000000000000000000604482015290519081900360640190fd5b60005460ff166112ec576040805162461bcd60e51b815260206004820152601260248201527f4d61726b65742064656163746976617465640000000000000000000000000000604482015290519081900360640190fd5b6000805460ff191681556040517f66a42cbcfa32eefc570a4d86de8ad4da16de318667980b246524534806d022e29190a150600190565b600061039761133f61133a84610979600454611562565b6115e0565b6004549063ffffffff6113e816565b6001600160a01b03918216600090815260066020908152604080832093909416825291909152205490565b60015460009081906113a69061076c61139982606463ffffffff61144516565b869063ffffffff61149f16565b905060006113ba848363ffffffff6113e816565b90506113e060045461097961133a846113d4600454611562565b9063ffffffff61144516565b949350505050565b60008282111561143f576040805162461bcd60e51b815260206004820152601e60248201527f536166654d6174683a207375627472616374696f6e206f766572666c6f770000604482015290519081900360640190fd5b50900390565b600082820183811015611229576040805162461bcd60e51b815260206004820152601b60248201527f536166654d6174683a206164646974696f6e206f766572666c6f770000000000604482015290519081900360640190fd5b60008082116114f5576040805162461bcd60e51b815260206004820152601a60248201527f536166654d6174683a206469766973696f6e206279207a65726f000000000000604482015290519081900360640190fd5b600082848161150057fe5b04949350505050565b60008261151857506000610397565b8282028284828161152557fe5b04146112295760405162461bcd60e51b815260040180806020018281038252602181526020018061162d6021913960400191505060405180910390fd5b60025460408051633fd2300d60e01b81526004810184905290516000926001600160a01b031691633fd2300d916024808301926020929190829003018186803b1580156115ae57600080fd5b505afa1580156115c2573d6000803e3d6000fd5b505050506040513d60208110156115d857600080fd5b505192915050565b60025460408051636877c1bd60e11b81526004810184905290516000926001600160a01b03169163d0ef837a916024808301926020929190829003018186803b1580156115ae57600080fdfe536166654d6174683a206d756c7469706c69636174696f6e206f766572666c6f77a265627a7a72305820f0f65a7db015b1c9159660fec56172fce0e02e1e08ff0c7245ffed28118df75964736f6c634300050a0032526f6c65733a206163636f756e7420646f6573206e6f74206861766520726f6c65526f6c65733a206163636f756e7420697320746865207a65726f206164647265737357686974656c69737441646d696e526f6c653a2063616c6c657220646f6573206e6f742068617665207468652057686974656c69737441646d696e20726f6c65a265627a7a72305820a5388c416a4c94ee7fa08b61169d88c1e7f406b2ee83f14f2366e751f1aeb85364736f6c634300050a0032526f6c65733a206163636f756e7420697320746865207a65726f2061646472657373",
  "source": "pragma solidity 0.5.10;\n\nimport { Market } from \"./Market.sol\";\nimport { IMarketFactory } from \"./IMarketFactory.sol\";\nimport { Vault } from \"../vault/Vault.sol\";\nimport { WhitelistAdminRole } from \"openzeppelin-solidity/contracts/access/roles/WhitelistAdminRole.sol\";\nimport { IMarketRegistry } from \"../marketRegistry/IMarketRegistry.sol\";\nimport { ICurveRegistry } from \"../curveRegistry/ICurveRegistry.sol\";\n\ncontract MarketFactory is IMarketFactory, WhitelistAdminRole {\n    //The molecule vault for molecule tax\n    address internal moleculeVault_;\n    //The registry of all created markets\n    IMarketRegistry internal marketRegistry_;\n    //The registry of all curve types\n    ICurveRegistry internal curveRegistry_;\n    //The ERC20 collateral token contract address\n    address internal collateralToken_;\n\n    /**\n      * @author Veronica @veronicaLC\n      * @dev Sets variables for market deployments. Molecule tax cannot\n      *         be smaller than 0 (1-99).\n      * @param _collateralToken Address of the ERC20 collateral token\n      * @param _moleculeVault   The address of the molecule tax vault\n      * @param _marketRegistry  Address of the registry of all markets\n      * @param _curveRegistry   Address of the registry of all curve types\n      *                         funding rounds\n      */\n    constructor(\n        address _collateralToken,\n        address _moleculeVault,\n        address _marketRegistry,\n        address _curveRegistry\n    )\n        WhitelistAdminRole()\n        public\n    {\n        curveRegistry_ = ICurveRegistry(_curveRegistry);\n        collateralToken_ = _collateralToken;\n        marketRegistry_ = IMarketRegistry(_marketRegistry);\n        moleculeVault_ = _moleculeVault;\n    }\n\n    /**\n      * @author Veronica - @veronicalc\n      * @dev    This function allows for the creation of a\n      *         new market, consisting of a curve and vault\n      * @notice Vyper cannot handle arrays of unknown length,\n      *         and thus the funding goals and durations will\n      *         only be stored in the vault, which is Solidity.\n      * @param _fundingGoals This is the amount wanting to be\n      *             raised in each round, in collateral.\n      * @param _phaseDurations The time for each round in\n      *             number of blocks.\n      * @param _creator Address of the researcher.\n      * @param _curveType Curve selected\n      * @param _taxationRate The pecentage of taxation. e.g: 60\n      */\n    function deployMarket(\n        uint256[] calldata _fundingGoals,\n        uint256[] calldata _phaseDurations,\n        address _creator,\n        uint256 _curveType,\n        uint256 _taxationRate\n    )\n        external\n        onlyWhitelistAdmin()\n    {\n        (address curveLibrary,, bool curveState) = curveRegistry_.getCurveData(_curveType);\n\n        require(_taxationRate > 0, \"Taxation rate too low\");\n        require(_taxationRate < 100, \"Taxation rate too high\");\n\n        require(curveState == true, \"Curve inactive\");\n        require(curveLibrary != address(0), \"Curve library invalid\");\n        \n        address newVault = address(new Vault(\n            _fundingGoals,\n            _phaseDurations,\n            _creator,\n            collateralToken_,\n            moleculeVault_\n        ));\n\n        address newMarket = address(new Market(\n            _taxationRate,\n            newVault,\n            curveLibrary,\n            collateralToken_\n        ));\n\n        require(Vault(newVault).initialize(newMarket), \"Vault not initialised\");\n        marketRegistry_.registerMarket(newMarket, newVault, _creator);\n    }\n\n    /**\n      * @notice This function will only affect new markets, and will not update\n      *         already created markets.\n      */\n    function updateMoleculeVault(address _newMoleculeVault) public onlyWhitelistAdmin() {\n        moleculeVault_ = _newMoleculeVault;\n    }\n\n    function moleculeVault() public view returns(address) {\n        return moleculeVault_;\n    }\n\n    function marketRegistry() public view returns(address) {\n        return address(marketRegistry_);\n    }\n\n    function curveRegistry() public view returns(address) {\n        return address(curveRegistry_);\n    }\n\n    function collateralToken() public view returns(address) {\n        return collateralToken_;\n    }\n}\n",
  "sourcePath": "/home/bscholtz/LinumLabs/workspace/molecule-alpha_feature-8/Blockchain/contracts/market/MarketFactory.sol",
  "compiler": {
    "name": "solc",
    "version": "0.5.10+commit.5a6ea5b1.Emscripten.clang",
    "optimizer": true,
    "runs": 500
  },
  "schemaVersion": "2.1.7",
  "updatedAt": "2019-08-12T11:56:49.012Z"
}