{
  "contractName": "Market",
  "abi": [
    {
      "inputs": [
        {
          "name": "_taxationRate",
          "type": "uint256"
        },
        {
          "name": "_creatorVault",
          "type": "address"
        },
        {
          "name": "_curveLibrary",
          "type": "address"
        },
        {
          "name": "_collateralToken",
          "type": "address"
        }
      ],
      "payable": false,
      "stateMutability": "nonpayable",
      "type": "constructor"
    },
    {
      "anonymous": false,
      "inputs": [
        {
          "indexed": true,
          "name": "owner",
          "type": "address"
        },
        {
          "indexed": true,
          "name": "spender",
          "type": "address"
        },
        {
          "indexed": false,
          "name": "value",
          "type": "uint256"
        }
      ],
      "name": "Approval",
      "type": "event"
    },
    {
      "anonymous": false,
      "inputs": [
        {
          "indexed": true,
          "name": "from",
          "type": "address"
        },
        {
          "indexed": true,
          "name": "to",
          "type": "address"
        },
        {
          "indexed": false,
          "name": "value",
          "type": "uint256"
        }
      ],
      "name": "Transfer",
      "type": "event"
    },
    {
      "anonymous": false,
      "inputs": [],
      "name": "MarketTerminated",
      "type": "event"
    },
    {
      "constant": false,
      "inputs": [
        {
          "name": "_spender",
          "type": "address"
        },
        {
          "name": "_value",
          "type": "uint256"
        }
      ],
      "name": "approve",
      "outputs": [
        {
          "name": "",
          "type": "bool"
        }
      ],
      "payable": false,
      "stateMutability": "nonpayable",
      "type": "function"
    },
    {
      "constant": false,
      "inputs": [
        {
          "name": "_numTokens",
          "type": "uint256"
        }
      ],
      "name": "burn",
      "outputs": [
        {
          "name": "",
          "type": "bool"
        }
      ],
      "payable": false,
      "stateMutability": "nonpayable",
      "type": "function"
    },
    {
      "constant": false,
      "inputs": [
        {
          "name": "_to",
          "type": "address"
        },
        {
          "name": "_numTokens",
          "type": "uint256"
        }
      ],
      "name": "mint",
      "outputs": [
        {
          "name": "",
          "type": "bool"
        }
      ],
      "payable": false,
      "stateMutability": "nonpayable",
      "type": "function"
    },
    {
      "constant": false,
      "inputs": [
        {
          "name": "_to",
          "type": "address"
        },
        {
          "name": "_value",
          "type": "uint256"
        }
      ],
      "name": "transfer",
      "outputs": [
        {
          "name": "",
          "type": "bool"
        }
      ],
      "payable": false,
      "stateMutability": "nonpayable",
      "type": "function"
    },
    {
      "constant": false,
      "inputs": [
        {
          "name": "_from",
          "type": "address"
        },
        {
          "name": "_to",
          "type": "address"
        },
        {
          "name": "_value",
          "type": "uint256"
        }
      ],
      "name": "transferFrom",
      "outputs": [
        {
          "name": "",
          "type": "bool"
        }
      ],
      "payable": false,
      "stateMutability": "nonpayable",
      "type": "function"
    },
    {
      "constant": false,
      "inputs": [],
      "name": "finaliseMarket",
      "outputs": [
        {
          "name": "",
          "type": "bool"
        }
      ],
      "payable": false,
      "stateMutability": "nonpayable",
      "type": "function"
    },
    {
      "constant": false,
      "inputs": [
        {
          "name": "_amount",
          "type": "uint256"
        }
      ],
      "name": "withdraw",
      "outputs": [
        {
          "name": "",
          "type": "bool"
        }
      ],
      "payable": false,
      "stateMutability": "nonpayable",
      "type": "function"
    },
    {
      "constant": true,
      "inputs": [
        {
          "name": "_numTokens",
          "type": "uint256"
        }
      ],
      "name": "priceToMint",
      "outputs": [
        {
          "name": "",
          "type": "uint256"
        }
      ],
      "payable": false,
      "stateMutability": "view",
      "type": "function"
    },
    {
      "constant": true,
      "inputs": [
        {
          "name": "_numTokens",
          "type": "uint256"
        }
      ],
      "name": "rewardForBurn",
      "outputs": [
        {
          "name": "",
          "type": "uint256"
        }
      ],
      "payable": false,
      "stateMutability": "view",
      "type": "function"
    },
    {
      "constant": true,
      "inputs": [
        {
          "name": "_collateralTokenOffered",
          "type": "uint256"
        }
      ],
      "name": "collateralToTokenBuying",
      "outputs": [
        {
          "name": "",
          "type": "uint256"
        }
      ],
      "payable": false,
      "stateMutability": "view",
      "type": "function"
    },
    {
      "constant": true,
      "inputs": [
        {
          "name": "_collateralTokenNeeded",
          "type": "uint256"
        }
      ],
      "name": "collateralToTokenSelling",
      "outputs": [
        {
          "name": "",
          "type": "uint256"
        }
      ],
      "payable": false,
      "stateMutability": "view",
      "type": "function"
    },
    {
      "constant": true,
      "inputs": [
        {
          "name": "_owner",
          "type": "address"
        },
        {
          "name": "_spender",
          "type": "address"
        }
      ],
      "name": "allowance",
      "outputs": [
        {
          "name": "",
          "type": "uint256"
        }
      ],
      "payable": false,
      "stateMutability": "view",
      "type": "function"
    },
    {
      "constant": true,
      "inputs": [
        {
          "name": "_owner",
          "type": "address"
        }
      ],
      "name": "balanceOf",
      "outputs": [
        {
          "name": "",
          "type": "uint256"
        }
      ],
      "payable": false,
      "stateMutability": "view",
      "type": "function"
    },
    {
      "constant": true,
      "inputs": [],
      "name": "poolBalance",
      "outputs": [
        {
          "name": "",
          "type": "uint256"
        }
      ],
      "payable": false,
      "stateMutability": "view",
      "type": "function"
    },
    {
      "constant": true,
      "inputs": [],
      "name": "totalSupply",
      "outputs": [
        {
          "name": "",
          "type": "uint256"
        }
      ],
      "payable": false,
      "stateMutability": "view",
      "type": "function"
    },
    {
      "constant": true,
      "inputs": [],
      "name": "taxationRate",
      "outputs": [
        {
          "name": "",
          "type": "uint256"
        }
      ],
      "payable": false,
      "stateMutability": "view",
      "type": "function"
    },
    {
      "constant": true,
      "inputs": [],
      "name": "decimals",
      "outputs": [
        {
          "name": "",
          "type": "uint256"
        }
      ],
      "payable": false,
      "stateMutability": "view",
      "type": "function"
    },
    {
      "constant": true,
      "inputs": [],
      "name": "active",
      "outputs": [
        {
          "name": "",
          "type": "bool"
        }
      ],
      "payable": false,
      "stateMutability": "view",
      "type": "function"
    }
  ],
  "bytecode": "0x608060405260016000806101000a81548160ff021916908315150217905550601260055534801561002f57600080fd5b506040516129923803806129928339818101604052608081101561005257600080fd5b81019080805190602001909291908051906020019092919080519060200190929190805190602001909291905050508360018190555082600060016101000a81548173ffffffffffffffffffffffffffffffffffffffff021916908373ffffffffffffffffffffffffffffffffffffffff16021790555081600260006101000a81548173ffffffffffffffffffffffffffffffffffffffff021916908373ffffffffffffffffffffffffffffffffffffffff16021790555080600360006101000a81548173ffffffffffffffffffffffffffffffffffffffff021916908373ffffffffffffffffffffffffffffffffffffffff160217905550505050506128348061015e6000396000f3fe608060405234801561001057600080fd5b50600436106101165760003560e01c806370a08231116100a2578063c544682b11610071578063c544682b14610493578063cd89019d146104d5578063db9c0c21146104f7578063dd62ed3e14610539578063eb767f0c146105b157610116565b806370a082311461037557806396365d44146103cd578063a9059cbb146103eb578063b9d367431461045157610116565b80632e1a7d4d116100e95780632e1a7d4d14610247578063313ce5671461028d57806340c10f19146102ab57806342966c68146103115780635aea1bb41461035757610116565b806302fb0c5e1461011b578063095ea7b31461013d57806318160ddd146101a357806323b872dd146101c1575b600080fd5b6101236105f3565b604051808215151515815260200191505060405180910390f35b6101896004803603604081101561015357600080fd5b81019080803573ffffffffffffffffffffffffffffffffffffffff16906020019092919080359060200190929190505050610609565b604051808215151515815260200191505060405180910390f35b6101ab6106fb565b6040518082815260200191505060405180910390f35b61022d600480360360608110156101d757600080fd5b81019080803573ffffffffffffffffffffffffffffffffffffffff169060200190929190803573ffffffffffffffffffffffffffffffffffffffff16906020019092919080359060200190929190505050610705565b604051808215151515815260200191505060405180910390f35b6102736004803603602081101561025d57600080fd5b8101908080359060200190929190505050610bfa565b604051808215151515815260200191505060405180910390f35b610295611129565b6040518082815260200191505060405180910390f35b6102f7600480360360408110156102c157600080fd5b81019080803573ffffffffffffffffffffffffffffffffffffffff16906020019092919080359060200190929190505050611133565b604051808215151515815260200191505060405180910390f35b61033d6004803603602081101561032757600080fd5b810190808035906020019092919050505061175a565b604051808215151515815260200191505060405180910390f35b61035f611b15565b6040518082815260200191505060405180910390f35b6103b76004803603602081101561038b57600080fd5b81019080803573ffffffffffffffffffffffffffffffffffffffff169060200190929190505050611b1f565b6040518082815260200191505060405180910390f35b6103d5611b68565b6040518082815260200191505060405180910390f35b6104376004803603604081101561040157600080fd5b81019080803573ffffffffffffffffffffffffffffffffffffffff16906020019092919080359060200190929190505050611c49565b604051808215151515815260200191505060405180910390f35b61047d6004803603602081101561046757600080fd5b8101908080359060200190929190505050611f3c565b6040518082815260200191505060405180910390f35b6104bf600480360360208110156104a957600080fd5b8101908080359060200190929190505050612097565b6040518082815260200191505060405180910390f35b6104dd6121ad565b604051808215151515815260200191505060405180910390f35b6105236004803603602081101561050d57600080fd5b810190808035906020019092919050505061233f565b6040518082815260200191505060405180910390f35b61059b6004803603604081101561054f57600080fd5b81019080803573ffffffffffffffffffffffffffffffffffffffff169060200190929190803573ffffffffffffffffffffffffffffffffffffffff169060200190929190505050612381565b6040518082815260200191505060405180910390f35b6105dd600480360360208110156105c757600080fd5b8101908080359060200190929190505050612408565b6040518082815260200191505060405180910390f35b60008060009054906101000a900460ff16905090565b600081600660003373ffffffffffffffffffffffffffffffffffffffff1673ffffffffffffffffffffffffffffffffffffffff16815260200190815260200160002060008573ffffffffffffffffffffffffffffffffffffffff1673ffffffffffffffffffffffffffffffffffffffff168152602001908152602001600020819055508273ffffffffffffffffffffffffffffffffffffffff163373ffffffffffffffffffffffffffffffffffffffff167f8c5be1e5ebec7d5bd14f71427d1e84f3dd0314c0f7b2291e5b200ac8c7c3b925846040518082815260200191505060405180910390a36001905092915050565b6000600454905090565b6000600760008573ffffffffffffffffffffffffffffffffffffffff1673ffffffffffffffffffffffffffffffffffffffff168152602001908152602001600020548211156107bc576040517f08c379a00000000000000000000000000000000000000000000000000000000081526004018080602001828103825260208152602001807f52657175657374656420616d6f756e7420657863656564732062616c616e636581525060200191505060405180910390fd5b600660008573ffffffffffffffffffffffffffffffffffffffff1673ffffffffffffffffffffffffffffffffffffffff16815260200190815260200160002060003373ffffffffffffffffffffffffffffffffffffffff1673ffffffffffffffffffffffffffffffffffffffff168152602001908152602001600020548211156108ae576040517f08c379a00000000000000000000000000000000000000000000000000000000081526004018080602001828103825260128152602001807f416c6c6f77616e6365206578636565646564000000000000000000000000000081525060200191505060405180910390fd5b600073ffffffffffffffffffffffffffffffffffffffff168373ffffffffffffffffffffffffffffffffffffffff161415610951576040517f08c379a00000000000000000000000000000000000000000000000000000000081526004018080602001828103825260168152602001807f546172676574206163636f756e7420696e76616c69640000000000000000000081525060200191505060405180910390fd5b6109a382600760008773ffffffffffffffffffffffffffffffffffffffff1673ffffffffffffffffffffffffffffffffffffffff1681526020019081526020016000205461244a90919063ffffffff16565b600760008673ffffffffffffffffffffffffffffffffffffffff1673ffffffffffffffffffffffffffffffffffffffff16815260200190815260200160002081905550610a3882600760008673ffffffffffffffffffffffffffffffffffffffff1673ffffffffffffffffffffffffffffffffffffffff168152602001908152602001600020546124d390919063ffffffff16565b600760008573ffffffffffffffffffffffffffffffffffffffff1673ffffffffffffffffffffffffffffffffffffffff16815260200190815260200160002081905550610b0a82600660008773ffffffffffffffffffffffffffffffffffffffff1673ffffffffffffffffffffffffffffffffffffffff16815260200190815260200160002060003373ffffffffffffffffffffffffffffffffffffffff1673ffffffffffffffffffffffffffffffffffffffff1681526020019081526020016000205461244a90919063ffffffff16565b600660008673ffffffffffffffffffffffffffffffffffffffff1673ffffffffffffffffffffffffffffffffffffffff16815260200190815260200160002060003373ffffffffffffffffffffffffffffffffffffffff1673ffffffffffffffffffffffffffffffffffffffff168152602001908152602001600020819055508273ffffffffffffffffffffffffffffffffffffffff168473ffffffffffffffffffffffffffffffffffffffff167fddf252ad1be2c89b69c2b068fc378daa952ba7f163c4a11628f55a4df523b3ef846040518082815260200191505060405180910390a3600190509392505050565b60008015156000809054906101000a900460ff16151514610c83576040517f08c379a00000000000000000000000000000000000000000000000000000000081526004018080602001828103825260148152602001807f4d61726b6574206e6f742066696e616c6973656400000000000000000000000081525060200191505060405180910390fd5b600760003373ffffffffffffffffffffffffffffffffffffffff1673ffffffffffffffffffffffffffffffffffffffff16815260200190815260200160002054821115610d38576040517f08c379a00000000000000000000000000000000000000000000000000000000081526004018080602001828103825260128152602001807f496e73756666696369656e742066756e6473000000000000000000000000000081525060200191505060405180910390fd5b60008211610dae576040517f08c379a00000000000000000000000000000000000000000000000000000000081526004018080602001828103825260118152602001807f43616e6e6f74207769746864726177203000000000000000000000000000000081525060200191505060405180910390fd5b610e0082600760003373ffffffffffffffffffffffffffffffffffffffff1673ffffffffffffffffffffffffffffffffffffffff1681526020019081526020016000205461244a90919063ffffffff16565b600760003373ffffffffffffffffffffffffffffffffffffffff1673ffffffffffffffffffffffffffffffffffffffff168152602001908152602001600020819055506000600360009054906101000a900473ffffffffffffffffffffffffffffffffffffffff1673ffffffffffffffffffffffffffffffffffffffff166370a08231306040518263ffffffff1660e01b8152600401808273ffffffffffffffffffffffffffffffffffffffff1673ffffffffffffffffffffffffffffffffffffffff16815260200191505060206040518083038186803b158015610ee457600080fd5b505afa158015610ef8573d6000803e3d6000fd5b505050506040513d6020811015610f0e57600080fd5b810190808051906020019092919050505090506000610f4a600454610f3c868561255b90919063ffffffff16565b6125e190919063ffffffff16565b9050610f618460045461244a90919063ffffffff16565b600481905550600360009054906101000a900473ffffffffffffffffffffffffffffffffffffffff1673ffffffffffffffffffffffffffffffffffffffff1663a9059cbb33836040518363ffffffff1660e01b8152600401808373ffffffffffffffffffffffffffffffffffffffff1673ffffffffffffffffffffffffffffffffffffffff16815260200182815260200192505050602060405180830381600087803b15801561101057600080fd5b505af1158015611024573d6000803e3d6000fd5b505050506040513d602081101561103a57600080fd5b81019080805190602001909291905050506110bd576040517f08c379a00000000000000000000000000000000000000000000000000000000081526004018080602001828103825260138152602001807f446169207472616e73666572206661696c65640000000000000000000000000081525060200191505060405180910390fd5b3373ffffffffffffffffffffffffffffffffffffffff163073ffffffffffffffffffffffffffffffffffffffff167fddf252ad1be2c89b69c2b068fc378daa952ba7f163c4a11628f55a4df523b3ef866040518082815260200191505060405180910390a35050919050565b6000600554905090565b60008060009054906101000a900460ff166111b6576040517f08c379a000000000000000000000000000000000000000000000000000000000815260040180806020018281038252600f8152602001807f4d61726b657420696e616374697665000000000000000000000000000000000081525060200191505060405180910390fd5b60006111c183611f3c565b905060008111611239576040517f08c379a00000000000000000000000000000000000000000000000000000000081526004018080602001828103825260188152602001807f546f6b656e732072657175657374656420746f6f206c6f77000000000000000081525060200191505060405180910390fd5b600060649050600061128d61127e61125c600154856124d390919063ffffffff16565b61127060648761255b90919063ffffffff16565b6125e190919063ffffffff16565b8461244a90919063ffffffff16565b9050600360009054906101000a900473ffffffffffffffffffffffffffffffffffffffff1673ffffffffffffffffffffffffffffffffffffffff166323b872dd3330866040518463ffffffff1660e01b8152600401808473ffffffffffffffffffffffffffffffffffffffff1673ffffffffffffffffffffffffffffffffffffffff1681526020018373ffffffffffffffffffffffffffffffffffffffff1673ffffffffffffffffffffffffffffffffffffffff1681526020018281526020019350505050602060405180830381600087803b15801561136c57600080fd5b505af1158015611380573d6000803e3d6000fd5b505050506040513d602081101561139657600080fd5b810190808051906020019092919050505050600360009054906101000a900473ffffffffffffffffffffffffffffffffffffffff1673ffffffffffffffffffffffffffffffffffffffff1663a9059cbb600060019054906101000a900473ffffffffffffffffffffffffffffffffffffffff16836040518363ffffffff1660e01b8152600401808373ffffffffffffffffffffffffffffffffffffffff1673ffffffffffffffffffffffffffffffffffffffff16815260200182815260200192505050602060405180830381600087803b15801561147357600080fd5b505af1158015611487573d6000803e3d6000fd5b505050506040513d602081101561149d57600080fd5b8101908080519060200190929190505050611520576040517f08c379a00000000000000000000000000000000000000000000000000000000081526004018080602001828103825260198152602001807f5661756c7420746178206e6f74207472616e736665727265640000000000000081525060200191505060405180910390fd5b611535856004546124d390919063ffffffff16565b60048190555061158d85600760003373ffffffffffffffffffffffffffffffffffffffff1673ffffffffffffffffffffffffffffffffffffffff168152602001908152602001600020546124d390919063ffffffff16565b600760003373ffffffffffffffffffffffffffffffffffffffff1673ffffffffffffffffffffffffffffffffffffffff16815260200190815260200160002081905550600060019054906101000a900473ffffffffffffffffffffffffffffffffffffffff1673ffffffffffffffffffffffffffffffffffffffff166333545eee6040518163ffffffff1660e01b8152600401602060405180830381600087803b15801561163a57600080fd5b505af115801561164e573d6000803e3d6000fd5b505050506040513d602081101561166457600080fd5b81019080805190602001909291905050506116e7576040517f08c379a00000000000000000000000000000000000000000000000000000000081526004018080602001828103825260198152602001807f46756e64696e672076616c69646174696f6e206661696c65640000000000000081525060200191505060405180910390fd5b8573ffffffffffffffffffffffffffffffffffffffff16600073ffffffffffffffffffffffffffffffffffffffff167fddf252ad1be2c89b69c2b068fc378daa952ba7f163c4a11628f55a4df523b3ef876040518082815260200191505060405180910390a36001935050505092915050565b60008060009054906101000a900460ff166117dd576040517f08c379a000000000000000000000000000000000000000000000000000000000815260040180806020018281038252600f8152602001807f4d61726b657420696e616374697665000000000000000000000000000000000081525060200191505060405180910390fd5b81600760003373ffffffffffffffffffffffffffffffffffffffff1673ffffffffffffffffffffffffffffffffffffffff168152602001908152602001600020541015611892576040517f08c379a000000000000000000000000000000000000000000000000000000000815260040180806020018281038252601b8152602001807f4e6f7420656e6f75676820746f6b656e7320617661696c61626c65000000000081525060200191505060405180910390fd5b600061189d83612097565b90506118b48360045461244a90919063ffffffff16565b60048190555061190c83600760003373ffffffffffffffffffffffffffffffffffffffff1673ffffffffffffffffffffffffffffffffffffffff1681526020019081526020016000205461244a90919063ffffffff16565b600760003373ffffffffffffffffffffffffffffffffffffffff1673ffffffffffffffffffffffffffffffffffffffff16815260200190815260200160002081905550600360009054906101000a900473ffffffffffffffffffffffffffffffffffffffff1673ffffffffffffffffffffffffffffffffffffffff1663a9059cbb33836040518363ffffffff1660e01b8152600401808373ffffffffffffffffffffffffffffffffffffffff1673ffffffffffffffffffffffffffffffffffffffff16815260200182815260200192505050602060405180830381600087803b1580156119f857600080fd5b505af1158015611a0c573d6000803e3d6000fd5b505050506040513d6020811015611a2257600080fd5b8101908080519060200190929190505050611aa5576040517f08c379a000000000000000000000000000000000000000000000000000000000815260040180806020018281038252600f8152602001807f546f6b656e73206e6f742073656e74000000000000000000000000000000000081525060200191505060405180910390fd5b600073ffffffffffffffffffffffffffffffffffffffff163373ffffffffffffffffffffffffffffffffffffffff167fddf252ad1be2c89b69c2b068fc378daa952ba7f163c4a11628f55a4df523b3ef856040518082815260200191505060405180910390a36001915050919050565b6000600154905090565b6000600760008373ffffffffffffffffffffffffffffffffffffffff1673ffffffffffffffffffffffffffffffffffffffff168152602001908152602001600020549050919050565b6000600360009054906101000a900473ffffffffffffffffffffffffffffffffffffffff1673ffffffffffffffffffffffffffffffffffffffff166370a08231306040518263ffffffff1660e01b8152600401808273ffffffffffffffffffffffffffffffffffffffff1673ffffffffffffffffffffffffffffffffffffffff16815260200191505060206040518083038186803b158015611c0957600080fd5b505afa158015611c1d573d6000803e3d6000fd5b505050506040513d6020811015611c3357600080fd5b8101908080519060200190929190505050905090565b6000600760003373ffffffffffffffffffffffffffffffffffffffff1673ffffffffffffffffffffffffffffffffffffffff16815260200190815260200160002054821115611d00576040517f08c379a00000000000000000000000000000000000000000000000000000000081526004018080602001828103825260128152602001807f496e73756666696369656e742066756e6473000000000000000000000000000081525060200191505060405180910390fd5b600073ffffffffffffffffffffffffffffffffffffffff168373ffffffffffffffffffffffffffffffffffffffff161415611da3576040517f08c379a00000000000000000000000000000000000000000000000000000000081526004018080602001828103825260168152602001807f546172676574206163636f756e7420696e76616c69640000000000000000000081525060200191505060405180910390fd5b611df582600760003373ffffffffffffffffffffffffffffffffffffffff1673ffffffffffffffffffffffffffffffffffffffff1681526020019081526020016000205461244a90919063ffffffff16565b600760003373ffffffffffffffffffffffffffffffffffffffff1673ffffffffffffffffffffffffffffffffffffffff16815260200190815260200160002081905550611e8a82600760008673ffffffffffffffffffffffffffffffffffffffff1673ffffffffffffffffffffffffffffffffffffffff168152602001908152602001600020546124d390919063ffffffff16565b600760008573ffffffffffffffffffffffffffffffffffffffff1673ffffffffffffffffffffffffffffffffffffffff168152602001908152602001600020819055508273ffffffffffffffffffffffffffffffffffffffff163373ffffffffffffffffffffffffffffffffffffffff167fddf252ad1be2c89b69c2b068fc378daa952ba7f163c4a11628f55a4df523b3ef846040518082815260200191505060405180910390a36001905092915050565b600080600360009054906101000a900473ffffffffffffffffffffffffffffffffffffffff1673ffffffffffffffffffffffffffffffffffffffff166370a08231306040518263ffffffff1660e01b8152600401808273ffffffffffffffffffffffffffffffffffffffff1673ffffffffffffffffffffffffffffffffffffffff16815260200191505060206040518083038186803b158015611fde57600080fd5b505afa158015611ff2573d6000803e3d6000fd5b505050506040513d602081101561200857600080fd5b81019080805190602001909291905050509050600061204c8261203e612039876004546124d390919063ffffffff16565b612670565b61244a90919063ffffffff16565b90506000612078606461206a6001548561255b90919063ffffffff16565b6125e190919063ffffffff16565b905061208d81836124d390919063ffffffff16565b9350505050919050565b600080600360009054906101000a900473ffffffffffffffffffffffffffffffffffffffff1673ffffffffffffffffffffffffffffffffffffffff166370a08231306040518263ffffffff1660e01b8152600401808273ffffffffffffffffffffffffffffffffffffffff1673ffffffffffffffffffffffffffffffffffffffff16815260200191505060206040518083038186803b15801561213957600080fd5b505afa15801561214d573d6000803e3d6000fd5b505050506040513d602081101561216357600080fd5b810190808051906020019092919050505090506121a56121966121918560045461244a90919063ffffffff16565b612670565b8261244a90919063ffffffff16565b915050919050565b60008060019054906101000a900473ffffffffffffffffffffffffffffffffffffffff1673ffffffffffffffffffffffffffffffffffffffff163373ffffffffffffffffffffffffffffffffffffffff1614612271576040517f08c379a00000000000000000000000000000000000000000000000000000000081526004018080602001828103825260118152602001807f496e76616c696420726571756573746f7200000000000000000000000000000081525060200191505060405180910390fd5b6000809054906101000a900460ff166122f2576040517f08c379a00000000000000000000000000000000000000000000000000000000081526004018080602001828103825260128152602001807f4d61726b6574206465616374697661746564000000000000000000000000000081525060200191505060405180910390fd5b60008060006101000a81548160ff0219169083151502179055507f66a42cbcfa32eefc570a4d86de8ad4da16de318667980b246524534806d022e260405160405180910390a16001905090565b600061237a61236961236484612356600454612670565b61244a90919063ffffffff16565b612727565b60045461244a90919063ffffffff16565b9050919050565b6000600660008473ffffffffffffffffffffffffffffffffffffffff1673ffffffffffffffffffffffffffffffffffffffff16815260200190815260200160002060008373ffffffffffffffffffffffffffffffffffffffff1673ffffffffffffffffffffffffffffffffffffffff16815260200190815260200160002054905092915050565b600061244360045461243561243085612422600454612670565b6124d390919063ffffffff16565b612727565b61244a90919063ffffffff16565b9050919050565b6000828211156124c2576040517f08c379a000000000000000000000000000000000000000000000000000000000815260040180806020018281038252601e8152602001807f536166654d6174683a207375627472616374696f6e206f766572666c6f77000081525060200191505060405180910390fd5b600082840390508091505092915050565b600080828401905083811015612551576040517f08c379a000000000000000000000000000000000000000000000000000000000815260040180806020018281038252601b8152602001807f536166654d6174683a206164646974696f6e206f766572666c6f77000000000081525060200191505060405180910390fd5b8091505092915050565b60008083141561256e57600090506125db565b600082840290508284828161257f57fe5b04146125d6576040517f08c379a00000000000000000000000000000000000000000000000000000000081526004018080602001828103825260218152602001806127df6021913960400191505060405180910390fd5b809150505b92915050565b6000808211612658576040517f08c379a000000000000000000000000000000000000000000000000000000000815260040180806020018281038252601a8152602001807f536166654d6174683a206469766973696f6e206279207a65726f00000000000081525060200191505060405180910390fd5b600082848161266357fe5b0490508091505092915050565b6000600260009054906101000a900473ffffffffffffffffffffffffffffffffffffffff1673ffffffffffffffffffffffffffffffffffffffff16633fd2300d836040518263ffffffff1660e01b81526004018082815260200191505060206040518083038186803b1580156126e557600080fd5b505afa1580156126f9573d6000803e3d6000fd5b505050506040513d602081101561270f57600080fd5b81019080805190602001909291905050509050919050565b6000600260009054906101000a900473ffffffffffffffffffffffffffffffffffffffff1673ffffffffffffffffffffffffffffffffffffffff1663d0ef837a836040518263ffffffff1660e01b81526004018082815260200191505060206040518083038186803b15801561279c57600080fd5b505afa1580156127b0573d6000803e3d6000fd5b505050506040513d60208110156127c657600080fd5b8101908080519060200190929190505050905091905056fe536166654d6174683a206d756c7469706c69636174696f6e206f766572666c6f77a265627a7a72305820f44526dae639bf48644e96dabb932c03f9c8d0b8da3600d9dff19376e5e3cb8e64736f6c634300050a0032",
  "source": "pragma solidity 0.5.10;\n\nimport { SafeMath } from \"openzeppelin-solidity/contracts/math/SafeMath.sol\";\nimport { IMarket } from \"./IMarket.sol\";\nimport { IVault } from \"../vault/IVault.sol\";\nimport { IERC20 } from \"openzeppelin-solidity/contracts/token/ERC20/IERC20.sol\";\nimport { ICurveFunctions } from \"../_curveIntegrals/v1/ICurveFunctions.sol\";\n\n/**\n  * @author Veronica & Ryan of Linum Labs\n  * @title Market\n  */\ncontract Market is IMarket, IERC20 {\n    using SafeMath for uint256;\n\n    //Allows market to be deactivated after funding\n    bool internal active_ = true;\n    // Vault that recives taxation\n    IVault internal creatorVault_;\n    // Percentage of vault taxation e.g. 20\n    uint256 internal taxationRate_;\n    // Address of curve function\n    ICurveFunctions internal curveLibrary_;\n    // Underlying collateral token\n    IERC20 internal collateralToken_;\n    // Total minted tokens\n    uint256 internal totalSupply_;\n    // Decimal accuracy of token\n    uint256 internal decimals_ = 18;\n\n    // Allowances for spenders\n    mapping(address => mapping (address => uint256)) internal allowed;\n    // Balances of token holders\n    mapping(address => uint256) internal balances;\n\n    event Approval(address indexed owner, address indexed spender, uint256 value);\n    event Transfer(address indexed from, address indexed to, uint value);\n    // event Mint(address indexed to, uint256 amount, uint256 totalCost);\n    // event Burn(address indexed from, uint256 amount, uint256 reward);\n    event MarketTerminated();\n\n    /**\n      * @param _taxationRate        : uint256 - The percentage for taxation i.e 20\n      * @param _creatorVault        : address - The vault for taxation to go to\n      * @param _curveLibrary        : address - Vyper math module\n      * @param _collateralToken     : address - The ERC20 collateral tokem\n      */\n    constructor(\n        uint256 _taxationRate,\n        address _creatorVault,\n        address _curveLibrary,\n        address _collateralToken\n    )\n        public\n    {\n        taxationRate_ = _taxationRate;\n        creatorVault_ = IVault(_creatorVault);\n        curveLibrary_ = ICurveFunctions(_curveLibrary);\n        collateralToken_ = IERC20(_collateralToken);\n    }\n\n    modifier onlyActive(){\n        require(active_, \"Market inactive\");\n        _;\n    }\n\n    modifier onlyVault(){\n        require(msg.sender == address(creatorVault_), \"Invalid requestor\");\n        _;\n    }\n\n    /**\n      * @dev                Approves transfers for a given address\n      * @param _spender     : address - The account that will receive the funds.\n      * @param _value       : uint256 - The value of funds accessed.\n      * @return             : boolean - Indicating the action was successful.\n      */\n    function approve(\n        address _spender,\n        uint256 _value\n    )\n        external\n        returns (bool)\n    {\n        allowed[msg.sender][_spender] = _value;\n        emit Approval(msg.sender, _spender, _value);\n        return true;\n    }\n\n    /**\n      * @dev                Selling tokens back to the bonding curve for collateral\n      * @param _numTokens   The number of tokens that you want to burn\n      */\n    function burn(uint256 _numTokens) external onlyActive() returns(bool) {\n        require(balances[msg.sender] >= _numTokens, \"Not enough tokens available\");\n\n        uint256 rewardForBurn = rewardForBurn(_numTokens);\n\n        totalSupply_ = totalSupply_.sub(_numTokens);\n        balances[msg.sender] = balances[msg.sender].sub(_numTokens);\n\n        require(\n            collateralToken_.transfer(\n                msg.sender,\n                rewardForBurn\n            ),\n            \"Tokens not sent\"\n        );\n\n        emit Transfer(msg.sender, address(0), _numTokens);\n        return true;\n    }\n\n    /// @dev                Mint new tokens with ether\n    /// @param _to          :address Address to mint tokens to\n    /// @param _numTokens   :uint256 The number of tokens you want to mint\n    /// @dev                We have modified the minting function to divert a portion of the purchase tokens\n    function mint(address _to, uint256 _numTokens) external onlyActive() returns(bool) {\n        uint256 priceForTokens = priceToMint(_numTokens);\n        require(priceForTokens > 0, \"Tokens requested too low\");\n\n        uint256 baseUnit = 100;\n        uint256 tax = priceForTokens.sub(priceForTokens.mul(100).div(baseUnit.add(taxationRate_)));\n\n        collateralToken_.transferFrom(\n            msg.sender,\n            address(this),\n            priceForTokens\n        );\n\n        require(\n            collateralToken_.transfer(\n                address(creatorVault_),\n                tax\n            ),\n            \"Vault tax not transferred\"\n        );\n\n        totalSupply_ = totalSupply_.add(_numTokens);\n        balances[msg.sender] = balances[msg.sender].add(_numTokens);\n\n        require(creatorVault_.validateFunding(), \"Funding validation failed\");\n\n        emit Transfer(address(0), _to, _numTokens);\n        return true;\n    }\n\n    // [ERC20 functions]\n\n    /// @dev                        Transfer ownership token from msg.sender to a specified address\n    /// @param _to                  : address The address to transfer to.\n    /// @param _value               : uint256 The amount to be transferred.\n    function transfer(address _to, uint256 _value) public returns (bool) {\n        require(_value <= balances[msg.sender], \"Insufficient funds\");\n        require(_to != address(0), \"Target account invalid\");\n\n        balances[msg.sender] = balances[msg.sender].sub(_value);\n        balances[_to] = balances[_to].add(_value);\n        emit Transfer(msg.sender, _to, _value);\n        return true;\n    }\n\n    /// @dev                Transfer tokens from one address to another\n    /// @param _from        :address The address which you want to send tokens from\n    /// @param _to          :address The address which you want to transfer to\n    /// @param _value       :uint256 the amount of tokens to be transferred\n    function transferFrom(\n        address _from,\n        address _to,\n        uint256 _value\n    )\n        public\n        returns (bool)\n    {\n        require(_value <= balances[_from], \"Requested amount exceeds balance\");\n        require(_value <= allowed[_from][msg.sender], \"Allowance exceeded\");\n        require(_to != address(0), \"Target account invalid\");\n\n        balances[_from] = balances[_from].sub(_value);\n        balances[_to] = balances[_to].add(_value);\n\n        allowed[_from][msg.sender] = allowed[_from][msg.sender].sub(_value);\n\n        emit Transfer(_from, _to, _value);\n        return true;\n    }\n\n    /**\n      * @dev    Allows the market to end once all funds have been raised.\n      *         Only the vault can end the market.\n      */\n    function finaliseMarket() public onlyVault() returns(bool) {\n        require(active_, \"Market deactivated\");\n        active_ = false;\n        emit MarketTerminated();\n        return true;\n    }\n\n    /**\n      * @dev Allows for a token holder to get collateral in return for\n      *      their tokens after the market has endedd.\n      */\n    function withdraw(uint256 _amount) public returns(bool) {\n        require(active_ == false, \"Market not finalised\");\n        require(_amount <= balances[msg.sender], \"Insufficient funds\");\n        require(_amount > 0, \"Cannot withdraw 0\");\n\n        balances[msg.sender] = balances[msg.sender].sub(_amount);\n\n        uint256 poolBalance = collateralToken_.balanceOf(address(this));\n\n        // Performs a flat linear 100% collateralized sale\n        uint256 daiToTransfer = poolBalance.mul(_amount).div(totalSupply_);\n        totalSupply_ = totalSupply_.sub(_amount);\n\n        require(collateralToken_.transfer(msg.sender, daiToTransfer), \"Dai transfer failed\");\n\n        emit Transfer(address(this), msg.sender, _amount);\n    }\n\n    // [Pricing functions]\n    /// @dev                Returns the required collateral amount for a volume of bonding curve tokens\n    /// @return             :uint256 Required collateral\n    function priceToMint(uint256 _numTokens) public view returns(uint256) {\n        uint256 poolBalance = collateralToken_.balanceOf(address(this));\n        uint256 untaxedDai = _curveIntegral(totalSupply_.add(_numTokens)).sub(poolBalance);\n\n        uint256 tax = untaxedDai.mul(taxationRate_).div(100);\n        return untaxedDai.add(tax);\n    }\n\n    /// @dev                Returns the required collateral amount for a volume of bonding curve tokens\n    /// @return             Potential return collateral\n    function rewardForBurn(uint256 _numTokens) public view returns(uint256) {\n        uint256 poolBalanceFetched = collateralToken_.balanceOf(address(this));\n        return poolBalanceFetched.sub(_curveIntegral(totalSupply_.sub(_numTokens)));\n    }\n\n    /// @dev                This function returns the amount of tokens one can receive for a specified amount of collateral token\n    /// @param  _collateralTokenOffered  :uint256 Amount of reserve token offered for purchase\n    function collateralToTokenBuying(uint256 _collateralTokenOffered) external view returns(uint256) {\n        return _inverseCurveIntegral(_curveIntegral(totalSupply_).add(_collateralTokenOffered)).sub(totalSupply_);\n    }\n\n    /// @dev                            This function returns the amount of tokens needed to be burnt to withdraw a specified amount of reserve token\n    /// @param  _collateralTokenNeeded  :uint256 Amount of dai to be withdraw\n    function collateralToTokenSelling(uint256 _collateralTokenNeeded) external view returns(uint256) {\n        return uint256(\n            totalSupply_.sub(\n                _inverseCurveIntegral(_curveIntegral(totalSupply_).sub(_collateralTokenNeeded))\n            )\n        );\n    }\n\n    /// @dev                Gets the value of the current allowance specifed for that account\n    /// @param _owner       :address The account sending the funds.\n    /// @param _spender     :address The account that will receive the funds.\n    /// @return             An uint256 representing the amount owned by the passed address.\n    function allowance(address _owner, address _spender)\n        external\n        view\n        returns (uint256)\n    {\n        return allowed[_owner][_spender];\n    }\n\n    /// @dev                Gets the balance of the specified address.\n    /// @param _owner       :address The address to query the the balance of.\n    /// @return             An uint256 representing the amount owned by the passed address.\n    function balanceOf(address _owner) external view returns (uint256) {\n        return balances[_owner];\n    }\n\n    /// @dev                Total collateral backing the curve\n    /// @return             A uint256 representing the total collateral backing the curve\n    function poolBalance() external view returns (uint256){\n        return collateralToken_.balanceOf(address(this));\n    }\n\n    /// @dev                Total number of tokens in existence\n    /// @return             A uint256 representing the total supply of tokens in this market\n    function totalSupply() external view returns (uint256) {\n        return totalSupply_;\n    }\n\n    /// @dev                Returns the contribution rate for the market on Token purchase\n    /// @return             :uint256 The percentage of incoming collateral collected as revenue\n    function taxationRate() external view returns(uint256) {\n        return taxationRate_;\n    }\n\n    /// @dev                Returns the decimals set for the market\n    /// @return             :uint256 The decimals set for the market\n    function decimals() external view returns(uint256) {\n        return decimals_;\n    }\n\n    function active() external view returns(bool){\n        return active_;\n    }\n\n    // Private\n    /// @dev                Calculate the integral from 0 to x tokens supply\n    /// @param _x            The number of tokens supply to integrate to\n    /// @return             The total supply in tokens, not wei\n    function _curveIntegral(uint256 _x) internal view returns (uint256) {\n        return curveLibrary_.curveIntegral(_x);\n    }\n\n    /// @dev                Inverse integral to convert the incoming colateral value to token volume\n    /// @param _x           :uint256 The volume to identify the root off\n    function _inverseCurveIntegral(uint256 _x) internal view returns(uint256){\n        return curveLibrary_.inverseCurveIntegral(_x);\n    }\n}\n",
  "sourcePath": "/home/bscholtz/LinumLabs/workspace/molecule-alpha/Blockchain/contracts/market/Market.sol",
  "compiler": {
    "name": "solc",
    "version": "0.5.10+commit.5a6ea5b1.Emscripten.clang",
    "optimizer": false,
    "runs": 200
  },
  "schemaVersion": "2.2.0",
  "updatedAt": "2019-09-02T09:22:46.904Z"
}