{
  "contractName": "MarketRegistry",
  "abi": [
    {
      "constant": false,
      "inputs": [],
      "name": "renounceWhitelistAdmin",
      "outputs": [],
      "payable": false,
      "stateMutability": "nonpayable",
      "type": "function"
    },
    {
      "constant": false,
      "inputs": [
        {
          "name": "account",
          "type": "address"
        }
      ],
      "name": "addWhitelistAdmin",
      "outputs": [],
      "payable": false,
      "stateMutability": "nonpayable",
      "type": "function"
    },
    {
      "constant": true,
      "inputs": [
        {
          "name": "account",
          "type": "address"
        }
      ],
      "name": "isWhitelistAdmin",
      "outputs": [
        {
          "name": "",
          "type": "bool"
        }
      ],
      "payable": false,
      "stateMutability": "view",
      "type": "function"
    },
    {
      "inputs": [],
      "payable": false,
      "stateMutability": "nonpayable",
      "type": "constructor"
    },
    {
      "anonymous": false,
      "inputs": [
        {
          "indexed": false,
          "name": "index",
          "type": "uint256"
        },
        {
          "indexed": true,
          "name": "marketAddress",
          "type": "address"
        },
        {
          "indexed": true,
          "name": "vault",
          "type": "address"
        },
        {
          "indexed": true,
          "name": "creator",
          "type": "address"
        }
      ],
      "name": "MarketCreated",
      "type": "event"
    },
    {
      "anonymous": false,
      "inputs": [
        {
          "indexed": false,
          "name": "deployer",
          "type": "address"
        },
        {
          "indexed": false,
          "name": "version",
          "type": "string"
        }
      ],
      "name": "DeployerAdded",
      "type": "event"
    },
    {
      "anonymous": false,
      "inputs": [
        {
          "indexed": false,
          "name": "deployer",
          "type": "address"
        },
        {
          "indexed": false,
          "name": "reason",
          "type": "string"
        }
      ],
      "name": "DeployerRemoved",
      "type": "event"
    },
    {
      "anonymous": false,
      "inputs": [
        {
          "indexed": true,
          "name": "account",
          "type": "address"
        }
      ],
      "name": "WhitelistAdminAdded",
      "type": "event"
    },
    {
      "anonymous": false,
      "inputs": [
        {
          "indexed": true,
          "name": "account",
          "type": "address"
        }
      ],
      "name": "WhitelistAdminRemoved",
      "type": "event"
    },
    {
      "constant": false,
      "inputs": [
        {
          "name": "_newDeployer",
          "type": "address"
        },
        {
          "name": "_version",
          "type": "string"
        }
      ],
      "name": "addMarketDeployer",
      "outputs": [],
      "payable": false,
      "stateMutability": "nonpayable",
      "type": "function"
    },
    {
      "constant": false,
      "inputs": [
        {
          "name": "_deployerToRemove",
          "type": "address"
        },
        {
          "name": "_reason",
          "type": "string"
        }
      ],
      "name": "removeMarketDeployer",
      "outputs": [],
      "payable": false,
      "stateMutability": "nonpayable",
      "type": "function"
    },
    {
      "constant": false,
      "inputs": [
        {
          "name": "_marketAddress",
          "type": "address"
        },
        {
          "name": "_vault",
          "type": "address"
        },
        {
          "name": "_creator",
          "type": "address"
        }
      ],
      "name": "registerMarket",
      "outputs": [
        {
          "name": "",
          "type": "uint256"
        }
      ],
      "payable": false,
      "stateMutability": "nonpayable",
      "type": "function"
    },
    {
      "constant": true,
      "inputs": [
        {
          "name": "_index",
          "type": "uint256"
        }
      ],
      "name": "getMarket",
      "outputs": [
        {
          "name": "",
          "type": "address"
        },
        {
          "name": "",
          "type": "address"
        },
        {
          "name": "",
          "type": "address"
        }
      ],
      "payable": false,
      "stateMutability": "view",
      "type": "function"
    },
    {
      "constant": true,
      "inputs": [],
      "name": "getIndex",
      "outputs": [
        {
          "name": "",
          "type": "uint256"
        }
      ],
      "payable": false,
      "stateMutability": "view",
      "type": "function"
    },
    {
      "constant": true,
      "inputs": [
        {
          "name": "_deployer",
          "type": "address"
        }
      ],
      "name": "isMarketDeployer",
      "outputs": [
        {
          "name": "",
          "type": "bool"
        }
      ],
      "payable": false,
      "stateMutability": "view",
      "type": "function"
    },
    {
      "constant": true,
      "inputs": [],
      "name": "publishedBlocknumber",
      "outputs": [
        {
          "name": "",
          "type": "uint256"
        }
      ],
      "payable": false,
      "stateMutability": "view",
      "type": "function"
    }
  ],
  "bytecode": "0x6080604052600060035534801561001557600080fd5b50610028336001600160e01b0361003116565b436004556101a5565b61004981600061008060201b6108981790919060201c565b6040516001600160a01b038216907f22380c05984257a1cb900161c713dd71d39e74820f1aea43bd3f1bdd2096129990600090a250565b61009382826001600160e01b0361012416565b156100ff57604080517f08c379a000000000000000000000000000000000000000000000000000000000815260206004820152601f60248201527f526f6c65733a206163636f756e7420616c72656164792068617320726f6c6500604482015290519081900360640190fd5b6001600160a01b0316600090815260209190915260409020805460ff19166001179055565b60006001600160a01b038216610185576040517f08c379a0000000000000000000000000000000000000000000000000000000008152600401808060200182810382526022815260200180610b856022913960400191505060405180910390fd5b506001600160a01b03166000908152602091909152604090205460ff1690565b6109d1806101b46000396000f3fe608060405234801561001057600080fd5b506004361061009e5760003560e01c8063c6622d2311610066578063c6622d23146101a7578063c7bc9e30146101cd578063d2a422681461024d578063df6b4bb714610285578063eb44fdd31461028d5761009e565b806331717ef3146100a35780634c5a628c146101255780637362d9c81461012d57806381045ead14610153578063bb5f747b1461016d575b600080fd5b610123600480360360408110156100b957600080fd5b6001600160a01b0382351691908101906040810160208201356401000000008111156100e457600080fd5b8201836020820111156100f657600080fd5b8035906020019184600183028401116401000000008311171561011857600080fd5b5090925090506102d5565b005b61012361041c565b6101236004803603602081101561014357600080fd5b50356001600160a01b0316610427565b61015b610477565b60408051918252519081900360200190f35b6101936004803603602081101561018357600080fd5b50356001600160a01b031661047d565b604080519115158252519081900360200190f35b610193600480360360208110156101bd57600080fd5b50356001600160a01b0316610495565b610123600480360360408110156101e357600080fd5b6001600160a01b03823516919081019060408101602082013564010000000081111561020e57600080fd5b82018360208201111561022057600080fd5b8035906020019184600183028401116401000000008311171561024257600080fd5b5090925090506104b3565b61015b6004803603606081101561026357600080fd5b506001600160a01b0381358116916020810135821691604090910135166105f1565b61015b610703565b6102aa600480360360208110156102a357600080fd5b5035610709565b604080516001600160a01b039485168152928416602084015292168183015290519081900360600190f35b6102de3361047d565b6103195760405162461bcd60e51b815260040180806020018281038252604081526020018061095d6040913960400191505060405180910390fd5b6001600160a01b03831660009081526002602052604090205460ff1615156001141561038c576040805162461bcd60e51b815260206004820152601060248201527f416c726561647920617070726f76656400000000000000000000000000000000604482015290519081900360640190fd5b6001600160a01b038316600081815260026020908152604091829020805460ff19166001179055815192835282018181529082018390527fcc2765917e3afff500d8ead143bdbee3d614a301693c093aabe15ebe2014a9bd9185918591859160608201848480828437600083820152604051601f909101601f1916909201829003965090945050505050a1505050565b6104253361073a565b565b6104303361047d565b61046b5760405162461bcd60e51b815260040180806020018281038252604081526020018061095d6040913960400191505060405180910390fd5b61047481610782565b50565b60035490565b600061048f818363ffffffff6107ca16565b92915050565b6001600160a01b031660009081526002602052604090205460ff1690565b6104bc3361047d565b6104f75760405162461bcd60e51b815260040180806020018281038252604081526020018061095d6040913960400191505060405180910390fd5b6001600160a01b03831660009081526002602052604090205460ff16610564576040805162461bcd60e51b815260206004820152601060248201527f416c726561647920696e61637469766500000000000000000000000000000000604482015290519081900360640190fd5b6001600160a01b038316600081815260026020908152604091829020805460ff19169055815192835282018181529082018390527fe5e0c598f53224319bd76423a66ff83de40143779c23dcaa369ae187f8ffabfc9185918591859160608201848480828437600083820152604051601f909101601f1916909201829003965090945050505050a1505050565b3360009081526002602052604081205460ff16151560011461065a576040805162461bcd60e51b815260206004820152601760248201527f4465706c6f796572206e6f742072656769737465726564000000000000000000604482015290519081900360640190fd5b6003805460018082019092556000818152602083815260409182902080546001600160a01b03808b1673ffffffffffffffffffffffffffffffffffffffff199283168117845596830180548b8316908416811790915560029093018054918a169190921681179091558351858152935194959094919390927fe4aa324a80899358fb4a460836947a422f4df85aa94d768c738806d61d9bc9a292918290030190a4949350505050565b60045490565b60009081526001602081905260409091208054918101546002909101546001600160a01b0392831693918316921690565b61074b60008263ffffffff61083116565b6040516001600160a01b038216907f0a8eb35e5ca14b3d6f28e4abf2f128dbab231a58b56e89beb5d636115001e16590600090a250565b61079360008263ffffffff61089816565b6040516001600160a01b038216907f22380c05984257a1cb900161c713dd71d39e74820f1aea43bd3f1bdd2096129990600090a250565b60006001600160a01b0382166108115760405162461bcd60e51b815260040180806020018281038252602281526020018061093b6022913960400191505060405180910390fd5b506001600160a01b03166000908152602091909152604090205460ff1690565b61083b82826107ca565b6108765760405162461bcd60e51b815260040180806020018281038252602181526020018061091a6021913960400191505060405180910390fd5b6001600160a01b0316600090815260209190915260409020805460ff19169055565b6108a282826107ca565b156108f4576040805162461bcd60e51b815260206004820152601f60248201527f526f6c65733a206163636f756e7420616c72656164792068617320726f6c6500604482015290519081900360640190fd5b6001600160a01b0316600090815260209190915260409020805460ff1916600117905556fe526f6c65733a206163636f756e7420646f6573206e6f74206861766520726f6c65526f6c65733a206163636f756e7420697320746865207a65726f206164647265737357686974656c69737441646d696e526f6c653a2063616c6c657220646f6573206e6f742068617665207468652057686974656c69737441646d696e20726f6c65a265627a7a72305820ff0c4c60201650d039db0f5d4f14ce19250333ab64c9f4a7903eb72b145de43764736f6c634300050a0032526f6c65733a206163636f756e7420697320746865207a65726f2061646472657373",
  "source": "pragma solidity 0.5.10;\n\nimport { WhitelistAdminRole } from \"openzeppelin-solidity/contracts/access/roles/WhitelistAdminRole.sol\";\nimport { IMarketRegistry } from \"./IMarketRegistry.sol\";\n\ncontract MarketRegistry is IMarketRegistry, WhitelistAdminRole {\n    mapping(uint256 => Market) internal markets_;\n    mapping(address => bool) internal deployer_;\n\n    uint256 internal numberOfMarkets_ = 0;\n    uint256 internal publishedBlocknumber_;\n\n    struct Market {\n        address marketAddress;\n        address vault;\n        address creator;\n    }\n\n    event MarketCreated(uint256 index, address indexed marketAddress, address indexed vault, address indexed creator);\n    event DeployerAdded(address deployer, string version);\n    event DeployerRemoved(address deployer, string reason);\n\n    constructor() public WhitelistAdminRole(){\n        publishedBlocknumber_ = block.number;\n    }\n\n    modifier isRegisteredDeployer(){\n        require(deployer_[msg.sender] == true, \"Deployer not registered\");\n        _;\n    }\n\n    /// @dev                            Adds a new market deployer to the registry\n    /// @param _newDeployer             :address Address of the new market deployer\n    /// @param _version                 :string Log text for tracking purposes\n    /// @author Ryan\n    function addMarketDeployer(\n        address _newDeployer,\n        string calldata _version\n    )\n        external\n        onlyWhitelistAdmin()\n    {\n        require(deployer_[_newDeployer] != true, \"Already approved\");\n        deployer_[_newDeployer] = true;\n        emit DeployerAdded(_newDeployer, _version);\n    }\n\n    /// @dev                            Removes a market deployer from the registry\n    /// @param _deployerToRemove        :address Address of the market deployer to remove\n    /// @param _reason                  :string Log text for tracking purposes\n    /// @author Ryan\n    function removeMarketDeployer(\n        address _deployerToRemove, \n        string calldata _reason\n    ) \n        external \n        onlyWhitelistAdmin()\n    {\n        require(deployer_[_deployerToRemove] != false, \"Already inactive\");\n        deployer_[_deployerToRemove] = false;\n        emit DeployerRemoved(_deployerToRemove, _reason);\n    }\n\n    /// @dev                            Logs the market into the registery\n    /// @param _vault                   :address Address of the vault\n    /// @param _creator                 :address Creator of the market\n    /// @return uint256                 Returns the index of market for looking up\n    /// @author Ryan\n    function registerMarket(\n        address _marketAddress,\n        address _vault,\n        address _creator)\n        external\n        isRegisteredDeployer()\n        returns(uint256)\n    {\n        uint256 index = numberOfMarkets_;\n        numberOfMarkets_ = numberOfMarkets_ + 1;\n\n        markets_[index].marketAddress = _marketAddress;\n        markets_[index].vault = _vault;\n        markets_[index].creator = _creator;\n\n        emit MarketCreated(\n            index,\n            _marketAddress,\n            _vault,\n            _creator\n        );\n\n        return index;\n    }\n\n    /// Fetching market data\n    /// @param _index                   :uint256 Index of the market\n    /// @dev                            Fetches all data and contract addresses of deployed markets by index, kept as interface for later intergration\n    /// @return Market                  Returns a market struct matching the provided index\n    /// @author Ryan\n    function getMarket(uint256 _index)\n        external\n        view\n        returns(\n            address,\n            address,\n            address\n        )\n    {\n        return (\n            markets_[_index].marketAddress,\n            markets_[_index].vault,\n            markets_[_index].creator\n        );\n    }\n\n    /// @dev                            Fetchs the current number of markets infering maximum callable index\n    /// @return Index                   Returns the index of markets for looking up\n    /// @author Ryan\n    function getIndex()\n        external\n        view\n        returns(uint256)\n    {\n        return numberOfMarkets_;\n    }\n\n    /// @dev                            Used to check if the deployer is registered\n    /// @return bool                    A simple bool to indicate state\n    /// @author Ryan\n    function isMarketDeployer(address _deployer) external view returns(bool){\n        return deployer_[_deployer];\n    }\n\n    /// @dev                            In order to look up logs efficently, the published block is available\n    /// @return uint256                 The block when the contract was published\n    /// @author Ryan\n    function publishedBlocknumber() external view returns(uint256) {\n        return publishedBlocknumber_;\n    }\n}\n",
  "sourcePath": "/home/bscholtz/LinumLabs/workspace/molecule-alpha_feature-8/Blockchain/contracts/marketRegistry/MarketRegistry.sol",
  "compiler": {
    "name": "solc",
    "version": "0.5.10+commit.5a6ea5b1.Emscripten.clang",
    "optimizer": true,
    "runs": 500
  },
  "schemaVersion": "2.1.7",
  "updatedAt": "2019-08-12T11:56:49.060Z"
}