{
  "contractName": "Vault",
  "abi": [
    {
      "constant": false,
      "inputs": [],
      "name": "renounceWhitelistAdmin",
      "outputs": [],
      "payable": false,
      "stateMutability": "nonpayable",
      "type": "function"
    },
    {
      "constant": false,
      "inputs": [
        {
          "name": "account",
          "type": "address"
        }
      ],
      "name": "addWhitelistAdmin",
      "outputs": [],
      "payable": false,
      "stateMutability": "nonpayable",
      "type": "function"
    },
    {
      "constant": true,
      "inputs": [
        {
          "name": "account",
          "type": "address"
        }
      ],
      "name": "isWhitelistAdmin",
      "outputs": [
        {
          "name": "",
          "type": "bool"
        }
      ],
      "payable": false,
      "stateMutability": "view",
      "type": "function"
    },
    {
      "inputs": [
        {
          "name": "_fundingGoals",
          "type": "uint256[]"
        },
        {
          "name": "_phaseDurations",
          "type": "uint256[]"
        },
        {
          "name": "_creator",
          "type": "address"
        },
        {
          "name": "_collateralToken",
          "type": "address"
        },
        {
          "name": "_moleculeVault",
          "type": "address"
        }
      ],
      "payable": false,
      "stateMutability": "nonpayable",
      "type": "constructor"
    },
    {
      "anonymous": false,
      "inputs": [
        {
          "indexed": false,
          "name": "phase",
          "type": "uint256"
        },
        {
          "indexed": false,
          "name": "amount",
          "type": "uint256"
        }
      ],
      "name": "FundingWithdrawn",
      "type": "event"
    },
    {
      "anonymous": false,
      "inputs": [
        {
          "indexed": false,
          "name": "phase",
          "type": "uint256"
        },
        {
          "indexed": false,
          "name": "amount",
          "type": "uint256"
        }
      ],
      "name": "PhaseFinalised",
      "type": "event"
    },
    {
      "anonymous": false,
      "inputs": [
        {
          "indexed": true,
          "name": "account",
          "type": "address"
        }
      ],
      "name": "WhitelistAdminAdded",
      "type": "event"
    },
    {
      "anonymous": false,
      "inputs": [
        {
          "indexed": true,
          "name": "account",
          "type": "address"
        }
      ],
      "name": "WhitelistAdminRemoved",
      "type": "event"
    },
    {
      "constant": false,
      "inputs": [
        {
          "name": "_market",
          "type": "address"
        }
      ],
      "name": "initialize",
      "outputs": [
        {
          "name": "",
          "type": "bool"
        }
      ],
      "payable": false,
      "stateMutability": "nonpayable",
      "type": "function"
    },
    {
      "constant": false,
      "inputs": [
        {
          "name": "_phase",
          "type": "uint256"
        }
      ],
      "name": "withdraw",
      "outputs": [
        {
          "name": "",
          "type": "bool"
        }
      ],
      "payable": false,
      "stateMutability": "nonpayable",
      "type": "function"
    },
    {
      "constant": false,
      "inputs": [],
      "name": "validateFunding",
      "outputs": [
        {
          "name": "",
          "type": "bool"
        }
      ],
      "payable": false,
      "stateMutability": "nonpayable",
      "type": "function"
    },
    {
      "constant": false,
      "inputs": [],
      "name": "terminateMarket",
      "outputs": [],
      "payable": false,
      "stateMutability": "nonpayable",
      "type": "function"
    },
    {
      "constant": true,
      "inputs": [
        {
          "name": "_phase",
          "type": "uint256"
        }
      ],
      "name": "fundingPhase",
      "outputs": [
        {
          "name": "",
          "type": "uint256"
        },
        {
          "name": "",
          "type": "uint256"
        },
        {
          "name": "",
          "type": "uint256"
        },
        {
          "name": "",
          "type": "uint8"
        }
      ],
      "payable": false,
      "stateMutability": "view",
      "type": "function"
    },
    {
      "constant": true,
      "inputs": [],
      "name": "outstandingWithdraw",
      "outputs": [
        {
          "name": "",
          "type": "uint256"
        }
      ],
      "payable": false,
      "stateMutability": "view",
      "type": "function"
    },
    {
      "constant": true,
      "inputs": [],
      "name": "currentPhase",
      "outputs": [
        {
          "name": "",
          "type": "uint256"
        }
      ],
      "payable": false,
      "stateMutability": "view",
      "type": "function"
    },
    {
      "constant": true,
      "inputs": [],
      "name": "market",
      "outputs": [
        {
          "name": "",
          "type": "address"
        }
      ],
      "payable": false,
      "stateMutability": "view",
      "type": "function"
    },
    {
      "constant": true,
      "inputs": [],
      "name": "creator",
      "outputs": [
        {
          "name": "",
          "type": "address"
        }
      ],
      "payable": false,
      "stateMutability": "view",
      "type": "function"
    }
  ],
  "bytecode": "0x60806040523480156200001157600080fd5b5060405162001f6a38038062001f6a833981810160405260a08110156200003757600080fd5b8101908080516401000000008111156200005057600080fd5b820160208101848111156200006457600080fd5b81518560208202830111640100000000821117156200008257600080fd5b505092919060200180516401000000008111156200009f57600080fd5b82016020810184811115620000b357600080fd5b8151856020820283011164010000000082111715620000d157600080fd5b5050602082015160408301516060909301519194509250620000fc336001600160e01b036200046f16565b60008551116200016d57604080517f08c379a000000000000000000000000000000000000000000000000000000000815260206004820152601a60248201527f4e6f2066756e64696e6720676f616c7320737065636966696564000000000000604482015290519081900360640190fd5b600a855110620001de57604080517f08c379a000000000000000000000000000000000000000000000000000000000815260206004820152601760248201527f546f6f206d616e792070686173657320646566696e6564000000000000000000604482015290519081900360640190fd5b83518551146200024f57604080517f08c379a000000000000000000000000000000000000000000000000000000000815260206004820152601b60248201527f496e76616c696420706861736520636f6e66696775726174696f6e0000000000604482015290519081900360640190fd5b6200026583620004c160201b62000eba1760201c565b6000600755600180546001600160a01b038086166001600160a01b0319928316179092556003805485841690831617905560048054848416921691909117808255604080517f771a3a1d0000000000000000000000000000000000000000000000000000000081529051919093169263771a3a1d9281810192602092909190829003018186803b158015620002f957600080fd5b505afa1580156200030e573d6000803e3d6000fd5b505050506040513d60208110156200032557600080fd5b5051600555845160005b8181101562000405576000620003b1620003886005546200037460648c87815181106200035857fe5b60200260200101516200054360201b620010e81790919060201c565b620005cb60201b620011521790919060201c565b8984815181106200039557fe5b60200260200101516200064a60201b620010871790919060201c565b60008381526008602052604090208190558751909150879083908110620003d457fe5b602002602001015160086000848152602001908152602001600020600101819055505080806001019150506200032f565b505060008080526008602052427f5eff886ea0ce6ca488a3d6e336d6c0f75f46d19b42c06ce5ee98e42c96d256c9557f5eff886ea0ce6ca488a3d6e336d6c0f75f46d19b42c06ce5ee98e42c96d256ca805460ff1916600117905560065550620008069350505050565b6200048a816000620006bf60201b620015521790919060201c565b6040516001600160a01b038216907f22380c05984257a1cb900161c713dd71d39e74820f1aea43bd3f1bdd2096129990600090a250565b620004d5336001600160e01b036200076616565b6200052c576040517f08c379a000000000000000000000000000000000000000000000000000000000815260040180806020018281038252604081526020018062001f2a6040913960400191505060405180910390fd5b62000540816001600160e01b036200046f16565b50565b6000808211620005b457604080517f08c379a000000000000000000000000000000000000000000000000000000000815260206004820152601a60248201527f536166654d6174683a206469766973696f6e206279207a65726f000000000000604482015290519081900360640190fd5b6000828481620005c057fe5b049150505b92915050565b600082620005dc57506000620005c5565b82820282848281620005ea57fe5b041462000643576040517f08c379a000000000000000000000000000000000000000000000000000000000815260040180806020018281038252602181526020018062001ee76021913960400191505060405180910390fd5b9392505050565b6000828201838110156200064357604080517f08c379a000000000000000000000000000000000000000000000000000000000815260206004820152601b60248201527f536166654d6174683a206164646974696f6e206f766572666c6f770000000000604482015290519081900360640190fd5b620006d482826001600160e01b036200078316565b156200074157604080517f08c379a000000000000000000000000000000000000000000000000000000000815260206004820152601f60248201527f526f6c65733a206163636f756e7420616c72656164792068617320726f6c6500604482015290519081900360640190fd5b6001600160a01b0316600090815260209190915260409020805460ff19166001179055565b6000620005c58260006200078360201b620012b61790919060201c565b60006001600160a01b038216620007e6576040517f08c379a000000000000000000000000000000000000000000000000000000000815260040180806020018281038252602281526020018062001f086022913960400191505060405180910390fd5b506001600160a01b03166000908152602091909152604090205460ff1690565b6116d180620008166000396000f3fe608060405234801561001057600080fd5b50600436106100d45760003560e01c80635d3a4db911610081578063bb5f747b1161005b578063bb5f747b14610198578063c4d66de8146101be578063cd44461e146101e4576100d4565b80635d3a4db9146101625780637362d9c81461016a57806380f5560514610190576100d4565b806333545eee116100b257806333545eee1461014857806340fb9353146101505780634c5a628c14610158576100d4565b806302d05d3f146100d9578063055ad42e146100fd5780632e1a7d4d14610117575b600080fd5b6100e161023a565b604080516001600160a01b039092168252519081900360200190f35b61010561024a565b60408051918252519081900360200190f35b6101346004803603602081101561012d57600080fd5b5035610250565b604080519115158252519081900360200190f35b61013461064d565b610105610905565b61016061094e565b005b610160610959565b6101606004803603602081101561018057600080fd5b50356001600160a01b0316610eba565b6100e1610f07565b610134600480360360208110156101ae57600080fd5b50356001600160a01b0316610f16565b610134600480360360208110156101d457600080fd5b50356001600160a01b0316610f2e565b610201600480360360208110156101fa57600080fd5b5035610fff565b6040518085815260200184815260200183815260200182600381111561022357fe5b60ff16815260200194505050505060405180910390f35b6001546001600160a01b03165b90565b60065490565b600061025b33610f16565b6102965760405162461bcd60e51b815260040180806020018281038252604081526020018061165d6040913960400191505060405180910390fd5b6002600083815260086020526040902060039081015460ff16908111156102b957fe5b1461030b576040805162461bcd60e51b815260206004820152601560248201527f46756e6420706861736520696e636f6d706c6574650000000000000000000000604482015290519081900360640190fd5b600654600090815260086020526040812060039081015460ff169081111561032f57fe5b14156103c157600260009054906101000a90046001600160a01b03166001600160a01b03166302fb0c5e6040518163ffffffff1660e01b815260040160206040518083038186803b15801561038357600080fd5b505afa158015610397573d6000803e3d6000fd5b505050506040513d60208110156103ad57600080fd5b5051156103bc576103bc610959565b610645565b6000828152600860205260409020546007546103e29163ffffffff61102a16565b600755600082815260086020526040902060039081015460ff168181111561040657fe5b505060055460009061044d9061044161042682606463ffffffff61108716565b6000878152600860205260409020549063ffffffff6110e816565b9063ffffffff61115216565b600354600480546040805163a9059cbb60e01b81526001600160a01b039283169381019390935260248301859052519394509091169163a9059cbb916044808201926020929091908290030181600087803b1580156104ab57600080fd5b505af11580156104bf573d6000803e3d6000fd5b505050506040513d60208110156104d557600080fd5b505161051e576040805162461bcd60e51b81526020600482015260136024820152722a37b5b2b739903737ba103a3930b739b332b960691b604482015290519081900360640190fd5b60008381526008602052604081205461053d908363ffffffff61102a16565b6003546040805163a9059cbb60e01b81523360048201526024810184905290519293506001600160a01b039091169163a9059cbb916044808201926020929091908290030181600087803b15801561059457600080fd5b505af11580156105a8573d6000803e3d6000fd5b505050506040513d60208110156105be57600080fd5b5051610607576040805162461bcd60e51b81526020600482015260136024820152722a37b5b2b739903737ba103a3930b739b332b960691b604482015290519081900360640190fd5b604080518581526020810183905281517f2d4b889da8a0924a586db952c7af049dd904c115b9e9c159c6c222f5a560ac44929181900390910190a150505b506001919050565b6002546000906001600160a01b031633146106af576040805162461bcd60e51b815260206004820152601a60248201527f496e76616c69642072657175657374696e67206163636f756e74000000000000604482015290519081900360640190fd5b6001600654600090815260086020526040902060039081015460ff16908111156106d557fe5b14610727576040805162461bcd60e51b815260206004820152601060248201527f46756e64696e6720696e61637469766500000000000000000000000000000000604482015290519081900360640190fd5b600354604080516370a0823160e01b815230600482015290516000926001600160a01b0316916370a08231916024808301926020929190829003018186803b15801561077257600080fd5b505afa158015610786573d6000803e3d6000fd5b505050506040513d602081101561079c57600080fd5b50516006546000908152600860205260408120600181015460029091015492935090916107ce9163ffffffff6111ab16565b90504281116107e257600092505050610247565b60065460009081526008602052604090205482106108fc5760068054600090815260086020526040808220600301805460ff1916600217905591548152205460075461082d91611087565b60075560068054600101908190556000908152600860205260409020541561087d5760068054600090815260086020526040808220600301805460ff191660011790559154815220426002909101555b6006547f809759a8805d7e63b4a9e1c8569d3b7eeb19f4f60640176e5eb10012a0249f14906108b390600163ffffffff61102a16565b600860006108cd600160065461102a90919063ffffffff16565b815260200190815260200160002060000154604051808381526020018281526020019250505060405180910390a15b60019250505090565b60008061094861093960055461044161092a606460055461108790919063ffffffff16565b6007549063ffffffff6110e816565b6007549063ffffffff61102a16565b91505090565b61095733611226565b565b61096233610f16565b61099d5760405162461bcd60e51b815260040180806020018281038252604081526020018061165d6040913960400191505060405180910390fd5b600354604080516370a0823160e01b815230600482015290516000926001600160a01b0316916370a08231916024808301926020929190829003018186803b1580156109e857600080fd5b505afa1580156109fc573d6000803e3d6000fd5b505050506040513d6020811015610a1257600080fd5b505160006007819055909150600654600090815260086020526040902060039081015460ff1690811115610a4257fe5b148015610a775750600260065460001901600090815260086020526040902060039081015460ff1690811115610a7457fe5b10155b15610d1457600554600090610aa790610441610a9a82606463ffffffff61108716565b859063ffffffff6110e816565b600354600480546040805163a9059cbb60e01b81526001600160a01b039283169381019390935260248301859052519394509091169163a9059cbb916044808201926020929091908290030181600087803b158015610b0557600080fd5b505af1158015610b19573d6000803e3d6000fd5b505050506040513d6020811015610b2f57600080fd5b5051610b82576040805162461bcd60e51b815260206004820152601b60248201527f5472616e73666572696e67206f662066756e6473206661696c65640000000000604482015290519081900360640190fd5b600354604080516370a0823160e01b815230600482015290516001600160a01b03909216916370a0823191602480820192602092909190829003018186803b158015610bcd57600080fd5b505afa158015610be1573d6000803e3d6000fd5b505050506040513d6020811015610bf757600080fd5b50516003546001546040805163a9059cbb60e01b81526001600160a01b03928316600482015260248101859052905193955091169163a9059cbb916044808201926020929091908290030181600087803b158015610c5457600080fd5b505af1158015610c68573d6000803e3d6000fd5b505050506040513d6020811015610c7e57600080fd5b5051610cd1576040805162461bcd60e51b815260206004820152601b60248201527f5472616e73666572696e67206f662066756e6473206661696c65640000000000604482015290519081900360640190fd5b600654604080519182526020820184905280517f2d4b889da8a0924a586db952c7af049dd904c115b9e9c159c6c222f5a560ac449281900390910190a150610dea565b6003546002546040805163a9059cbb60e01b81526001600160a01b039283166004820152602481018590529051919092169163a9059cbb9160448083019260209291908290030181600087803b158015610d6d57600080fd5b505af1158015610d81573d6000803e3d6000fd5b505050506040513d6020811015610d9757600080fd5b5051610dea576040805162461bcd60e51b815260206004820152601b60248201527f5472616e73666572696e67206f662066756e6473206661696c65640000000000604482015290519081900360640190fd5b600260009054906101000a90046001600160a01b03166001600160a01b031663cd89019d6040518163ffffffff1660e01b8152600401602060405180830381600087803b158015610e3a57600080fd5b505af1158015610e4e573d6000803e3d6000fd5b505050506040513d6020811015610e6457600080fd5b5051610eb7576040805162461bcd60e51b815260206004820152601860248201527f4d61726b6574207465726d696e6174696f6e206572726f720000000000000000604482015290519081900360640190fd5b50565b610ec333610f16565b610efe5760405162461bcd60e51b815260040180806020018281038252604081526020018061165d6040913960400191505060405180910390fd5b610eb78161126e565b6002546001600160a01b031690565b6000610f28818363ffffffff6112b616565b92915050565b6000610f3933610f16565b610f745760405162461bcd60e51b815260040180806020018281038252604081526020018061165d6040913960400191505060405180910390fd5b6001600160a01b038216610fcf576040805162461bcd60e51b815260206004820152601460248201527f436f6e74726163747320696e6974616c69736564000000000000000000000000604482015290519081900360640190fd5b6002805473ffffffffffffffffffffffffffffffffffffffff19166001600160a01b03841617905561064561094e565b6000908152600860205260409020805460018201546002830154600390930154919390929160ff1690565b600082821115611081576040805162461bcd60e51b815260206004820152601e60248201527f536166654d6174683a207375627472616374696f6e206f766572666c6f770000604482015290519081900360640190fd5b50900390565b6000828201838110156110e1576040805162461bcd60e51b815260206004820152601b60248201527f536166654d6174683a206164646974696f6e206f766572666c6f770000000000604482015290519081900360640190fd5b9392505050565b600080821161113e576040805162461bcd60e51b815260206004820152601a60248201527f536166654d6174683a206469766973696f6e206279207a65726f000000000000604482015290519081900360640190fd5b600082848161114957fe5b04949350505050565b60008261116157506000610f28565b8282028284828161116e57fe5b04146110e15760405162461bcd60e51b815260040180806020018281038252602181526020018061161a6021913960400191505060405180910390fd5b60008080806111be62015180870461131d565b600c9188016000198101838104949094019650945092509006600101915060006111e884846113b3565b9050808211156111f6578091505b6201518087066201518061120b868686611439565b020194508685101561121c57600080fd5b5050505092915050565b61123760008263ffffffff6114eb16565b6040516001600160a01b038216907f0a8eb35e5ca14b3d6f28e4abf2f128dbab231a58b56e89beb5d636115001e16590600090a250565b61127f60008263ffffffff61155216565b6040516001600160a01b038216907f22380c05984257a1cb900161c713dd71d39e74820f1aea43bd3f1bdd2096129990600090a250565b60006001600160a01b0382166112fd5760405162461bcd60e51b815260040180806020018281038252602281526020018061163b6022913960400191505060405180910390fd5b506001600160a01b03166000908152602091909152604090205460ff1690565b60008080836226496581018262023ab1600483020590506004600362023ab18302010590910390600062164b09610fa0600185010205905060046105b58202058303601f019250600061098f846050028161137457fe5b0590506000605061098f83020585039050600b820560301994909401606402929092018301996002600c90940290910392909201975095509350505050565b600081600114806113c45750816003145b806113cf5750816005145b806113da5750816007145b806113e55750816008145b806113f0575081600a145b806113fb575081600c145b156114085750601f610f28565b816002146114185750601e610f28565b611421836115d3565b61142c57601c61142f565b601d5b60ff169392505050565b60006107b2841015611480576040805162461bcd60e51b815260206004820152600b60248201526a22b837b1b41032b93937b960a91b604482015290519081900360640190fd5b838383600062253d8c600460036064611324600c600d19890105890101050205600c80600d19870105600c02600287030361016f02816114bc57fe5b0560046105b5600c600d1989010589016112c0010205617d4b8603010103039050809450505050509392505050565b6114f582826112b6565b6115305760405162461bcd60e51b81526004018080602001828103825260218152602001806115f96021913960400191505060405180910390fd5b6001600160a01b0316600090815260209190915260409020805460ff19169055565b61155c82826112b6565b156115ae576040805162461bcd60e51b815260206004820152601f60248201527f526f6c65733a206163636f756e7420616c72656164792068617320726f6c6500604482015290519081900360640190fd5b6001600160a01b0316600090815260209190915260409020805460ff19166001179055565b6000600482061580156115e857506064820615155b80610f285750506101909006159056fe526f6c65733a206163636f756e7420646f6573206e6f74206861766520726f6c65536166654d6174683a206d756c7469706c69636174696f6e206f766572666c6f77526f6c65733a206163636f756e7420697320746865207a65726f206164647265737357686974656c69737441646d696e526f6c653a2063616c6c657220646f6573206e6f742068617665207468652057686974656c69737441646d696e20726f6c65a265627a7a7230582022db9494b6bcc4238db186548a61252b3d843ff5d762b0ac0e2e198b647f8e9064736f6c634300050a0032536166654d6174683a206d756c7469706c69636174696f6e206f766572666c6f77526f6c65733a206163636f756e7420697320746865207a65726f206164647265737357686974656c69737441646d696e526f6c653a2063616c6c657220646f6573206e6f742068617665207468652057686974656c69737441646d696e20726f6c65",
  "source": "pragma solidity 0.5.10;\n\nimport { WhitelistAdminRole } from \"openzeppelin-solidity/contracts/access/roles/WhitelistAdminRole.sol\";\nimport { IMoleculeVault } from \"../moleculeVault/IMoleculeVault.sol\";\nimport { IERC20 } from \"openzeppelin-solidity/contracts/token/ERC20/IERC20.sol\";\nimport { SafeMath } from \"openzeppelin-solidity/contracts/math/SafeMath.sol\";\nimport { BokkyPooBahsDateTimeLibrary } from \"../_resources/BokkyPooBahsDateTimeLibrary.sol\";\nimport { IVault } from \"./IVault.sol\";\nimport { IMarket } from \"../market/IMarket.sol\";\n\n/**\n  * @author Veronica & Ryan of Linum Labs\n  * @title Vault\n  */\ncontract Vault is IVault, WhitelistAdminRole {\n    using SafeMath for uint256;\n    using BokkyPooBahsDateTimeLibrary for uint256;\n\n    // The vault benificiary\n    address internal creator_;\n    // Market feeds collateral to vault\n    IMarket internal market_;\n    // Underlying collateral token\n    IERC20 internal collateralToken_;\n    // Vault for molecule tax\n    IMoleculeVault internal moleculeVault_;\n    // Tax percentage for molecule tax, i.e 50\n    uint256 internal moleculeTaxRate_;\n    // The funding round that is active\n    uint256 internal currentPhase_;\n    // Offset for checking funding threashold\n    uint256 internal outstandingWithdraw_;\n    \n    // All funding phases information to their position in mapping\n    mapping(uint256 => FundPhase) internal fundingPhases_;\n\n    // Information stored about each phase\n    struct FundPhase{\n        uint256 fundingThreshold;   // Collateral limit to trigger funding\n        uint256 phaseDuration;      // Period of time from start of phase till end\n        uint256 startDate;\n        FundingState state;         // State enum\n    }\n\n    event FundingWithdrawn(uint256 phase, uint256 amount);\n    event PhaseFinalised(uint256 phase, uint256 amount);\n\n    /**\n      * @dev                    Checks the range of funding rounds (1-9)\n      * @param _fundingGoals    : uint256[] - The collateral goal for each funding round\n      * @param _phaseDurations  : uint256[] - The time limit of each fundign round\n      * @param _creator         : address - The creator\n      * @param _collateralToken : address - The ERC20 collateral token\n      * @param _moleculeVault   : address - The molecule vault\n      */\n    constructor(\n        uint256[] memory _fundingGoals,\n        uint256[] memory _phaseDurations,\n        address _creator,\n        address _collateralToken,\n        address _moleculeVault\n    )\n        public\n        WhitelistAdminRole()\n    {\n        require(_fundingGoals.length > 0, \"No funding goals specified\");\n        require(_fundingGoals.length < 10, \"Too many phases defined\");\n        require(_fundingGoals.length == _phaseDurations.length, \"Invalid phase configuration\");\n\n        super.addWhitelistAdmin(_creator);\n\n        outstandingWithdraw_ = 0;\n\n        creator_ = _creator;\n        collateralToken_ = IERC20(_collateralToken);\n        moleculeVault_ = IMoleculeVault(_moleculeVault);\n\n        moleculeTaxRate_ = moleculeVault_.taxRate();\n\n        uint256 loopLength = _fundingGoals.length;\n        for(uint256 i = 0; i < loopLength; i++){\n            uint256 withTax = _fundingGoals[i].add((_fundingGoals[i].div(100)).mul(moleculeTaxRate_));\n            fundingPhases_[i].fundingThreshold = withTax;\n            fundingPhases_[i].phaseDuration = _phaseDurations[i];\n        }\n\n        fundingPhases_[0].startDate = block.timestamp;\n        fundingPhases_[0].state = FundingState.STARTED;\n        currentPhase_ = 0;\n    }\n\n    modifier onlyMarket(){\n        require(msg.sender == address(market_), \"Invalid requesting account\");\n        _;\n    }\n\n    /**\n      * @dev            Initialized the contract, sets up owners and gets the market\n      *                 address.\n      * @param _market  : address - The market that will be sending this\n      *                 vault it'scollateral.\n      */\n    function initialize(address _market) external onlyWhitelistAdmin() returns(bool){\n        require(_market != address(0), \"Contracts initalised\");\n        market_ = IMarket(_market);\n        super.renounceWhitelistAdmin();\n        return true;\n    }\n\n    /**\n      * @dev            Allows a creator to withdraw a specific runds funds\n      * @notice         The state of the currentPhase_ will not be 0 untill the last\n      *                 phase, where the terminate function will be called.\n      * @param _phase   : uint256 - The phase the fund rasing is currently on.\n      */\n    function withdraw(uint256 _phase) external onlyWhitelistAdmin() returns(bool){\n        require(fundingPhases_[_phase].state == FundingState.ENDED, \"Fund phase incomplete\");\n\n        // This checks if we trigger the distribute on the Market\n        if(fundingPhases_[currentPhase_].state == FundingState.NOT_STARTED){\n            if(market_.active()) {\n                terminateMarket(); // This triggers the fund transfer\n            }\n        } else {\n            // This sends the funding for the specified round\n            outstandingWithdraw_ = outstandingWithdraw_.sub(fundingPhases_[_phase].fundingThreshold);\n            fundingPhases_[_phase].state == FundingState.PAID;\n\n            uint256 molTax = (fundingPhases_[_phase].fundingThreshold.div(moleculeTaxRate_.add(100))).mul(moleculeTaxRate_);\n            require(collateralToken_.transfer(address(moleculeVault_), molTax), \"Tokens not transfer\");\n\n            uint256 creatorAmount = fundingPhases_[_phase].fundingThreshold.sub(molTax);\n            require(collateralToken_.transfer(msg.sender, creatorAmount), \"Tokens not transfer\");\n            emit FundingWithdrawn(_phase, creatorAmount);\n\n        }\n        return true;\n    }\n\n    /**\n      * @dev Verifies that the phase passed in: has not been withdrawn, funding goal has been reached,\n      *      and that the phase has not expired.\n      */\n    function validateFunding() external onlyMarket() returns(bool){\n        require(fundingPhases_[currentPhase_].state == FundingState.STARTED, \"Funding inactive\");\n\n        uint256 balance = collateralToken_.balanceOf(address(this));\n        // balance = balance.sub(outstandingWithdraw_);\n\n        uint256 endOfPhase = fundingPhases_[currentPhase_].startDate.addMonths(fundingPhases_[currentPhase_].phaseDuration);\n        if(endOfPhase <= block.timestamp) {\n            return false;\n        }\n\n        if(balance >= fundingPhases_[currentPhase_].fundingThreshold) {\n            // Setting active phase state to ended\n            fundingPhases_[currentPhase_].state = FundingState.ENDED;\n\n            outstandingWithdraw_ = outstandingWithdraw_.add(fundingPhases_[currentPhase_].fundingThreshold);\n\n            currentPhase_ = currentPhase_ + 1;\n            // Here we check if this was the final round to\n            // Set the states apprpriately\n            if(fundingPhases_[currentPhase_].fundingThreshold > 0) {\n                // Setting active phase state to Started\n                fundingPhases_[currentPhase_].state = FundingState.STARTED;\n                fundingPhases_[currentPhase_].startDate = block.timestamp;\n            }\n\n            emit PhaseFinalised(currentPhase_.sub(1), fundingPhases_[currentPhase_.sub(1)].fundingThreshold);\n        }\n        return true;\n    }\n\n     /**\n       * @dev    This function sends the vaults funds to either the market, or the creator with tax\n       *         sent to the moleucle vault.\n       * @notice If this function is called before the end of all phases, all funding will be sent\n       *         to the market to be redistributed.\n       */\n    function terminateMarket()\n        public\n        onlyWhitelistAdmin()\n    {\n        uint256 remainingBalance = collateralToken_.balanceOf(address(this));\n\n        outstandingWithdraw_ = 0;\n\n        // This checks if all funding phases completed successfully\n        // Checks if ended or paid for conclusion of phase\n        if(fundingPhases_[currentPhase_].state == FundingState.NOT_STARTED && (fundingPhases_[currentPhase_ - 1].state >= FundingState.ENDED)) {\n            // Works out the molecule tax amount\n            uint256 molTax = (remainingBalance.div(moleculeTaxRate_.add(100))).mul(moleculeTaxRate_);\n            // Transfers amount to the molecule vault\n            require(collateralToken_.transfer(address(moleculeVault_), molTax), \"Transfering of funds failed\");\n            // Works out the remaining balance after mol tax, which is fetched\n                // incase of remaining fractions from math\n            remainingBalance = collateralToken_.balanceOf(address(this));\n            // Transfers the amount to the msg.sender\n            require(collateralToken_.transfer(creator_, remainingBalance), \"Transfering of funds failed\");\n\n            emit FundingWithdrawn(currentPhase_, remainingBalance);\n        } else {\n            // Transferes remaining balance to the market\n            require(collateralToken_.transfer(address(market_), remainingBalance), \"Transfering of funds failed\");\n        }\n        // Finalizes market (stops buys/sells distributes collateral evenly)\n        require(market_.finaliseMarket(), \"Market termination error\");\n    }\n\n    /**\n      * @param _phase : uint256 - The phase that you want the information of\n      * @return All stored information about the market.\n      */\n    function fundingPhase(uint256 _phase) public view returns(uint256, uint256, uint256, FundingState) {\n        return (\n            fundingPhases_[_phase].fundingThreshold,\n            fundingPhases_[_phase].phaseDuration,\n            fundingPhases_[_phase].startDate,\n            fundingPhases_[_phase].state\n        );\n    }\n\n    /**\n      * @dev The offset for checking the funding threshold\n      */\n    function outstandingWithdraw() public view returns(uint256){\n        uint256 minusMolTax = outstandingWithdraw_.sub((outstandingWithdraw_.div(moleculeTaxRate_.add(100))).mul(moleculeTaxRate_));\n        return minusMolTax;\n    }\n\n    /**\n      * @dev The current active phase of funding\n      */\n    function currentPhase() public view returns(uint256) {\n        return currentPhase_;\n    }\n\n    /**\n      * @dev The address of the current market\n      */\n    function market() public view returns(address) {\n        return address(market_);\n    }\n\n    function creator() external view returns(address) {\n        return creator_;\n    }\n}\n",
  "sourcePath": "/home/bscholtz/LinumLabs/workspace/molecule-alpha_feature-8/Blockchain/contracts/vault/Vault.sol",
  "compiler": {
    "name": "solc",
    "version": "0.5.10+commit.5a6ea5b1.Emscripten.clang",
    "optimizer": true,
    "runs": 500
  },
  "schemaVersion": "2.1.7",
  "updatedAt": "2019-08-12T11:56:49.045Z"
}