{
  "contractName": "Vault",
  "abi": [
    {
      "constant": false,
      "inputs": [],
      "name": "renounceWhitelistAdmin",
      "outputs": [],
      "payable": false,
      "stateMutability": "nonpayable",
      "type": "function"
    },
    {
      "constant": false,
      "inputs": [
        {
          "name": "account",
          "type": "address"
        }
      ],
      "name": "addWhitelistAdmin",
      "outputs": [],
      "payable": false,
      "stateMutability": "nonpayable",
      "type": "function"
    },
    {
      "constant": true,
      "inputs": [
        {
          "name": "account",
          "type": "address"
        }
      ],
      "name": "isWhitelistAdmin",
      "outputs": [
        {
          "name": "",
          "type": "bool"
        }
      ],
      "payable": false,
      "stateMutability": "view",
      "type": "function"
    },
    {
      "inputs": [
        {
          "name": "_fundingGoals",
          "type": "uint256[]"
        },
        {
          "name": "_phaseDurations",
          "type": "uint256[]"
        },
        {
          "name": "_creator",
          "type": "address"
        },
        {
          "name": "_collateralToken",
          "type": "address"
        },
        {
          "name": "_moleculeVault",
          "type": "address"
        }
      ],
      "payable": false,
      "stateMutability": "nonpayable",
      "type": "constructor"
    },
    {
      "anonymous": false,
      "inputs": [
        {
          "indexed": false,
          "name": "phase",
          "type": "uint256"
        },
        {
          "indexed": false,
          "name": "amount",
          "type": "uint256"
        }
      ],
      "name": "FundingWithdrawn",
      "type": "event"
    },
    {
      "anonymous": false,
      "inputs": [
        {
          "indexed": false,
          "name": "phase",
          "type": "uint256"
        },
        {
          "indexed": false,
          "name": "amount",
          "type": "uint256"
        }
      ],
      "name": "PhaseFinalised",
      "type": "event"
    },
    {
      "anonymous": false,
      "inputs": [
        {
          "indexed": true,
          "name": "account",
          "type": "address"
        }
      ],
      "name": "WhitelistAdminAdded",
      "type": "event"
    },
    {
      "anonymous": false,
      "inputs": [
        {
          "indexed": true,
          "name": "account",
          "type": "address"
        }
      ],
      "name": "WhitelistAdminRemoved",
      "type": "event"
    },
    {
      "constant": false,
      "inputs": [
        {
          "name": "_market",
          "type": "address"
        }
      ],
      "name": "initialize",
      "outputs": [
        {
          "name": "",
          "type": "bool"
        }
      ],
      "payable": false,
      "stateMutability": "nonpayable",
      "type": "function"
    },
    {
      "constant": false,
      "inputs": [
        {
          "name": "_phase",
          "type": "uint256"
        }
      ],
      "name": "withdraw",
      "outputs": [
        {
          "name": "",
          "type": "bool"
        }
      ],
      "payable": false,
      "stateMutability": "nonpayable",
      "type": "function"
    },
    {
      "constant": false,
      "inputs": [],
      "name": "validateFunding",
      "outputs": [
        {
          "name": "",
          "type": "bool"
        }
      ],
      "payable": false,
      "stateMutability": "nonpayable",
      "type": "function"
    },
    {
      "constant": false,
      "inputs": [],
      "name": "terminateMarket",
      "outputs": [],
      "payable": false,
      "stateMutability": "nonpayable",
      "type": "function"
    },
    {
      "constant": true,
      "inputs": [
        {
          "name": "_phase",
          "type": "uint256"
        }
      ],
      "name": "fundingPhase",
      "outputs": [
        {
          "name": "",
          "type": "uint256"
        },
        {
          "name": "",
          "type": "uint256"
        },
        {
          "name": "",
          "type": "uint256"
        },
        {
          "name": "",
          "type": "uint8"
        }
      ],
      "payable": false,
      "stateMutability": "view",
      "type": "function"
    },
    {
      "constant": true,
      "inputs": [],
      "name": "outstandingWithdraw",
      "outputs": [
        {
          "name": "",
          "type": "uint256"
        }
      ],
      "payable": false,
      "stateMutability": "view",
      "type": "function"
    },
    {
      "constant": true,
      "inputs": [],
      "name": "currentPhase",
      "outputs": [
        {
          "name": "",
          "type": "uint256"
        }
      ],
      "payable": false,
      "stateMutability": "view",
      "type": "function"
    },
    {
      "constant": true,
      "inputs": [],
      "name": "market",
      "outputs": [
        {
          "name": "",
          "type": "address"
        }
      ],
      "payable": false,
      "stateMutability": "view",
      "type": "function"
    },
    {
      "constant": true,
      "inputs": [],
      "name": "creator",
      "outputs": [
        {
          "name": "",
          "type": "address"
        }
      ],
      "payable": false,
      "stateMutability": "view",
      "type": "function"
    }
  ],
  "bytecode": "0x60806040523480156200001157600080fd5b5060405162002d7538038062002d75833981810160405260a08110156200003757600080fd5b8101908080516401000000008111156200005057600080fd5b828101905060208101848111156200006757600080fd5b81518560208202830111640100000000821117156200008557600080fd5b50509291906020018051640100000000811115620000a257600080fd5b82810190506020810184811115620000b957600080fd5b8151856020820283011164010000000082111715620000d757600080fd5b505092919060200180519060200190929190805190602001909291908051906020019092919050505062000111336200055860201b60201c565b600085511162000189576040517f08c379a000000000000000000000000000000000000000000000000000000000815260040180806020018281038252601a8152602001807f4e6f2066756e64696e6720676f616c732073706563696669656400000000000081525060200191505060405180910390fd5b600a85511062000201576040517f08c379a00000000000000000000000000000000000000000000000000000000081526004018080602001828103825260178152602001807f546f6f206d616e792070686173657320646566696e656400000000000000000081525060200191505060405180910390fd5b835185511462000279576040517f08c379a000000000000000000000000000000000000000000000000000000000815260040180806020018281038252601b8152602001807f496e76616c696420706861736520636f6e66696775726174696f6e000000000081525060200191505060405180910390fd5b6200028f83620005b960201b620017171760201c565b600060078190555082600160006101000a81548173ffffffffffffffffffffffffffffffffffffffff021916908373ffffffffffffffffffffffffffffffffffffffff16021790555081600360006101000a81548173ffffffffffffffffffffffffffffffffffffffff021916908373ffffffffffffffffffffffffffffffffffffffff16021790555080600460006101000a81548173ffffffffffffffffffffffffffffffffffffffff021916908373ffffffffffffffffffffffffffffffffffffffff160217905550600460009054906101000a900473ffffffffffffffffffffffffffffffffffffffff1673ffffffffffffffffffffffffffffffffffffffff1663771a3a1d6040518163ffffffff1660e01b815260040160206040518083038186803b158015620003c357600080fd5b505afa158015620003d8573d6000803e3d6000fd5b505050506040513d6020811015620003ef57600080fd5b810190808051906020019092919050505060058190555060008551905060008090505b81811015620004ef576000620004946200046b6064620004576005548c87815181106200043b57fe5b60200260200101516200063560201b62001aac1790919060201c565b620006c060201b62001b321790919060201c565b8984815181106200047857fe5b60200260200101516200075160201b62001a241790919060201c565b9050806008600084815260200190815260200160002060000181905550868281518110620004be57fe5b6020026020010151600860008481526020019081526020016000206001018190555050808060010191505062000412565b5042600860008081526020019081526020016000206002018190555060016008600080815260200190815260200160002060030160006101000a81548160ff021916908360038111156200053f57fe5b02179055506000600681905550505050505050620009c2565b62000573816000620007da60201b620021291790919060201c565b8073ffffffffffffffffffffffffffffffffffffffff167f22380c05984257a1cb900161c713dd71d39e74820f1aea43bd3f1bdd2096129960405160405180910390a250565b620005ca33620008be60201b60201c565b62000621576040517f08c379a000000000000000000000000000000000000000000000000000000000815260040180806020018281038252604081526020018062002d356040913960400191505060405180910390fd5b62000632816200055860201b60201c565b50565b6000808314156200064a5760009050620006ba565b60008284029050828482816200065c57fe5b0414620006b5576040517f08c379a000000000000000000000000000000000000000000000000000000000815260040180806020018281038252602181526020018062002cf26021913960400191505060405180910390fd5b809150505b92915050565b600080821162000738576040517f08c379a000000000000000000000000000000000000000000000000000000000815260040180806020018281038252601a8152602001807f536166654d6174683a206469766973696f6e206279207a65726f00000000000081525060200191505060405180910390fd5b60008284816200074457fe5b0490508091505092915050565b600080828401905083811015620007d0576040517f08c379a000000000000000000000000000000000000000000000000000000000815260040180806020018281038252601b8152602001807f536166654d6174683a206164646974696f6e206f766572666c6f77000000000081525060200191505060405180910390fd5b8091505092915050565b620007ec8282620008e260201b60201c565b1562000860576040517f08c379a000000000000000000000000000000000000000000000000000000000815260040180806020018281038252601f8152602001807f526f6c65733a206163636f756e7420616c72656164792068617320726f6c650081525060200191505060405180910390fd5b60018260000160008373ffffffffffffffffffffffffffffffffffffffff1673ffffffffffffffffffffffffffffffffffffffff16815260200190815260200160002060006101000a81548160ff0219169083151502179055505050565b6000620008db826000620008e260201b62001d171790919060201c565b9050919050565b60008073ffffffffffffffffffffffffffffffffffffffff168273ffffffffffffffffffffffffffffffffffffffff1614156200096b576040517f08c379a000000000000000000000000000000000000000000000000000000000815260040180806020018281038252602281526020018062002d136022913960400191505060405180910390fd5b8260000160008373ffffffffffffffffffffffffffffffffffffffff1673ffffffffffffffffffffffffffffffffffffffff16815260200190815260200160002060009054906101000a900460ff16905092915050565b61232080620009d26000396000f3fe608060405234801561001057600080fd5b50600436106100b45760003560e01c80635d3a4db9116100715780635d3a4db9146101b15780637362d9c8146101bb57806380f55605146101ff578063bb5f747b14610249578063c4d66de8146102a5578063cd44461e14610301576100b4565b806302d05d3f146100b9578063055ad42e146101035780632e1a7d4d1461012157806333545eee1461016757806340fb9353146101895780634c5a628c146101a7575b600080fd5b6100c1610366565b604051808273ffffffffffffffffffffffffffffffffffffffff1673ffffffffffffffffffffffffffffffffffffffff16815260200191505060405180910390f35b61010b610390565b6040518082815260200191505060405180910390f35b61014d6004803603602081101561013757600080fd5b810190808035906020019092919050505061039a565b604051808215151515815260200191505060405180910390f35b61016f6109ad565b604051808215151515815260200191505060405180910390f35b610191610df5565b6040518082815260200191505060405180910390f35b6101af610e53565b005b6101b9610e5e565b005b6101fd600480360360208110156101d157600080fd5b81019080803573ffffffffffffffffffffffffffffffffffffffff169060200190929190505050611717565b005b610207611781565b604051808273ffffffffffffffffffffffffffffffffffffffff1673ffffffffffffffffffffffffffffffffffffffff16815260200191505060405180910390f35b61028b6004803603602081101561025f57600080fd5b81019080803573ffffffffffffffffffffffffffffffffffffffff1690602001909291905050506117ab565b604051808215151515815260200191505060405180910390f35b6102e7600480360360208110156102bb57600080fd5b81019080803573ffffffffffffffffffffffffffffffffffffffff1690602001909291905050506117c8565b604051808215151515815260200191505060405180910390f35b61032d6004803603602081101561031757600080fd5b810190808035906020019092919050505061191d565b6040518085815260200184815260200183815260200182600381111561034f57fe5b60ff16815260200194505050505060405180910390f35b6000600160009054906101000a900473ffffffffffffffffffffffffffffffffffffffff16905090565b6000600654905090565b60006103a5336117ab565b6103fa576040517f08c379a00000000000000000000000000000000000000000000000000000000081526004018080602001828103825260408152602001806122ac6040913960400191505060405180910390fd5b6002600381111561040757fe5b6008600084815260200190815260200160002060030160009054906101000a900460ff16600381111561043657fe5b146104a9576040517f08c379a00000000000000000000000000000000000000000000000000000000081526004018080602001828103825260158152602001807f46756e6420706861736520696e636f6d706c657465000000000000000000000081525060200191505060405180910390fd5b600060038111156104b657fe5b60086000600654815260200190815260200160002060030160009054906101000a900460ff1660038111156104e757fe5b14156105a357600260009054906101000a900473ffffffffffffffffffffffffffffffffffffffff1673ffffffffffffffffffffffffffffffffffffffff166302fb0c5e6040518163ffffffff1660e01b815260040160206040518083038186803b15801561055557600080fd5b505afa158015610569573d6000803e3d6000fd5b505050506040513d602081101561057f57600080fd5b81019080805190602001909291905050501561059e5761059d610e5e565b5b6109a4565b6105ce600860008481526020019081526020016000206000015460075461199b90919063ffffffff16565b6007819055506003808111156105e057fe5b6008600084815260200190815260200160002060030160009054906101000a900460ff16600381111561060f57fe5b5050600061066561062c6064600554611a2490919063ffffffff16565b6106576005546008600088815260200190815260200160002060000154611aac90919063ffffffff16565b611b3290919063ffffffff16565b9050600360009054906101000a900473ffffffffffffffffffffffffffffffffffffffff1673ffffffffffffffffffffffffffffffffffffffff1663a9059cbb600460009054906101000a900473ffffffffffffffffffffffffffffffffffffffff16836040518363ffffffff1660e01b8152600401808373ffffffffffffffffffffffffffffffffffffffff1673ffffffffffffffffffffffffffffffffffffffff16815260200182815260200192505050602060405180830381600087803b15801561073257600080fd5b505af1158015610746573d6000803e3d6000fd5b505050506040513d602081101561075c57600080fd5b81019080805190602001909291905050506107df576040517f08c379a00000000000000000000000000000000000000000000000000000000081526004018080602001828103825260138152602001807f546f6b656e73206e6f74207472616e736665720000000000000000000000000081525060200191505060405180910390fd5b600061080a82600860008781526020019081526020016000206000015461199b90919063ffffffff16565b9050600360009054906101000a900473ffffffffffffffffffffffffffffffffffffffff1673ffffffffffffffffffffffffffffffffffffffff1663a9059cbb33836040518363ffffffff1660e01b8152600401808373ffffffffffffffffffffffffffffffffffffffff1673ffffffffffffffffffffffffffffffffffffffff16815260200182815260200192505050602060405180830381600087803b1580156108b557600080fd5b505af11580156108c9573d6000803e3d6000fd5b505050506040513d60208110156108df57600080fd5b8101908080519060200190929190505050610962576040517f08c379a00000000000000000000000000000000000000000000000000000000081526004018080602001828103825260138152602001807f546f6b656e73206e6f74207472616e736665720000000000000000000000000081525060200191505060405180910390fd5b7f2d4b889da8a0924a586db952c7af049dd904c115b9e9c159c6c222f5a560ac448482604051808381526020018281526020019250505060405180910390a150505b60019050919050565b6000600260009054906101000a900473ffffffffffffffffffffffffffffffffffffffff1673ffffffffffffffffffffffffffffffffffffffff163373ffffffffffffffffffffffffffffffffffffffff1614610a72576040517f08c379a000000000000000000000000000000000000000000000000000000000815260040180806020018281038252601a8152602001807f496e76616c69642072657175657374696e67206163636f756e7400000000000081525060200191505060405180910390fd5b60016003811115610a7f57fe5b60086000600654815260200190815260200160002060030160009054906101000a900460ff166003811115610ab057fe5b14610b23576040517f08c379a00000000000000000000000000000000000000000000000000000000081526004018080602001828103825260108152602001807f46756e64696e6720696e6163746976650000000000000000000000000000000081525060200191505060405180910390fd5b6000600360009054906101000a900473ffffffffffffffffffffffffffffffffffffffff1673ffffffffffffffffffffffffffffffffffffffff166370a08231306040518263ffffffff1660e01b8152600401808273ffffffffffffffffffffffffffffffffffffffff1673ffffffffffffffffffffffffffffffffffffffff16815260200191505060206040518083038186803b158015610bc457600080fd5b505afa158015610bd8573d6000803e3d6000fd5b505050506040513d6020811015610bee57600080fd5b810190808051906020019092919050505090506000610c466008600060065481526020019081526020016000206001015460086000600654815260200190815260200160002060020154611bc190919063ffffffff16565b9050428111610c5a57600092505050610df2565b600860006006548152602001908152602001600020600001548210610deb57600260086000600654815260200190815260200160002060030160006101000a81548160ff02191690836003811115610cae57fe5b0217905550610ce060086000600654815260200190815260200160002060000154600754611a2490919063ffffffff16565b6007819055506001600654016006819055506000600860006006548152602001908152602001600020600001541115610d6b57600160086000600654815260200190815260200160002060030160006101000a81548160ff02191690836003811115610d4857fe5b021790555042600860006006548152602001908152602001600020600201819055505b7f809759a8805d7e63b4a9e1c8569d3b7eeb19f4f60640176e5eb10012a0249f14610da2600160065461199b90919063ffffffff16565b60086000610dbc600160065461199b90919063ffffffff16565b815260200190815260200160002060000154604051808381526020018281526020019250505060405180910390a15b6001925050505b90565b600080610e4a610e39610e146064600554611a2490919063ffffffff16565b610e2b600554600754611aac90919063ffffffff16565b611b3290919063ffffffff16565b60075461199b90919063ffffffff16565b90508091505090565b610e5c33611c63565b565b610e67336117ab565b610ebc576040517f08c379a00000000000000000000000000000000000000000000000000000000081526004018080602001828103825260408152602001806122ac6040913960400191505060405180910390fd5b6000600360009054906101000a900473ffffffffffffffffffffffffffffffffffffffff1673ffffffffffffffffffffffffffffffffffffffff166370a08231306040518263ffffffff1660e01b8152600401808273ffffffffffffffffffffffffffffffffffffffff1673ffffffffffffffffffffffffffffffffffffffff16815260200191505060206040518083038186803b158015610f5d57600080fd5b505afa158015610f71573d6000803e3d6000fd5b505050506040513d6020811015610f8757600080fd5b81019080805190602001909291905050509050600060078190555060006003811115610faf57fe5b60086000600654815260200190815260200160002060030160009054906101000a900460ff166003811115610fe057fe5b14801561102c575060026003811115610ff557fe5b60086000600160065403815260200190815260200160002060030160009054906101000a900460ff16600381111561102957fe5b10155b1561148457600061106f61104c6064600554611a2490919063ffffffff16565b61106160055485611aac90919063ffffffff16565b611b3290919063ffffffff16565b9050600360009054906101000a900473ffffffffffffffffffffffffffffffffffffffff1673ffffffffffffffffffffffffffffffffffffffff1663a9059cbb600460009054906101000a900473ffffffffffffffffffffffffffffffffffffffff16836040518363ffffffff1660e01b8152600401808373ffffffffffffffffffffffffffffffffffffffff1673ffffffffffffffffffffffffffffffffffffffff16815260200182815260200192505050602060405180830381600087803b15801561113c57600080fd5b505af1158015611150573d6000803e3d6000fd5b505050506040513d602081101561116657600080fd5b81019080805190602001909291905050506111e9576040517f08c379a000000000000000000000000000000000000000000000000000000000815260040180806020018281038252601b8152602001807f5472616e73666572696e67206f662066756e6473206661696c6564000000000081525060200191505060405180910390fd5b600360009054906101000a900473ffffffffffffffffffffffffffffffffffffffff1673ffffffffffffffffffffffffffffffffffffffff166370a08231306040518263ffffffff1660e01b8152600401808273ffffffffffffffffffffffffffffffffffffffff1673ffffffffffffffffffffffffffffffffffffffff16815260200191505060206040518083038186803b15801561128857600080fd5b505afa15801561129c573d6000803e3d6000fd5b505050506040513d60208110156112b257600080fd5b81019080805190602001909291905050509150600360009054906101000a900473ffffffffffffffffffffffffffffffffffffffff1673ffffffffffffffffffffffffffffffffffffffff1663a9059cbb600160009054906101000a900473ffffffffffffffffffffffffffffffffffffffff16846040518363ffffffff1660e01b8152600401808373ffffffffffffffffffffffffffffffffffffffff1673ffffffffffffffffffffffffffffffffffffffff16815260200182815260200192505050602060405180830381600087803b15801561139057600080fd5b505af11580156113a4573d6000803e3d6000fd5b505050506040513d60208110156113ba57600080fd5b810190808051906020019092919050505061143d576040517f08c379a000000000000000000000000000000000000000000000000000000000815260040180806020018281038252601b8152602001807f5472616e73666572696e67206f662066756e6473206661696c6564000000000081525060200191505060405180910390fd5b7f2d4b889da8a0924a586db952c7af049dd904c115b9e9c159c6c222f5a560ac4460065483604051808381526020018281526020019250505060405180910390a1506115fd565b600360009054906101000a900473ffffffffffffffffffffffffffffffffffffffff1673ffffffffffffffffffffffffffffffffffffffff1663a9059cbb600260009054906101000a900473ffffffffffffffffffffffffffffffffffffffff16836040518363ffffffff1660e01b8152600401808373ffffffffffffffffffffffffffffffffffffffff1673ffffffffffffffffffffffffffffffffffffffff16815260200182815260200192505050602060405180830381600087803b15801561154f57600080fd5b505af1158015611563573d6000803e3d6000fd5b505050506040513d602081101561157957600080fd5b81019080805190602001909291905050506115fc576040517f08c379a000000000000000000000000000000000000000000000000000000000815260040180806020018281038252601b8152602001807f5472616e73666572696e67206f662066756e6473206661696c6564000000000081525060200191505060405180910390fd5b5b600260009054906101000a900473ffffffffffffffffffffffffffffffffffffffff1673ffffffffffffffffffffffffffffffffffffffff1663cd89019d6040518163ffffffff1660e01b8152600401602060405180830381600087803b15801561166757600080fd5b505af115801561167b573d6000803e3d6000fd5b505050506040513d602081101561169157600080fd5b8101908080519060200190929190505050611714576040517f08c379a00000000000000000000000000000000000000000000000000000000081526004018080602001828103825260188152602001807f4d61726b6574207465726d696e6174696f6e206572726f72000000000000000081525060200191505060405180910390fd5b50565b611720336117ab565b611775576040517f08c379a00000000000000000000000000000000000000000000000000000000081526004018080602001828103825260408152602001806122ac6040913960400191505060405180910390fd5b61177e81611cbd565b50565b6000600260009054906101000a900473ffffffffffffffffffffffffffffffffffffffff16905090565b60006117c1826000611d1790919063ffffffff16565b9050919050565b60006117d3336117ab565b611828576040517f08c379a00000000000000000000000000000000000000000000000000000000081526004018080602001828103825260408152602001806122ac6040913960400191505060405180910390fd5b600073ffffffffffffffffffffffffffffffffffffffff168273ffffffffffffffffffffffffffffffffffffffff1614156118cb576040517f08c379a00000000000000000000000000000000000000000000000000000000081526004018080602001828103825260148152602001807f436f6e74726163747320696e6974616c6973656400000000000000000000000081525060200191505060405180910390fd5b81600260006101000a81548173ffffffffffffffffffffffffffffffffffffffff021916908373ffffffffffffffffffffffffffffffffffffffff160217905550611914610e53565b60019050919050565b6000806000806008600086815260200190815260200160002060000154600860008781526020019081526020016000206001015460086000888152602001908152602001600020600201546008600089815260200190815260200160002060030160009054906101000a900460ff1693509350935093509193509193565b600082821115611a13576040517f08c379a000000000000000000000000000000000000000000000000000000000815260040180806020018281038252601e8152602001807f536166654d6174683a207375627472616374696f6e206f766572666c6f77000081525060200191505060405180910390fd5b600082840390508091505092915050565b600080828401905083811015611aa2576040517f08c379a000000000000000000000000000000000000000000000000000000000815260040180806020018281038252601b8152602001807f536166654d6174683a206164646974696f6e206f766572666c6f77000000000081525060200191505060405180910390fd5b8091505092915050565b600080831415611abf5760009050611b2c565b6000828402905082848281611ad057fe5b0414611b27576040517f08c379a00000000000000000000000000000000000000000000000000000000081526004018080602001828103825260218152602001806122696021913960400191505060405180910390fd5b809150505b92915050565b6000808211611ba9576040517f08c379a000000000000000000000000000000000000000000000000000000000815260040180806020018281038252601a8152602001807f536166654d6174683a206469766973696f6e206279207a65726f00000000000081525060200191505060405180910390fd5b6000828481611bb457fe5b0490508091505092915050565b600080600080611bdc620151808781611bd657fe5b04611df5565b8093508194508295505050508482019150600c6001830381611bfa57fe5b04830192506001600c6001840381611c0e57fe5b060191506000611c1e8484611ec9565b905080821115611c2c578091505b620151808781611c3857fe5b0662015180611c48868686611f54565b0201945086851015611c5957600080fd5b5050505092915050565b611c7781600061206c90919063ffffffff16565b8073ffffffffffffffffffffffffffffffffffffffff167f0a8eb35e5ca14b3d6f28e4abf2f128dbab231a58b56e89beb5d636115001e16560405160405180910390a250565b611cd181600061212990919063ffffffff16565b8073ffffffffffffffffffffffffffffffffffffffff167f22380c05984257a1cb900161c713dd71d39e74820f1aea43bd3f1bdd2096129960405160405180910390a250565b60008073ffffffffffffffffffffffffffffffffffffffff168273ffffffffffffffffffffffffffffffffffffffff161415611d9e576040517f08c379a000000000000000000000000000000000000000000000000000000000815260040180806020018281038252602281526020018061228a6022913960400191505060405180910390fd5b8260000160008373ffffffffffffffffffffffffffffffffffffffff1673ffffffffffffffffffffffffffffffffffffffff16815260200190815260200160002060009054906101000a900460ff16905092915050565b600080600080849050600062253d8c62010bd98301019050600062023ab18260040281611e1e57fe5b059050600460038262023ab1020181611e3357fe5b0582039150600062164b0960018401610fa00281611e4d57fe5b059050601f6004826105b50281611e6057fe5b058403019250600061098f8460500281611e7657fe5b059050600060508261098f0281611e8957fe5b0585039050600b8281611e9857fe5b05945084600c0260028301039150848360318603606402010192508298508197508096505050505050509193909250565b60006001821480611eda5750600382145b80611ee55750600582145b80611ef05750600782145b80611efb5750600882145b80611f065750600a82145b80611f115750600c82145b15611f1f57601f9050611f4e565b60028214611f3057601e9050611f4d565b611f3983612204565b611f4457601c611f47565b601d5b60ff1690505b5b92915050565b60006107b2841015611fce576040517f08c379a000000000000000000000000000000000000000000000000000000000815260040180806020018281038252600b8152602001807f45706f6368206572726f7200000000000000000000000000000000000000000081525060200191505060405180910390fd5b600084905060008490506000849050600062253d8c60046064600c600e870381611ff457fe5b056113248801018161200257fe5b056003028161200d57fe5b05600c80600c600e88038161201e57fe5b0502600287030361016f028161203057fe5b056004600c600e88038161204057fe5b056112c08901016105b5028161205257fe5b05617d4b8603010103039050809450505050509392505050565b6120768282611d17565b6120cb576040517f08c379a00000000000000000000000000000000000000000000000000000000081526004018080602001828103825260218152602001806122486021913960400191505060405180910390fd5b60008260000160008373ffffffffffffffffffffffffffffffffffffffff1673ffffffffffffffffffffffffffffffffffffffff16815260200190815260200160002060006101000a81548160ff0219169083151502179055505050565b6121338282611d17565b156121a6576040517f08c379a000000000000000000000000000000000000000000000000000000000815260040180806020018281038252601f8152602001807f526f6c65733a206163636f756e7420616c72656164792068617320726f6c650081525060200191505060405180910390fd5b60018260000160008373ffffffffffffffffffffffffffffffffffffffff1673ffffffffffffffffffffffffffffffffffffffff16815260200190815260200160002060006101000a81548160ff0219169083151502179055505050565b6000806004838161221157fe5b0614801561222a575060006064838161222657fe5b0614155b8061224057506000610190838161223d57fe5b06145b905091905056fe526f6c65733a206163636f756e7420646f6573206e6f74206861766520726f6c65536166654d6174683a206d756c7469706c69636174696f6e206f766572666c6f77526f6c65733a206163636f756e7420697320746865207a65726f206164647265737357686974656c69737441646d696e526f6c653a2063616c6c657220646f6573206e6f742068617665207468652057686974656c69737441646d696e20726f6c65a265627a7a723058209f1cf3afc27cbd7ceb4b5fb633a9f04be85c135dcb7acfc075b7c6cf0df061b364736f6c634300050a0032536166654d6174683a206d756c7469706c69636174696f6e206f766572666c6f77526f6c65733a206163636f756e7420697320746865207a65726f206164647265737357686974656c69737441646d696e526f6c653a2063616c6c657220646f6573206e6f742068617665207468652057686974656c69737441646d696e20726f6c65",
  "source": "pragma solidity 0.5.10;\n\nimport { WhitelistAdminRole } from \"openzeppelin-solidity/contracts/access/roles/WhitelistAdminRole.sol\";\nimport { IMoleculeVault } from \"../moleculeVault/IMoleculeVault.sol\";\nimport { IERC20 } from \"openzeppelin-solidity/contracts/token/ERC20/IERC20.sol\";\nimport { SafeMath } from \"openzeppelin-solidity/contracts/math/SafeMath.sol\";\nimport { BokkyPooBahsDateTimeLibrary } from \"../_resources/BokkyPooBahsDateTimeLibrary.sol\";\nimport { IVault } from \"./IVault.sol\";\nimport { IMarket } from \"../market/IMarket.sol\";\n\n/**\n  * @author Veronica & Ryan of Linum Labs\n  * @title Vault\n  */\ncontract Vault is IVault, WhitelistAdminRole {\n    using SafeMath for uint256;\n    using BokkyPooBahsDateTimeLibrary for uint256;\n\n    // The vault benificiary\n    address internal creator_;\n    // Market feeds collateral to vault\n    IMarket internal market_;\n    // Underlying collateral token\n    IERC20 internal collateralToken_;\n    // Vault for molecule tax\n    IMoleculeVault internal moleculeVault_;\n    // Tax percentage for molecule tax, i.e 50\n    uint256 internal moleculeTaxRate_;\n    // The funding round that is active\n    uint256 internal currentPhase_;\n    // Offset for checking funding threashold\n    uint256 internal outstandingWithdraw_;\n    \n    // All funding phases information to their position in mapping\n    mapping(uint256 => FundPhase) internal fundingPhases_;\n\n    // Information stored about each phase\n    struct FundPhase{\n        uint256 fundingThreshold;   // Collateral limit to trigger funding\n        uint256 phaseDuration;      // Period of time from start of phase till end\n        uint256 startDate;\n        FundingState state;         // State enum\n    }\n\n    event FundingWithdrawn(uint256 phase, uint256 amount);\n    event PhaseFinalised(uint256 phase, uint256 amount);\n\n    /**\n      * @dev                    Checks the range of funding rounds (1-9)\n      * @param _fundingGoals    : uint256[] - The collateral goal for each funding round\n      * @param _phaseDurations  : uint256[] - The time limit of each fundign round\n      * @param _creator         : address - The creator\n      * @param _collateralToken : address - The ERC20 collateral token\n      * @param _moleculeVault   : address - The molecule vault\n      */\n    constructor(\n        uint256[] memory _fundingGoals,\n        uint256[] memory _phaseDurations,\n        address _creator,\n        address _collateralToken,\n        address _moleculeVault\n    )\n        public\n        WhitelistAdminRole()\n    {\n        require(_fundingGoals.length > 0, \"No funding goals specified\");\n        require(_fundingGoals.length < 10, \"Too many phases defined\");\n        require(_fundingGoals.length == _phaseDurations.length, \"Invalid phase configuration\");\n\n        super.addWhitelistAdmin(_creator);\n\n        outstandingWithdraw_ = 0;\n\n        creator_ = _creator;\n        collateralToken_ = IERC20(_collateralToken);\n        moleculeVault_ = IMoleculeVault(_moleculeVault);\n\n        moleculeTaxRate_ = moleculeVault_.taxRate();\n\n        uint256 loopLength = _fundingGoals.length;\n        for(uint256 i = 0; i < loopLength; i++){\n            uint256 withTax = _fundingGoals[i].add(_fundingGoals[i].mul(moleculeTaxRate_).div(100));\n            fundingPhases_[i].fundingThreshold = withTax;\n            fundingPhases_[i].phaseDuration = _phaseDurations[i];\n        }\n\n        fundingPhases_[0].startDate = block.timestamp;\n        fundingPhases_[0].state = FundingState.STARTED;\n        currentPhase_ = 0;\n    }\n\n    modifier onlyMarket(){\n        require(msg.sender == address(market_), \"Invalid requesting account\");\n        _;\n    }\n\n    /**\n      * @dev            Initialized the contract, sets up owners and gets the market\n      *                 address.\n      * @param _market  : address - The market that will be sending this\n      *                 vault it'scollateral.\n      */\n    function initialize(address _market) external onlyWhitelistAdmin() returns(bool){\n        require(_market != address(0), \"Contracts initalised\");\n        market_ = IMarket(_market);\n        super.renounceWhitelistAdmin();\n        return true;\n    }\n\n    /**\n      * @dev            Allows a creator to withdraw a specific runds funds\n      * @notice         The state of the currentPhase_ will not be 0 untill the last\n      *                 phase, where the terminate function will be called.\n      * @param _phase   : uint256 - The phase the fund rasing is currently on.\n      */\n    function withdraw(uint256 _phase) external onlyWhitelistAdmin() returns(bool){\n        require(fundingPhases_[_phase].state == FundingState.ENDED, \"Fund phase incomplete\");\n\n        // This checks if we trigger the distribute on the Market\n        if(fundingPhases_[currentPhase_].state == FundingState.NOT_STARTED){\n            if(market_.active()) {\n                terminateMarket(); // This triggers the fund transfer\n            }\n        } else {\n            // This sends the funding for the specified round\n            outstandingWithdraw_ = outstandingWithdraw_.sub(fundingPhases_[_phase].fundingThreshold);\n            fundingPhases_[_phase].state == FundingState.PAID;\n\n            uint256 molTax = fundingPhases_[_phase].fundingThreshold.mul(moleculeTaxRate_).div(moleculeTaxRate_.add(100));\n            require(collateralToken_.transfer(address(moleculeVault_), molTax), \"Tokens not transfer\");\n\n            uint256 creatorAmount = fundingPhases_[_phase].fundingThreshold.sub(molTax);\n            require(collateralToken_.transfer(msg.sender, creatorAmount), \"Tokens not transfer\");\n            emit FundingWithdrawn(_phase, creatorAmount);\n\n        }\n        return true;\n    }\n\n    /**\n      * @dev Verifies that the phase passed in: has not been withdrawn, funding goal has been reached,\n      *      and that the phase has not expired.\n      */\n    function validateFunding() external onlyMarket() returns(bool){\n        require(fundingPhases_[currentPhase_].state == FundingState.STARTED, \"Funding inactive\");\n\n        uint256 balance = collateralToken_.balanceOf(address(this));\n        // balance = balance.sub(outstandingWithdraw_);\n\n        uint256 endOfPhase = fundingPhases_[currentPhase_].startDate.addMonths(fundingPhases_[currentPhase_].phaseDuration);\n        if(endOfPhase <= block.timestamp) {\n            return false;\n        }\n\n        if(balance >= fundingPhases_[currentPhase_].fundingThreshold) {\n            // Setting active phase state to ended\n            fundingPhases_[currentPhase_].state = FundingState.ENDED;\n\n            outstandingWithdraw_ = outstandingWithdraw_.add(fundingPhases_[currentPhase_].fundingThreshold);\n\n            currentPhase_ = currentPhase_ + 1;\n            // Here we check if this was the final round to\n            // Set the states apprpriately\n            if(fundingPhases_[currentPhase_].fundingThreshold > 0) {\n                // Setting active phase state to Started\n                fundingPhases_[currentPhase_].state = FundingState.STARTED;\n                fundingPhases_[currentPhase_].startDate = block.timestamp;\n            }\n\n            emit PhaseFinalised(currentPhase_.sub(1), fundingPhases_[currentPhase_.sub(1)].fundingThreshold);\n        }\n        return true;\n    }\n\n     /**\n       * @dev    This function sends the vaults funds to either the market, or the creator with tax\n       *         sent to the moleucle vault.\n       * @notice If this function is called before the end of all phases, all funding will be sent\n       *         to the market to be redistributed.\n       */\n    function terminateMarket()\n        public\n        onlyWhitelistAdmin()\n    {\n        uint256 remainingBalance = collateralToken_.balanceOf(address(this));\n\n        outstandingWithdraw_ = 0;\n\n        // This checks if all funding phases completed successfully\n        // Checks if ended or paid for conclusion of phase\n        if(fundingPhases_[currentPhase_].state == FundingState.NOT_STARTED && (fundingPhases_[currentPhase_ - 1].state >= FundingState.ENDED)) {\n            // Works out the molecule tax amount\n            uint256 molTax = remainingBalance.mul(moleculeTaxRate_).div(moleculeTaxRate_.add(100));\n            // Transfers amount to the molecule vault\n            require(collateralToken_.transfer(address(moleculeVault_), molTax), \"Transfering of funds failed\");\n            // Works out the remaining balance after mol tax, which is fetched\n            // incase of remaining fractions from math\n            remainingBalance = collateralToken_.balanceOf(address(this));\n            // Transfers the amount to the msg.sender\n            require(collateralToken_.transfer(creator_, remainingBalance), \"Transfering of funds failed\");\n\n            emit FundingWithdrawn(currentPhase_, remainingBalance);\n        } else {\n            // Transferes remaining balance to the market\n            require(collateralToken_.transfer(address(market_), remainingBalance), \"Transfering of funds failed\");\n        }\n        // Finalizes market (stops buys/sells distributes collateral evenly)\n        require(market_.finaliseMarket(), \"Market termination error\");\n    }\n\n    /**\n      * @param _phase : uint256 - The phase that you want the information of\n      * @return All stored information about the market.\n      */\n    function fundingPhase(uint256 _phase) public view returns(uint256, uint256, uint256, FundingState) {\n        return (\n            fundingPhases_[_phase].fundingThreshold,\n            fundingPhases_[_phase].phaseDuration,\n            fundingPhases_[_phase].startDate,\n            fundingPhases_[_phase].state\n        );\n    }\n\n    /**\n      * @dev The offset for checking the funding threshold\n      */\n    function outstandingWithdraw() public view returns(uint256){\n        uint256 minusMolTax = outstandingWithdraw_.sub(outstandingWithdraw_.mul(moleculeTaxRate_).div(moleculeTaxRate_.add(100)));\n        return minusMolTax;\n    }\n\n    /**\n      * @dev The current active phase of funding\n      */\n    function currentPhase() public view returns(uint256) {\n        return currentPhase_;\n    }\n\n    /**\n      * @dev The address of the current market\n      */\n    function market() public view returns(address) {\n        return address(market_);\n    }\n\n    function creator() external view returns(address) {\n        return creator_;\n    }\n}\n",
  "sourcePath": "temp/vault/Vault.sol",
  "compiler": {
    "name": "solc",
    "version": "0.5.10+commit.5a6ea5b1.Emscripten.clang",
    "optimizer": false,
    "runs": 200
  },
  "schemaVersion": "2.2.0",
  "updatedAt": "2019-08-28T10:00:02.519Z"
}